:020000040800F2
:1000000058120020C5470008CD470008CF47000818
:10001000D1470008D3470008D5470008000000007A
:10002000000000000000000000000000D7470008AA
:10003000D947000800000000DB470008DD47000842
:10004000DF470008DF470008DF470008DF470008F8
:10005000DF470008DF470008DF470008DF470008E8
:10006000DF470008DF470008DF470008DF470008D8
:10007000DF470008DF470008DF470008DF470008C8
:10008000DF470008DF470008DF47000800000000E6
:10009000000000000000000000000000DF47000832
:1000A000DF470008DF470008DF470008DF47000898
:1000B000591C0008DF470008DF470008DF47000839
:1000C000DF470008DF470008DF470008DF47000878
:1000D000DF47000833150008DF470008DF47000846
:1000E000A11E0008DF470008DF47000800000000ED
:1000F0000000000000000000000000000000000000
:1001000000000000000000000000000000000000EF
:100110000000000000000000251C00083F1C000833
:1001200000F002F800F05EF80AA090E8000C8244AB
:100130008344AAF10107DA4501D100F053F8AFF288
:10014000090EBAE80F0013F0010F18BFFB1A43F0B5
:1001500001031847245300004453000010F8013BEA
:100160000A4413F0030408BF10F8014B1D1108BF27
:1001700010F8015B641E05D010F8016B641E01F8D5
:10018000016BF9D1002D15D010F8014B03F00C03D1
:100190000C2BA1EB04040ABF10F8013BA4EB831461
:1001A000A4EB032405F1010314F8016B5B1E01F8B5
:1001B000016BF9D5914238BF10F8013BD1D370479C
:1001C0000023002400250026103A28BF78C1FBD860
:1001D000520728BF30C148BF0B6070471FB51FBD15
:1001E00010B510BD04F030FB1146FFF7F7FF00F02B
:1001F0002AFA04F04EFB03B4FFF7F2FF03BC04F04D
:1002000053FB000000E0401E0028FCD17047202076
:1002100000E0401E0028FCD1704710B542F2D434F3
:1002200002E0641E02F035FD002CFAD110BD10B5BD
:10023000264C02E0641E02F02CFD002CFAD110BD09
:1002400010B5234C02E0641E02F023FD002CFAD10D
:1002500010BD10B540F22A7402E0641E02F019FDD0
:10026000002CFAD110BD014600200FE0421CD0B294
:10027000421ED0B2421CD0B2421ED0B2421CD0B2FA
:10028000421ED0B2421CD0B2421ED0B20A00A1F12E
:10029000010399B2EAD1704710B5044603E040F279
:1002A000CF30FFF7E0FF2000A4F101018CB2F6D1BE
:1002B00010BD10B5044603E04FF47A70FFF7ECFF71
:1002C0002000A4F101018CB2F6D110BDA2CC020035
:1002D00054FE1B0070B502460C46FF25FF2309E0C3
:1002E00012F8010B80EA0301F748405C80EA05033D
:1002F000F648455C2000A4F10106F4B2F0D143EACF
:10030000052070BD10B504462146F14803F004FFF6
:1003100000BF4021EE4803F06DFF0028F9D04021D6
:10032000EB4803F074FF10BD70B50546284604F095
:1003300069FAC6B2002404E0285DFFF7E3FF601C01
:10034000C4B2B442F8DB70BD10B504462146E148A2
:1003500003F0E2FE00BF4021DE4803F04BFF00281F
:10036000F9D04021DB4803F052FF10BD70B50546BF
:10037000284604F047FAC6B2002404E0285DFFF7DF
:10038000E3FF601CC4B2B442F8DB70BD70B5044634
:100390000D46642094FBF0F03030C6B23046FFF7D3
:1003A000D3FF642094FBF0F100FB11400A2190FB85
:1003B000F1F03030C6B23046FFF7C6FF0A2094FB9A
:1003C000F0F100FB11403030C6B23046FFF7BCFF01
:1003D000012D02D10D20FFF7B7FF70BD70B50446A7
:1003E000642094FBF0F03030C5B22846FFF7ACFF34
:1003F0002E20FFF7A9FF642094FBF0F100FB1140D1
:100400000A2190FBF1F03030C5B22846FFF79CFF7F
:100410000A2094FBF0F100FB11403030C5B22846B1
:10042000FFF792FF5620FFF78FFF0D20FFF78CFF9D
:1004300070BD70B504460020A7490860A749C1F8FF
:10044000A4014FF00300FFF70EFF00251BE014F49A
:10045000004F03D10020A249086002E00120A0491A
:1004600008604FF6FF7000EA44044FF001009D4918
:1004700008604FF00300FFF7F6FE00209749C1F82F
:10048000A401681CC5B2102DE1DB0020944908606E
:100490004FF00300FFF7E7FE01209049C1F89C01EF
:1004A0000320FFF7E0FE00208B49086070BD70B5A7
:1004B000044600208C4908608849C1F8B8014FF013
:1004C0000300FFF7D0FE00251BE014F0800F03D1DE
:1004D00000208649086002E00120844908604FEA54
:1004E00044604FEA10644FF00100814908604FF00A
:1004F0000300FFF7B8FE00207849C1F8B801681C76
:10050000C5B2082DE1DB0020784908604FF00300F8
:10051000FFF7A9FE01207749C1F8A0010320FFF7EA
:10052000A2FE00207049086070BD70B5044600202E
:10053000714908606949C1F894014FF00300FFF761
:1005400092FE00251BE014F0800F03D100206B49C0
:10055000086002E00120694908604FEA44604FEA00
:1005600010644FF00100664908604FF00300FFF788
:100570007AFE00205949C1F89401681CC5B2082DC3
:10058000E1DB00205D4908604FF00300FFF76BFEE0
:1005900001205249C1F898010320FFF764FE0020B2
:1005A0005549086070BD30B90021564A1160514A62
:1005B000C2F8BC111BE0012808D10121514A116089
:1005C0004FF000014B4AC2F8BC1110E0022808D1DC
:1005D00000214C4A11604FF00101464AC2F8BC119B
:1005E00005E00121474A1160424AC2F8BC11704738
:1005F00010B5044634B90020434908603749C1F8B2
:10060000B4011BE0012C08D101203F4908604FF0E4
:1006100000003249C1F8B40110E0022C08D10020DA
:10062000394908604FF001002C49C1F8B40105E0D8
:100630000120354908602949C1F8B4014FF005008F
:10064000FFF72AFE10BD86B04FF0000BD84601F030
:10065000B1FC01F05CF801F036F901F091F801F01D
:1006600069FB01F049FA01F039F901F0A1F9002024
:10067000FFF71DFF0020FFF758FF4FF6FF70FFF751
:10068000D8FE3020FFF73EFE3120FFF73BFE4FF44F
:100690007A70FFF701FE0020FFF7CBFE1B48FFF743
:1006A00043FE0D20FFF750FEFEE30BE01848006804
:1006B000012807D10A20FFF7EFFD1548006801283F
:1006C00000D127E0F2E70000010800200109002026
:1006D00000380140004800409C81214200802142B6
:1006E000A0812142A4812142A0012142BC8121425A
:1006F000B88121420000214298812142908121420B
:1007000094812142B0012142B0812142BC530008B2
:100710003401224200BFC820FFF7BEFD0020FFF7D2
:1007200088FE002240F22551FE4803F094FC05208B
:10073000FFF7B2FD0A21082001F04DFB804640463C
:1007400004F0ECFA4FF06632F74BCDE9000104F00B
:10075000F9FACDE9020104F0AFF80490049804F02E
:100760002DFD86B2FF2E00DDFF26B046C8EB081037
:100770004FF6FF7101EA4006642096FBF0F086B266
:1007800008EB06001FFA80F9B9F1FC0F01DD4FF00C
:10079000FC09A8EB06001FFA80FA4046FFF7B2FDFD
:1007A0005046FFF7AFFD4846FFF7ACFDB8F1000F2C
:1007B00002DBB8F1FF0F67DD0120DC49087064201F
:1007C000FFF76AFD0020D94908706420FFF764FD37
:1007D0000120D64908706420FFF75EFD0020D34950
:1007E00008706420FFF758FD0120D049087064208C
:1007F000FFF752FD0020CD4908704FF6FF70FFF75C
:1008000018FE0020FFF7A0FDC948FFF7AFFD08F074
:10081000FF000021FFF7BAFD2820FFF795FD00211A
:100820000846FFF7B3FD2D20FFF78EFD0021FF20C6
:10083000FFF7ACFD2920FFF787FDB8F1000F03DAC1
:10084000BC48FFF793FD02E0BB48FFF78FFD0D208A
:10085000FFF77AFD0D20FFF777FD0D20FFF774FD00
:100860004046FFF74FFD0020FFF74CFDFF20FFF74C
:1008700049FDB8F1000F03DAAE48FFF755FD13E765
:10088000AD48FFF751FD0FE70120A8490870FF2090
:10089000FFF70DFEFF20FFF748FE4FF49670FFF7BD
:1008A000FBFC0020A1490870A448FFF73DFD4FF470
:1008B0007A60FFF7F1FC00249BE02046FFF773FE0F
:1008C000002591E02846FFF793FE0A21002001F061
:1008D00082FA04EB44019A4A02EB411105EB45020E
:1008E00001EBC20148700520FFF7D6FC0A21042065
:1008F00001F071FA04EB4401914A02EB411105EB5E
:10090000450201EBC201887004EB44008C4901EB05
:10091000401005EB450100EBC10080780A2814DD8A
:1009200004EB4400864901EB401005EB450100EB68
:10093000C1008078401C04EB4401814A02EB411164
:1009400005EB450201EBC20188700520FFF7A4FC0E
:100950000A21012001F03FFA04EB4401784A02EB3E
:10096000411105EB450201EBC201C87004EB4400E4
:10097000734901EB401005EB450100EBC100C07865
:100980000A2814DD04EB44006D4901EB401005EB2F
:10099000450100EBC100C078401C04EB4401684AEB
:1009A00002EB411105EB450201EBC201C87065483D
:1009B000006801280BD1002004EB4401604A02EBDF
:1009C000411105EB450201EBC20108710AE001206B
:1009D00004EB44015A4A02EB411105EB450201EBDD
:1009E000C2010871681CC5B2042DFFF66BAF601C14
:1009F000C4B2042CFFF661AF0020534908700420F4
:100A0000524908700024B3E02046FFF7CCFD0025D2
:100A1000A9E02846FFF7ECFD002004EB4401484A1A
:100A200002EB411105EB450201EBC2018871012681
:100A3000042000FB045006FA00F086B23046FFF7AF
:100A4000F8FC00200590374800886FF3090035490D
:100A50000880084603F064FBC7B240F225513148D4
:100A600003F008FC012240F225512E4803F0F3FA6E
:100A7000002719E00598012807D133480078042899
:100A800003DA00203049087005902F4800780028CC
:100A900005DD2D480078042801DA012005900520A5
:100AA000FFF7FAFB781CC7B2282FE3DB0020FFF723
:100AB000C0FC3220FFF7F0FB002240F2255119481C
:100AC00003F0C9FA20480078042817D1204840785C
:100AD00004EB44011A4A02EB411105EB450201EB1C
:100AE000C2018871012004EB4401154A02EB411157
:100AF00005EB450201EBC20148710AE0002004EB5E
:100B000044010F4A02EB411105EB450201EBC20122
:100B1000487100200C49087004EB4401084A02EBBC
:100B2000411117E0003801406666FA3F00080020D6
:100B3000D0530008D9530008E2530008C7530008F7
:100B4000780A00200C812142020A0020010A0020BC
:100B50002C0A002005EB450201EBC2018879FFF762
:100B6000D1FB681CC5B2042DFFF653AF601CC4B2A4
:100B7000042CFFF649AF0820FFF79BFB002426E07A
:100B80002046FFF710FD00251DE02846FFF730FD49
:100B9000FE480068012814D104EB4400FC4901EB35
:100BA000401005EB450100EBC10000790A3004EB71
:100BB0004401F74A02EB411105EB450201EBC2018A
:100BC0000871681CC5B2042DDFDB601CC4B2042CA4
:100BD000D6DB0A20EF49087000249FE02046FFF78B
:100BE000E2FC002595E02846FFF702FD0020EA49D7
:100BF000087000270DE0002104EB4400E44A02EBFA
:100C0000401005EB450200EBC2000830C155781CCE
:100C1000C7B20A2FEFDB0126042000FB045006FABE
:100C200000F086B23046FFF704FC00200590DB4858
:100C300000886FF30900D9490880084603F070FA6C
:100C4000C7B240F22551D54803F014FB012240F20F
:100C50002551D24803F0FFF9002719E00598012833
:100C600007D1CD4800780A2803DA0020CA49087065
:100C70000590C9480078002805DDC74800780A2893
:100C800001DA012005900520FFF706FB781CC7B2AA
:100C9000282FE3DB0020FFF7CCFB3220FFF7FCFA24
:100CA000002240F22551BD4803F0D5F9BA4800783A
:100CB0000A281ED1012004EB4401B54A02EB411180
:100CC00005EB450201EBC201C87100270EE0B448F4
:100CD000C15D04EB4400AE4A02EB401005EB450257
:100CE00000EBC2000830C155781CC7B20A2FEEDBFA
:100CF0000AE0002004EB4401A54A02EB411105EB98
:100D0000450201EBC201C8710020A3490870681CAC
:100D1000C5B2042DFFF667AF601CC4B2042CFFF609
:100D20005DAF002700242AE0002524E004EB440006
:100D3000974901EB401005EB450100EBC10000793C
:100D4000002801DD781CC7B204EB4400904901EB98
:100D5000401005EB450100EBC1000079643004EB65
:100D600044018B4A02EB411105EB450201EBC20144
:100D70000871681CC5B2042DD8DB601CC4B2042CF9
:100D8000D2DB00264AE0102F00DB49E00120854934
:100D900008706420FFF780FA0020824908704FF441
:100DA000C870FFF779FA002434E02046FFF7FBFB18
:100DB00000252BE02846FFF71BFC04EB4400744998
:100DC00001EB401005EB450100EBC1000079642800
:100DD0001AD16E480068012816D104EB44006C4912
:100DE00001EB401005EB450100EBC10000796438D0
:100DF00004EB4401664A02EB411105EB450201EBAD
:100E0000C2010871781CC7B2681CC5B2042DD1DBC1
:100E1000601CC4B2042CC8DB701C86B2142EB2DB7A
:100E200000BF6420FFF738FA0020FFF740FB0020E6
:100E3000FFF77BFB0020FFF787FA4FF0000B002441
:100E400001E30025FAE204EB4401514A02EB4111AF
:100E500005EB450201EBC2014878FFF753FA04EBBA
:100E600044014B4A02EB411105EB450201EBC20183
:100E70008878FFF747FA04EB4401454A02EB411139
:100E800005EB450201EBC201C878FFF73BFA04EB22
:100E900044013F4A02EB411105EB450201EBC2015F
:100EA0000879FFF72FFA00E000E304EB4401384A29
:100EB00002EB411105EB450201EBC2014879FFF756
:100EC00021FA04EB4401324A02EB411105EB4502E1
:100ED00001EBC2018879FFF715FA04EB44012C4AB3
:100EE00002EB411105EB450201EBC201C879FFF7A6
:100EF00009FA04EB4401264A02EB411105EB4502D5
:100F000001EBC201487AFFF7FDF904EB4401204AE6
:100F100002EB411105EB450201EBC201087BFFF733
:100F2000F1F904EB44001A4901EB401005EB4501CF
:100F300000EBC100407814287EDB04EB4400144928
:100F400001EB401005EB450100EBC1004078202883
:100F500072DC04EB44000E4901EB401005EB450147
:100F600000EBC10080786D2866DB04EB4400084983
:100F700001EB401005EB450100EBC10080787628BD
:100F80005ADC04EB440002490EE000000C812142CF
:100F9000780A0020010A0020020A002000380140DF
:100FA0002C0A00200008002001EB401005EB450151
:100FB00000EBC100C0785A286BDB04EB4400FE490B
:100FC00001EB401005EB450100EBC100C0785F2844
:100FD0005FDC04EB4400F84901EB401005EB4501F0
:100FE00000EBC1000079002853DC04EB4400F24917
:100FF00001EB401005EB450100EBC100C079D8B111
:1010000004EB4400EC4901EB401005EB450100EB1B
:10101000C100407A96283CDB04EB4400E64901EB32
:10102000401005EB450100EBC100007B3C2830DBA4
:1010300004EB4400E04900E02BE001EB401005EB3D
:10104000450100EBC100007B5D2822DC04EB44007D
:10105000D94901EB401005EB450100EBC100407997
:10106000B8B104EB4400D44901EB401005EB450155
:1010700000EBC100807950450BDB04EB4400CE4906
:1010800001EB401005EB450100EBC10080794845BC
:101090007DDD012004EB4401C74A02EB411105EB61
:1010A000450201F832000126042000FB045006FA34
:1010B00000F086B24BEA060B0020FFF745F9BF4867
:1010C000FFF754F904F13100FFF73EF92D20FFF747
:1010D0003BF905F13100FFF737F90D20FFF734F93F
:1010E00004EB4400B44901EB401005EB450100EB73
:1010F000C100407814280BDB04EB4400AE4901EB3F
:10110000401005EB450100EBC100407820282ADDA6
:10111000AB48FFF72BF904EB4400A74901EB401063
:1011200005EB450100EBC100407800EB401000EBFF
:1011300080063612F0B20021FFF728F9A148FFF728
:1011400015F904EB44009C4901EB401005EB450107
:1011500000EBC10040785D2802DD9B48FFF706F9EF
:101160000D20FFF7F1F804EB4400934901EB401028
:1011700005EB450100EBC100407802287EDB04EB63
:1011800044008D4901EB401005EB450100E049E1C9
:1011900000EBC10040785D2870DC04EB4400864918
:1011A00001EB401005EB450100EBC100407930B97F
:1011B0008648FFF7DBF80D20FFF7C6F845E004EBA3
:1011C00044007D4901EB401005EB450100EBC100F7
:1011D000807950450BDB04EB4400774901EB40106C
:1011E00005EB450100EBC100807948452DDD7848CD
:1011F000FFF7BCF804EB44016F4A02EB411105EB29
:10120000450201EBC20188790021FFF7BFF82820D1
:10121000FFF79AF80AF0FF000021FFF7B7F82D203A
:10122000FFF792F808F0FF000021FFF7AFF82D203C
:10123000FFF78AF809F0FF000021FFF7A7F829203F
:10124000FFF782F80D20FFF77FF804EB44005A49BE
:1012500001EB401005EB450100EBC10080786D28E3
:101260000BDB04EB4400544901EB401005EB450156
:1012700000EBC1008078762816DD00E0D1E055480B
:10128000FFF774F804EB44004B4901EB401005EB09
:10129000450100EBC100807800EB401000EB8006B8
:1012A000B6113046FFF79AF804EB4400424901EBCF
:1012B000401005EB450100EBC100C0785A280BDB5C
:1012C00004EB44003C4901EB401005EB450100EB09
:1012D000C100C0785F2814DD3F48FFF747F804EBF2
:1012E0004400354901EB401005EB450100EBC1001E
:1012F000C07800EB401000EB8006F6113046FFF797
:101300006DF804EB44002C4901EB401005EB45015E
:1013100000EBC100007900280FDD3048FFF726F808
:1013200004EB4401244A02EB411105EB450201EBB9
:10133000C20108790121FFF729F804EB44001E4996
:1013400001EB401005EB450100EBC100C07930B95D
:101350002348FFF70BF80D20FEF7F6FF6CE004EBD7
:101360004400154901EB401005EB450100EBC100BD
:10137000407A96280FDA1B48FEF7F8FF04EB440189
:101380000D4A02EB411105EB450201EBC201487A1F
:101390000121FEF7FBFF04EB4400074901EB40107D
:1013A00005EB450100EBC100007B3C2825DB04EB8D
:1013B0004400014918E00000780A0020EB530008BF
:1013C000FC530008075400080A5400084854000859
:1013D00027540008115400081C5400083D5400080C
:1013E0005B5400086A54000801EB401005EB45010E
:1013F00000EBC100007B5D281EDD9D48FEF7B6FFB7
:1014000004EB44009B4901EB401005EB450100EB68
:10141000C100007B642100FB01F6F6113046FEF7A7
:10142000DDFF09E0002004EB4401924A02EB411188
:1014300005EB450201F83200681CC5B2042DFFF629
:1014400002AD601CC4B2042CFFF6FBACBBF1000F74
:1014500005DD0D20FEF778FF0D20FEF775FF5846DD
:10146000FEF7E7FF012084490870BBF1000F1EDD85
:101470006420FEF711FF00207F4908706420FEF70A
:101480000BFF01207C4908706420FEF705FF002057
:10149000794908706420FEF7FFFE01207649087044
:1014A0006420FEF7F9FE00207349087006E04FF44F
:1014B0001670FEF7F1FE00206F490870FFF7F5B8CF
:1014C0002DE9FE4F0A21102000F085FC00900098C5
:1014D00003F094FE804603F029FE06464FF0663284
:1014E000664B03F02FFC044603F0E6F901900198E7
:1014F00003F01CFE8246624A624B03F021FD8046E7
:10150000614A624B03F0B2FA06460022604B03F0D8
:1015100005FA044603F0D0F901905E49019803F002
:1015200081FE044603F02EFE00B202900298BDE850
:10153000FE8F2DE9F0414FF000080821564802F0D7
:1015400059FE18B10821544802F061FE40F22551BD
:10155000514802F065FE002876D040F225514E48F1
:1015600002F088FE4C4802F0DBFDC4B24B48007824
:10157000042838D14A48007820B9FA2C1ED04FF000
:1015800001081BE046480078022806D1454840780B
:10159000A04213D04FF0010810E041480078032822
:1015A0000CD1FB273F4840783844C7B23D4880788B
:1015B0003844C7B2BC4201D04FF00108B8F1000F67
:1015C0000DD137480078042850DA36483449097874
:1015D000445433480078401C3149087046E00020EC
:1015E0002F49087042E02E48007820B9352C15D0DC
:1015F0004FF0010812E02A48007809280ED1012690
:10160000002505E02748405D3044C6B2681CC5B2DD
:10161000092DF7DBB44201D04FF00108B8F1000FFB
:101620000ED11F4800780A2820DA1E481C49097884
:1016300044541B480078401C1949087016E003E028
:1016400000201749087011E040F22441124802F0CE
:10165000E7FD58B110480088C4B20F48001D00884B
:10166000C4B240F224410C4802F004FEBDE8F0810F
:1016700032540008780A00200008002066664A3FBD
:10168000E17A14AE47E1F63F22FDF675E09C713F2A
:1016900000C052400000204100380140010A0020F3
:1016A000020A00202C0A002010B501F009FB0120DD
:1016B00001F08DFB002001F0A8FB002001F0B3FB3E
:1016C0004FF4806001F0B8FB002001F0BEFB012167
:1016D000082001F06CFC102000F05CFE022000F0FD
:1016E00045FE0021084601F075FB012001F07EFB5C
:1016F00000BF392001F029FB0028FAD0022001F0B8
:1017000084FB00BF01F08AFB0828FBD110BD10B597
:1017100001F0D6FA4FF4803001F0F4FA01F031FB19
:101720000446012C24D1102000F034FE022000F0E9
:101730001DFE002001F077FB002001F086FBA002D7
:1017400001F07AFBA104881001F044FB012001F0B4
:101750004DFB00BF392001F0F8FA0028FAD0022032
:1017600001F053FB00BF01F059FB0828FBD101E059
:10177000FFF79AFF01214FF0C05001F025FC10BD8A
:1017800008B5012144F21D0001F011FC1320ADF851
:10179000000000208DF803006946A24801F024F9FA
:1017A0000120ADF8000000208DF8030069469E4836
:1017B00001F01AF949F66010ADF8000002208DF82A
:1017C000020010208DF803006946964801F00CF9DC
:1017D0008020ADF8000001208DF8020028208DF84F
:1017E000030069468F4801F0FFF84FF2F230ADF880
:1017F000000002208DF8020010208DF803006946D9
:10180000894801F0F1F8012002F059FD002001F0B3
:101810003FFB002000F0C5FC002000F0C6FC4FF4A8
:101820006040ADF8000002208DF8020028208DF8FD
:10183000030069467D4801F0D7F8002002F03FFD23
:101840004FF48160ADF8000003208DF802004820BD
:101850008DF803006946734801F0C6F84FF4006044
:10186000ADF8000003208DF8020048208DF8030039
:1018700069466D4801F0B8F84FF48060ADF800009B
:1018800003208DF8020018208DF803006946664891
:1018900001F0AAF84FF48061634801F050F94FF469
:1018A0000170ADF8000003208DF8020018208DF8BB
:1018B000030069465B4801F097F84FF401715948FD
:1018C00001F03DF908BD10B500214FF0006000F0B7
:1018D00027FC4FF4E06000F0EBFB10BD00B585B0D5
:1018E0004FF4614000900020ADF80400ADF8060010
:1018F000ADF80800ADF80C000C20ADF80A00694600
:101900004B4802F010FB0121494802F098FB2520CA
:101910008DF8100002208DF811008DF812000120C2
:101920008DF8130004A800F0C8FB0121414801F024
:101930004BFB4FF4614000900020ADF80400ADF87F
:101940000600ADF80800ADF80C000C20ADF80A0058
:101950006946394802F0E7FA0121374802F06FFB87
:101960004FF4165000900020ADF80400ADF80600CA
:10197000ADF80800ADF80C000C20ADF80A0069467F
:101980002E4802F0D0FA01212C4802F058FB4021E9
:10199000274802F03CFC4021274802F038FC402157
:1019A000264802F034FC05B000BD72B662B670473E
:1019B00008B501210D2001F0FAFA0121204801F0BB
:1019C000E2F81020ADF800008DF8030001208DF83A
:1019D00002006946144801F007F81021124801F08E
:1019E000B0F80820ADF8000048208DF80300022070
:1019F0008DF8020069460C4800F0F6FF4FF40040F5
:101A0000ADF8000010208DF8030001208DF80200D1
:101A10006946044800F0E8FF4FF40041014801F036
:101A200090F808BD00080140000C01400010014082
:101A3000003801400100060000440040004800401A
:101A4000000230001FB50121102001F0BDFAB3489B
:101A500001F018FB40F2F310ADF8080045F6BF5056
:101A6000ADF8040001A9AD4801F0E0FB0021AB484E
:101A700002F038F801221146A84801F04EFF01217A
:101A8000A64801F02FFF36208DF8000001208DF8C8
:101A900002008DF80300684600F00FFB1FBD1FB564
:101AA0000121202001F090FA9D4801F0EBFA64201A
:101AB000ADF8080045F6BF50ADF8040001A99848FC
:101AC00001F0B4FB0021964802F00CF80122114607
:101AD000934801F022FF0121914801F003FF3720D4
:101AE0008DF8000002208DF8020001208DF803001F
:101AF000684600F0E2FA1FBD1FB50121084601F05B
:101B000063FA4FF0804001F0BDFA1320ADF80800F1
:101B1000EF20ADF804000020ADF80A00ADF8060093
:101B200001A94FF0804001F081FB0121880701F0FD
:101B3000D9FE1C208DF8000005208DF801008DF8DD
:101B4000020001208DF80300684600F0B6FA012279
:101B50000221480701F0E1FE0221480702F09CF94A
:101B60001FBD1FB50121022001F02EFA6D4801F0C2
:101B700089FAC820ADF8080045F6BF50ADF804005A
:101B80000020ADF80600ADF80A0001A9654801F093
:101B90004DFB0021634801F0A5FF01221146614879
:101BA00001F0BBFE00215F4801F09CFE1D208DF876
:101BB000000006208DF8020001208DF80300684621
:101BC00000F07BFA1FBD1FB50121042001F0FCF9D4
:101BD000554801F057FA4120ADF8080041F63F7032
:101BE000ADF804000020ADF80A00ADF8060001A928
:101BF0004D4801F01BFB01214B4801F073FE02210F
:101C0000494802F049F91E208DF8000004208DF8A3
:101C100001008DF8020001208DF80300684600F0F5
:101C20004CFA1FBD10B501213C4802F024F928B13F
:101C300001F02FF80121394802F02EF910BD10B53E
:101C40000121374802F017F928B101F022F80121EB
:101C5000334802F021F910BD10B50221480702F007
:101C60000AF930B30221480702F016F92F4800782C
:101C700018B900202E4908601BE02C49087800EBB9
:101C8000D0714910A0EB4101012903D1012028495D
:101C9000086002E00020264908602448007800F12E
:101CA00001002249087008460078642801DD0120FF
:101CB000087010BD10B588B000240121022001F089
:101CC00083F9C720ADF818000120ADF814000020FA
:101CD000ADF81A00ADF8160005A9124801F0A6FAF1
:101CE0006020ADF804000120ADF80600ADF80A4010
:101CF0000020ADF80C0001A90A4801F016FB0821EC
:101D0000084801F028FF0121064801F0EBFE0121FF
:101D1000044801F0E7FD08B010BD000000100040CD
:101D200000140040000400400008004000080020AB
:101D3000AC01214200B585B001214FF4017001F0E2
:101D400036F9002001F09BF83B4802F013FB00201D
:101D500000908DF804008DF805004FF4602002908B
:101D60000020039001208DF810006946324802F0EF
:101D700028FB012002F0E2FC01212F4802F04DFB7C
:101D80002D4802F06CFB00BF2B4802F06DFB0028D1
:101D9000FAD1294802F072FB00BF274802F073FB1A
:101DA0000028FAD105B000BD10B504460023012279
:101DB0002146214802F09DFB01211F4802F06DFBE6
:101DC00000BF02211C4802F0D9FC0028F9D01A48B3
:101DD00002F0F6FB10BD2DE9F05F82460E460024AE
:101DE0000025002740F6FF78A14618E04FF00F0BC2
:101DF00000BF5FEA0B00ABF1010101F0FF0BF8D16E
:101E00005046FFF7D1FF05462C44AF4200DA2F467B
:101E1000A84500DDA84609F1010000F0FF09B14521
:101E2000E4DBE41BA4EB0804B01EC6B2B4FBF6F47A
:101E30002409E0B2BDE8F09F002401401FB5012154
:101E40000D2001F0B4F84FF48050ADF80C000120E3
:101E50008DF80E0004208DF80F0003A9254800F02E
:101E6000C3FD0021012000F0D3FE012001900020DD
:101E70008DF8080010208DF8090001208DF80A0067
:101E800001A800F0F3F928208DF8000000208DF85B
:101E9000020001208DF80300684600F00EF91FBD16
:101EA00010B54FF4806000F038FA70B11248006845
:101EB00060F4806010490860081500F04EFA0E4882
:101EC000006840F480600C4908604FF4006000F046
:101ED00024FA70B10848006860F4006006490860A0
:101EE000C81400F03AFA0448006840F4006002495F
:101EF000086010BD000C0140000401400CB500203A
:101F0000019000906248006840F4803060490860A9
:101F100000BF5F48006800F4003000900198401C4A
:101F20000190009818B90198B0F5A06FF1D1584808
:101F3000006810F4003F02D00120009001E0002072
:101F400000900098012830D15148406850494860BD
:101F5000084640684860084640684860084640684F
:101F600020F47C1048600846406840F498104860AF
:101F70000846006840F08070086000BF4448006870
:101F800010F0007FFAD04248406820F0030040493A
:101F900048600846406840F00200486000BF3C4886
:101FA000406800F00C000828F9D10CBD10B5FFF70F
:101FB000A5FF10BD10B53648006840F00100344957
:101FC000086008464068334908403149486008467F
:101FD0000068314908402E4908600846006820F42E
:101FE000802008600846406820F4FE0048604FF4F6
:101FF0001F0088600020C862FFF7D8FF4FF0006024
:102000002649086010BD30B50021002000220023C1
:102010001F4C646804F00C0121B1042906D0082982
:1020200025D107E01E4C1F4D2C6024E01C4C1D4D9B
:102030002C6020E0164C646804F47010144C646842
:1020400004F48032022404EB904022B9164C44433D
:10205000144D2C600AE00E4CE46A04F00F04631C7B
:102060000F4CB4FBF3F444430E4D2C6003E00C4CD6
:102070000C4D2C6000BF00BF054C6468C4F3031412
:102080000A4D295D074C2468CC40064D2C6030BDBC
:10209000001002400000FFF8FFFFF6FE08ED00E030
:1020A00000127A00040A002000093D00080A0020FE
:1020B00031490143314A1160704770B50021002356
:1020C0000F22C4780CB32D4C246804F4E064C4F5EA
:1020D000E064210AC1F10403CA40447804FA03F120
:1020E0008478144021430901254C0678A1550478D1
:1020F00004F01F050124AC4005786D114FF0E02677
:1021000006EB8505C5F8004109E0047804F01F05D9
:102110000124AC401B4D0678761145F8264070BD71
:10212000194A0A400243154B1B1F1A60704739B108
:10213000124A121D12680243104B1B1D1A6006E062
:102140000E4A121D126882430C4B1B1D1A60704709
:10215000042808D14FF0E021096941F004014FF053
:10216000E022116107E04FF0E021096921F004014C
:102170004FF0E022116170470000FA050CED00E01D
:1021800000E400E080E100E080FFFF1F10B50120C7
:1021900000F041FF002000F03EFF10BD2A4908601A
:1021A00070472949091F0860704727498431086032
:1021B000704701460020254A10884FF67F421040A4
:1021C0000843224A10807047014600201F4A1088A9
:1021D0004FF68072104008431C4A1080704708B5C3
:1021E00000220092194A2C3A0092009A024400926E
:1021F000009A116008BD08B5014600200090134800
:102200002C3800900098084400900098008808BD81
:102210000D489C300068C0B270470C4808300088F8
:1022200040F0010009490831088070470648A03095
:102230000068C0B2704705480830008840F00200CE
:10224000024908310880704704860D422C6C00401A
:10225000002044490860091D0860091D0860091D27
:10226000086041483F4914310860704700213D49EA
:102270008279002A3AD00A46126803689A430B46CC
:102280001A600A1D126803689A430B1D1A600279CE
:1022900011440A6803681A430A60324A0832126815
:1022A00003689A432F4B08331A601A1D126803689B
:1022B0009A432C4B0C331A604279102A0ED11A1F04
:1022C000126803681A43274B08331A601A1D1268F4
:1022D00003681A43234B0C331A600DE021494279FD
:1022E00011440A6803681A430A6005E00279114440
:1022F0000A6803689A430A6070470021016001710F
:102300000C21417100218171704716491031096813
:102310000143144A10321160704701460020114AEF
:10232000143212680A4201D0012000E000207047F8
:102330000C49143108607047014600200022094B07
:102340001B6803EA0102074B14331B680B4202D0DF
:102350000AB1012000E000207047024914310860F2
:102360007047000000040140FFFF0F0001460020FD
:10237000FE4A106800F03800084310607047FB49BF
:10238000096821F00801F94A116011460968014302
:1023900011607047F549096821F01001F34A116096
:1023A00011460968014311607047F148EF494860E0
:1023B000F04848607047EE48EC494860ED48486096
:1023C0007047EA48006940F08000E84908617047BA
:1023D000E648006940F08000E44908617047042045
:1023E000E249C96811F0010F01D001200EE0DF4978
:1023F000C96811F0040F01D0022007E0DB49C96869
:1024000011F0100F01D0032000E00420704700B548
:1024100002460423FFF7E3FF034603E0FFF7DFFF75
:102420000346521E012B01D1002AF7D102B9052320
:10243000184600BD30B5044604254FF43020FFF7A0
:10244000E6FF0546042D17D1C848006940F0020098
:10245000C649086108464461006940F040000861CF
:102460004FF43020FFF7D3FF0546C048006941F61E
:10247000FD710840BD490861284630BD10B50424EF
:102480004FF43020FFF7C3FF0446042C16D1B748A1
:10249000006940F00400B54908610846006940F051
:1024A000400008614FF43020FFF7B1FF0446AF4809
:1024B000006941F6FB710840AC490861204610BD37
:1024C00000B502460423FFF78AFF034603E0FFF747
:1024D00086FF0346521E012B01D1002AF7D102B913
:1024E0000523184600BD10B504244FF43020FFF733
:1024F000E7FF0446042C16D19C48006940F0040014
:102500009A4908610846006940F0400008614FF4AC
:102510003020FFF7D5FF04469448006941F6FB716F
:10252000084092490861204610BD00208F49C969C2
:1025300011F0020F01D0012000E00020704730B5FB
:10254000A5250424FFF7F1FF00B100254FF430204A
:10255000FFF75DFF0446042C3AD185488349886023
:10256000844888600846006940F0200008610846F9
:10257000006940F0400008614FF43020FFF747FF4A
:102580000446042C1BD17948006941F6DF710840EC
:10259000764908610846006940F0100008617648F5
:1025A0000580E002FFF733FF0446052C10D06F488A
:1025B000006941F6EF7108406C49086108E0052C9C
:1025C00006D06A48006941F6EF7108406749086122
:1025D000204630BD78B506460C4604250020009004
:1025E000E802FFF714FF0546042D24D15F48006977
:1025F00040F001005D4908613480E802FFF707FF01
:102600000546042D10D1B01C0090200C00990880C4
:10261000E802FFF7FCFE05465448006941F6FE71EA
:1026200008405249086106E05048006941F6FE71D1
:1026300008404E490861284678BD70B504460D46ED
:102640000426F002FFF7E3FE0646042E11D14748A8
:10265000006940F00100454908612580F002FFF75C
:10266000D6FE06464148006941F6FE7108403F49E2
:102670000861304670BD70B505460E460424E00280
:10268000FFF7C5FE0446042C17D139483749886046
:10269000384888600846006940F0100008612E80C4
:1026A000E002FFF7B4FE0446052C06D02F4800696F
:1026B00041F6EF7108402D490861204670BD2DE9B3
:1026C000F04304464FF6FF763746B046B146042540
:1026D000E443E6B2C4F30727C4F307484FEA14699A
:1026E000E802FFF794FE0546042D49D120481F4912
:1026F0008860204888600846006940F01000086142
:10270000FF2E06D01C4808300680E802FFF77FFE47
:102710000546042D08D1FF2F06D017480A30078040
:10272000E802FFF774FE0546042D0AD1B8F1FF0F49
:1027300007D011480C30A0F80080E802FFF767FED0
:102740000546042D0AD1B9F1FF0F07D00A480E3013
:10275000A0F80090E802FFF75AFE0546052D0FD0BD
:102760000248006941F6EF71084007E0002002408E
:1027700023016745AB89EFCD00F8FF1F664908616B
:102780002846BDE8F08330B5054604244FF43020D8
:10279000FFF73DFE0446042C41D160485E49886045
:1027A0005F4888600846006940F0200008610846DC
:1027B000006940F0400008614FF43020FFF727FE29
:1027C0000446042C22D15448006941F6DF710840C8
:1027D000514908610846006940F0100008611DB1C8
:1027E00000205049088002E0A5204E4908804FF49F
:1027F0003020FFF70CFE0446052C10D04648006937
:1028000041F6EF7108404449086108E0052C06D004
:102810004148006941F6DF7108403F4908612046A0
:1028200030BDF0B505460E46174604243B483A49EC
:1028300088603B488860E002FFF7E9FD0446042C0D
:1028400019D13548006940F010003349086147F05C
:10285000F800304328433349891C0880E002FFF721
:10286000D6FD0446052C06D02B48006941F6EF71D1
:102870000840294908612046F0BD2748C069800802
:1028800070472548006A704700202349096811F005
:10289000200F01D0012000E00020704729B11E4A1E
:1028A000126902431C4B1A6104E01B4A12698243FD
:1028B000194B1A61704701460020012908D1164AB8
:1028C000D26912F0010F01D0012008E0002006E0DB
:1028D000114AD2680A4201D0012000E0002070476E
:1028E0000D49C860704704200B49C96811F0010FF9
:1028F00001D001200EE00849C96811F0040F01D091
:10290000022007E00449C96811F0100F01D003202C
:1029100000E00420704700000020024023016745CA
:10292000AB89EFCD00F8FF1F10B50446CA488442BA
:1029300008D10121042000F054FB0021042000F004
:1029400050FB46E0C548844208D10121082000F030
:1029500048FB0021082000F044FB3AE0C0488442D4
:1029600008D10121102000F03CFB0021102000F0D4
:1029700038FB2EE0BB48844208D10121202000F022
:1029800030FB0021202000F02CFB22E0B6488442DE
:1029900008D10121402000F024FB0021402000F05C
:1029A00020FB16E0B148844208D10121802000F0CC
:1029B00018FB0021802000F014FB0AE0AC488442A0
:1029C00007D10121801500F00CFB0021A01500F0BB
:1029D00008FB10BD10B50121084600F002FB0021E4
:1029E000012000F0FEFA10BD2DE9F041024600255D
:1029F0000026002000230024002791F803C00CF0DB
:102A00000F0591F803C01CF0100F03D091F802C01D
:102A10004CEA050591F800C0BCF1000F31D01468F4
:102A200000202BE04FF0010C0CFA00F3B1F800C0CD
:102A30000CEA03069E4220D183004FF00F0C0CFAE3
:102A400003F7BC4305FA03FC4CEA040491F803C005
:102A5000BCF1280F06D14FF0010C0CFA00FCC2F8B3
:102A600014C00AE091F803C0BCF1480F05D14FF043
:102A7000010C0CFA00FCC2F810C0401C0828D1D38D
:102A80001460B1F800C0BCF1FF0F34DD54680020C1
:102A90002EE000F1080C4FF0010808FA0CF3B1F831
:102AA00000C00CEA03069E4221D183004FF00F0CB8
:102AB0000CFA03F7BC4305FA03FC4CEA040491F852
:102AC00003C0BCF1280F05D100F1080C08FA0CF87E
:102AD000C2F8148091F803C0BCF1480F07D100F18F
:102AE000080C4FF0010808FA0CF8C2F81080401CDE
:102AF0000828CED35460BDE8F0814FF6FF71018005
:102B0000022181700421C170704702460020936841
:102B10000B4201D0012000E0002070470146886888
:102B200080B2704702460020D3680B4201D00120DA
:102B300000E0002070470146C86880B2704701611C
:102B40007047416170470AB1016100E0416170471F
:102B5000C16070474FF480320A43826181618261B3
:102B600082698269704702460020424B18684FF61E
:102B70008073184040EA021008433E4B18607047CB
:102B80003D49C8617047F0B50A4600230024002182
:102B9000002500F00046B6F1004F02D1354EF16934
:102BA00001E0344E7168C0F3034583B200F440166F
:102BB000B6F5401F08D121F070612E4E766826F0E0
:102BC00070662C4F7E6012E000F48016B6F5801F10
:102BD00006D1032606FA05F4A14341F0706106E030
:102BE000460D360103FA06F6B14341F0706122B199
:102BF000460D360103FA06F6314300F00046B6F101
:102C0000004F02D11B4EF16101E01A4E7160F0BD20
:102C100030B500228B071C0F0F2303FA04F2154B6B
:102C200008338C1053F824309343124C08348D1021
:102C300044F8253023468C1053F824308C07240F99
:102C400000FA04F423430B4C08348D1044F825306B
:102C500030BD0A490860704700080140000C01407F
:102C6000001001400014014000180140001C014008
:102C7000002001400000014000002042DC00204212
:102C80000E49086070470D49486070470B498860DD
:102C900070474AF6AA200949086070474CF6CC40B4
:102CA00006490860704701460020044AD2680A427B
:102CB00001D0012000E000207047000000300040FB
:102CC000E448006840F00100E249086008464068B6
:102CD000E1490840DF49486008460068DF4908408C
:102CE000DC4908600846006820F480200860084637
:102CF000406820F4FE0048604FF41F008860002008
:102D0000C8627047D349096821F48031D14A116003
:102D10001146096821F480211160B0F5803F03D08D
:102D2000B0F5802F0ED106E0CA49096841F4803120
:102D3000C84A116007E0C749096841F4A021C54AA3
:102D4000116000E000BF00BF704710B501460022CF
:102D5000002300204A11012A02D1BE4C236806E05C
:102D6000022A02D1BB4C236A01E0BA4C636A01F02B
:102D70001F02012494401C4201D0012000E00020E9
:102D800010BD38B5002000900024002500BF312080
:102D9000FFF7DBFF05460098401C00900098B0F557
:102DA000A06F01D0002DF2D03120FFF7CEFF08B187
:102DB000012400E00024204638BD01460020A54A39
:102DC000106820F0F80040EAC10010607047A44984
:102DD00008607047024600209E4B586820F474102B
:102DE00042EA010318439B4B586070479C490866B0
:102DF000704702460020974BD86A9A4B184042EA27
:102E000001031843934BD862704701460020914A52
:102E1000506820F003000843506070478D484068B8
:102E200000F00C007047014600208A4A506820F0EC
:102E3000F00008435060704701460020854A506802
:102E400020F4E06008435060704701460020814A4A
:102E5000506820F4605040EAC1005060704729B1CA
:102E60007C4A527A02437B4B5A7204E0794A527A86
:102E70008243784B5A7270477B490860704701461D
:102E80000020744A506820F4404008435060704766
:102E90000021764A11706F4A82F82010012802D072
:102EA000042808D103E00121704A117004E00521D3
:102EB0006E4A117000E000BF00BF70476C490860A7
:102EC00070476449096A0143624A11627047684960
:102ED00044390860704770B50021002300240022A7
:102EE00000255C4E766806F00C0121B1042905D05E
:102EF000082921D105E05F4E066020E05D4E0660A6
:102F00001DE0544E766806F47013524E766806F44F
:102F10008034022606EB93431CB9574E5E4306608D
:102F200009E04C4EF66A06F00F06751C514EB6FBD2
:102F3000F5F65E43066002E04E4E066000BF00BF3D
:102F4000444E766806F0F00109094C4E725C066842
:102F5000D64046603F4E766806F4E061090A474E67
:102F6000725C4668D64086603A4E766806F46051D8
:102F7000C90A424E725C4668D640C660354E7668D5
:102F800006F44041890B3E4E725CC668B6FBF2F611
:102F9000066170BD29B12F4A526902432D4B5A6117
:102FA00004E02C4A526982432A4B5A61704729B186
:102FB000284A92690243274B9A6104E0254A9269A4
:102FC0008243244B9A61704729B1224AD269024355
:102FD000204BDA6104E01F4AD26982431D4BDA615B
:102FE000704729B11B4AD26802431A4BDA6004E0E9
:102FF000184AD2688243174BDA60704729B1154AE4
:1030000012690243134B1A6104E0124A12698243A7
:10301000104B1A61704716494039086070471049D3
:10302000C86470470B49C87170470A48406A40F04D
:10303000807008494862704701460020054A92683E
:103040000A4201D0012000E0002070470149887247
:1030500070470000001002400000FFF8FFFFF6FE7E
:1030600000004242F0FFFEFFD80042422010024022
:103070008004424200127A0000093D00180A002034
:10308000280A002010B50446FE48844208D10121D8
:10309000C014FFF7A6FF0021E014FFF7A2FFC4E071
:1030A000B4F1804F08D101210846FFF7A7FF0021A6
:1030B0000120FFF7A3FFB8E0F348844208D10121C3
:1030C0000220FFF79BFF00210220FFF797FFACE0F3
:1030D000EE48844208D101210420FFF78FFF002130
:1030E0000420FFF78BFFA0E0E948844208D10121CA
:1030F0000820FFF783FF00210820FFF77FFF94E0FF
:10310000E448844208D101211020FFF777FF002115
:103110001020FFF773FF88E0DF48844208D10121C7
:103120002020FFF76BFF00212020FFF767FF7CE0E6
:10313000DA48844208D101214014FFF752FF0021F0
:103140006014FFF74EFF70E0D548844209D1012199
:10315000C804FFF746FF00214FF40020FFF741FFAE
:1031600063E0D048844209D101210805FFF739FF07
:1031700000214FF48010FFF734FF56E0CA48844224
:1031800009D101214805FFF72CFF00214FF4001061
:10319000FFF727FF49E0C548844208D101214020BC
:1031A000FFF72CFF00214020FFF728FF3DE0C0483B
:1031B000844208D101218020FFF720FF00218020D8
:1031C000FFF71CFF31E0BB48844208D10121801584
:1031D000FFF714FF0021A015FFF710FF25E0B64808
:1031E000844209D101210804FFF7FBFE00214FF4BE
:1031F0008030FFF7F6FE18E0B048844209D1012183
:103200004804FFF7EEFE00214FF40030FFF7E9FE1F
:103210000BE0AB48844208D101218804FFF7E1FEAE
:1032200000214FF48020FFF7DCFE10BD0022028851
:10323000944B98420ED0994B98420BD0B0F1804FEE
:1032400008D0914B984205D0904B984202D0904BB9
:10325000984204D14FF68F731A404B881A438D4B16
:10326000984207D08C4B984204D04FF6FF431A4047
:10327000CB881A4302808B8883850B880385814B1A
:1032800098420BD0854B984208D08B4B984205D082
:103290008A4B984202D08A4B984201D10B7A03861E
:1032A00001238382704770B5002400220023058C1F
:1032B0004FF6FE7635400584028C8388048B4FF6EA
:1032C0008F752C40B51E2C400D882C43751E2A404E
:1032D0000D892A434D882A436A4DA8420BD06F4D71
:1032E000A84208D0744DA84205D0744DA84202D01F
:1032F000734DA84213D14FF6F7752A404D892A43E2
:103300004FF6FB752A408D882A434FF6FF652B4008
:103310004FF6FF552B408D892B43CD892B4383805E
:103320000483CD888586028470BD70B50024002298
:103330000023058C4FF6EF7635400584028C838898
:10334000048B48F6FF752C404FF6FF452C400D8846
:103350004FF6FF7606EA05252C434FF6DF752A4027
:103360000D8906EA05152A434D8806EA05152A4304
:10337000444DA84202D0494DA8421DD14FF67F7559
:103380002A404D894FF6FF7606EA05152A434FF687
:10339000BF752A408D8806EA05152A434FF6FF358A
:1033A0002B404FF2FF752B408D8906EA85052B4394
:1033B000CD8906EA85052B4383800483CD88058764
:1033C000028470BD70B5002400220023058C4FF6E6
:1033D000FF6635400584028C8388848B4FF68F7599
:1033E0002C404FF6FC752C400D882C434FF6FF55B2
:1033F0002A400D894FF6FF7606EA05252A434D88B7
:1034000006EA05252A431F4DA84202D0234DA842B3
:103410001DD14FF2FF752A404D894FF6FF7606EA1F
:1034200005252A434FF6FF352A408D8806EA0525F3
:103430002A434EF6FF752B404DF6FF752B408D89C4
:1034400006EA05152B43CD8906EA05152B43838033
:103450008483CD888587028470BD70B500220023E7
:103460000024058C4EF6FF7635400584038C848855
:10347000828B48F6FF752A404FF6FF452A400D889B
:1034800020E00000002C0140000400400008004043
:10349000000C0040001000400014004000340140C7
:1034A000004C014000500140005401400018004011
:1034B000001C00400020004000400140004401404A
:1034C000004801404FF6FF7606EA05252A434DF6EF
:1034D000FF752B400D8906EA05352B434D8806EA1A
:1034E00005352B43FA4DA84202D0FA4DA84208D127
:1034F0004BF6FF752C408D894FF6FF7606EA851551
:103500002C4384808283CD88A0F84050038470BD12
:10351000828B4FF2FF331A408283828B4FF6FF7308
:1035200003EA01231A4382837047F0B50C4615461F
:10353000002200210026078C4EF6FF7C07EA0C07CC
:103540000784828B018C4FF6FF7707EA043640F63A
:10355000FF473A404FF6FF7707EA05273A434FF611
:10356000FF7707EA03373A43D94FB8420ED0D94F15
:10357000B8420BD0B0F1804F08D0D74FB84205D039
:10358000D64FB84202D0D64FB84206D14DF6FF779B
:10359000394046F48057394305E047F6FF57394034
:1035A00044F48057394382830184F0BD828B4FF607
:1035B000F3731A408283828B0A4382837047F0B58B
:1035C0000C461546002200210026078C4FF6FF6CA2
:1035D00007EA0C070784828B018C4FF6FF7707EA16
:1035E00004264FF60C773A404FF6FF7707EA0317A9
:1035F0002F433A43B64FB8420ED0B64FB8420BD025
:10360000B0F1804F08D0B44FB84205D0B34FB842A4
:1036100002D0B34FB84206D14FF6FF57394046F4B7
:103620008077394305E04FF2FF57394044F4807703
:10363000394382830184F0BD028B4FF2FF331A407D
:103640000283028B4FF6FF7303EA01231A430283BE
:103650007047F0B50C461546002200210026078C65
:103660004FF6EF7C07EA0C070784028B018C4FF6BC
:10367000FF7707EA041640F6FF473A404FF6FF7718
:1036800007EA03373A434FF6FF7707EA05273A433D
:103690008F4FB8420ED08F4FB8420BD0B0F1804F51
:1036A00008D08D4FB84205D08C4FB84202D08C4F15
:1036B000B84206D14FF6DF77394046F0100739435C
:1036C00005E04FF65F77394044F010073943028335
:1036D0000184F0BD028B4FF6F3731A400283028B14
:1036E0000A4302837047F0B50C46154600220021BC
:1036F000068C4FF6FE773E400684028B018C4FF617
:103700000C7632407E1C06EA03162E433243704E7E
:10371000B0420ED06F4EB0420BD0B0F1804F08D007
:103720006D4EB04205D06D4EB04202D06C4EB042EC
:1037300006D14FF6FD76314044F00106314305E0F5
:103740004FF6F576314044F001063143028301849F
:10375000F0BD70B505460C465D4885420ED05D480B
:1037600085420BD0B5F1804F08D05B48854205D02B
:103770005A48854202D05A48854200D100E000BF35
:10378000208850B92389A28861882846FFF7ABFFBB
:10379000E1882846FFF79EFF25E0208804280AD10B
:1037A0002389A28861882846FFF753FFE1882846CD
:1037B000FFF742FF17E0208808280AD12389A28852
:1037C00061882846FFF7FBFEE1882846FFF7EEFEFA
:1037D00009E02389A28861882846FFF7A6FEE188D0
:1037E0002846FFF795FE70BD2DE9F04105460C46D1
:1037F00000260127608808B9022600E00026A0887C
:10380000012801D1022700E001272088A0B92389DF
:10381000A28861882846FFF766FFE1882846FFF7FF
:1038200059FF23893A4631462846FFF712FFE188BF
:103830002846FFF701FF13E02389A2886188284604
:10384000FFF707FFE1882846FFF7F6FE23893A468F
:1038500031462846FFF747FFE1882846FFF73AFF41
:10386000BDE8F0810A884B881A438B881A43CB88BD
:103870001A430B891A434B891A438B891A43A0F8C0
:10388000442070474FF6FF71818000210180C18084
:103890004180017270470021018041808180C18098
:1038A000018141818181C181704700210180418076
:1038B000012181800021C1800181704700210180A8
:1038C00041808180C18001814181818170470000F8
:1038D000002C01400034014000040040000800407A
:1038E000000C004021B1028842F00102028004E095
:1038F00002884FF6FE731A400280704731B1B0F86B
:10390000442042F40042A0F8442005E0B0F84420EE
:10391000C2F30E02A0F8442070471AB183890B430A
:10392000838102E083898B43838170478182704762
:1039300041EA0203A0F8483070471AB183890B436B
:10394000838102E083898B438381704701894FF62D
:10395000F8721140018170470A46002101894FF633
:103960008F73194011430181704730B504460D46ED
:1039700029462046FFF7F0FF208940F0070020810C
:1039800030BD2DE9F04104460D4616461F46602D18
:1039900006D13B46012231462046FFF75AFE05E09C
:1039A0003B46012231462046FFF79DFE2946204630
:1039B000FFF7D2FF208940F007002081BDE8F081A9
:1039C00030B50C4600210189C9B24FF6FF7505EAF2
:1039D0000325154325432943018130BD2DE9F041DD
:1039E00005460E4617469846002443463A46314659
:1039F0002846FFF7E5FF2C894FF6F870044044F0A5
:103A000007044FF68F70044044F070042C81BDE829
:103A1000F081F0B504460D4616461F463B46324639
:103A200029462046FFF7CCFF208940F480402081C2
:103A3000F0BD0185828270470A46002101884FF659
:103A40008F731940114301807047F0B50C4615463D
:103A50001E460021002200230189028B038C4FF6B1
:103A6000F877394021434FF6FC473A4040F20117BE
:103A70003A434FF6DD773B404FF6FF7707EA0617EC
:103A80002F433B43018102830384F0BD0A4600219A
:103A9000018B4FF68F7319401143018370470A461B
:103AA0000021018B48F6FF7319404FF6FF7303EABC
:103AB00002231943018370470A460021818B4FF688
:103AC0008F7319401143818370470A460021818B0F
:103AD00048F6FF7319404FF6FF7303EA02231943B8
:103AE0008183704721B1028842F08002028004E0A5
:103AF00002884FF67F731A400280704721B1828896
:103B000042F00402828004E082884FF6FB731A4080
:103B10008280704721B1828842F00802828004E0EE
:103B200082884FF6F7731A408280704721B18288ED
:103B300042F00102828004E082884FF6FE731A4050
:103B4000828070470A460021018B4FF6F7731940B7
:103B50001143018370470A460021018B4FF2FF7326
:103B600019404FF6FF7303EA02231943018370479C
:103B70000A460021818B4FF6F77319401143818368
:103B800070470A460021818B4FF2FF7319404FF6B0
:103B9000FF7303EA02231943818370470A46002119
:103BA000018B4FF6FB7319401143018370470A469E
:103BB0000021018B4FF6FF3319404FF6FF7303EAE4
:103BC00002231943018370470A460021818B4FF677
:103BD000FB7319401143818370470A460021818B92
:103BE0004FF6FF3319404FF6FF7303EA02231943E0
:103BF000818370470A460021018B4FF67F7319407D
:103C00001143018370470A460021018BC1F30E0165
:103C10004FF6FF7303EA02231943018370470A46F4
:103C20000021818B4FF67F731940114381837047C8
:103C30000A460021818BC1F30E014FF6FF7303EAA0
:103C400002231943818370470A460021018C4FF6F5
:103C5000FD7319401143018470470A460021018C0D
:103C60004FF6F77319401143018470470A4600214B
:103C7000018C4FF6DF7319404FF6FF7303EA02130E
:103C80001943018470470A460021018C4FF67F7367
:103C900019404FF6FF7303EA02131943018470477A
:103CA0000A460021018C4FF6FF5319404FF6FF736F
:103CB00003EA02231943018470470A460021018C5C
:103CC0004FF2FF7319404FF6FF7303EA02231943C3
:103CD000018470470A460021018C4DF6FF7319409C
:103CE0004FF6FF7303EA023319430184704730B57E
:103CF000002301248C40A3B2048C9C430484048CD4
:103D000002FA01F5ADB22C43048430BD30B5002376
:103D100004248C40A3B2048C9C430484048C02FAD7
:103D200001F5ADB22C43048430BD70B503460020CC
:103D300000241846183001258D40ACB21D8CA543D7
:103D40001D8409B1082909D100EB6100056825F03F
:103D5000700505600568154305600EE00D1FC5F38D
:103D60004E052844056825F4E045056005684FF6D2
:103D7000FF7606EA02263543056070BD21B1028850
:103D800042F00202028004E002884FF6FD731A40FE
:103D90000280704721B1028842F00402028004E0F0
:103DA00002884FF6FB731A400280704721B1828867
:103DB00042F08002828004E082884FF67F731A40CE
:103DC0008280704702884FF6F7731A40028002889B
:103DD0000A430280704782884FF68F731A408280B0
:103DE00082880A438280704702894FF6F8731A402E
:103DF000028102890A430281704702894FF67F736C
:103E00001A40028102890A43028170478184704707
:103E10008185704781867047018770478187704729
:103E2000A0F84010704702884FF6FF431A40028006
:103E300002880A43028070470146888E7047014617
:103E4000088F70470146888F70470146B1F84000DF
:103E500070470146888C70470146088D70470246BE
:103E60000020138A0B4201D0012000E0002070479F
:103E7000CA430282704730B5024600200023002466
:103E8000158A05EA0103958905EA010413B10CB10D
:103E9000012000E0002030BDCA43028270470000CC
:103EA00010B50446FB48844209D101218803FFF77D
:103EB00098F800214FF48040FFF793F832E0F6487D
:103EC000844209D101214804FFF798F800214FF4FA
:103ED0000030FFF793F825E0F048844209D1012132
:103EE0008804FFF78BF800214FF48020FFF786F855
:103EF00018E0EB48844209D10121C804FFF77EF89D
:103F000000214FF40020FFF779F80BE0E5488442E8
:103F100008D101210805FFF771F800214FF4801046
:103F2000FFF76CF810BD2DE9F04786B005460E4648
:103F30000024A24600BFA1460027B08900B100BFFF
:103F40002F462C8A4CF6FF700440F08804432C82E4
:103F5000AC894EF6F3100440B0883189084371896A
:103F600008430443AC81AC8A4FF6FF400440B0895B
:103F70000443AC8201A8FEF7AEFFC648874202D1D7
:103F8000DDF810A001E0DDF80CA0A88910F4004FC6
:103F900008D00AEBCA0000EB0A1031684900B0FBF8
:103FA000F1F807E00AEBCA0000EB0A10316889005B
:103FB000B0FBF1F86420B8FBF0F0040120096421A3
:103FC00001FB1089A88910F4004F08D0322000EBC3
:103FD000C900B0FBF1F000F00700044308E0322014
:103FE00000EB09106421B0FBF1F000F00F00044376
:103FF0002C8106B0BDE8F0874FF416510160002116
:104000008180C18001810C21418100218181704723
:1040100010B502460020108A4FF2FF0318400B88AB
:104020004C8823438C882343CC8823431843108235
:1040300010BD0021018041808180C180704721B185
:10404000828942F40052828104E082894DF6FF7336
:104050001A4082817047F0B50346002400260025EF
:104060000020A1F510676A3F00D100BF1846C1F3D8
:10407000421401F01F06012707FA06F5012C01D1B1
:104080000C3004E0022C01D1103000E014301AB1E1
:1040900007682F43076002E00768AF430760F0BD81
:1040A0001AB1838A0B43838202E0838A8B43838223
:1040B0007047028A4FF6F0731A400282028A0A435E
:1040C0000282704782894FF2FF731A40828182898F
:1040D0000A438281704721B1828942F002028281C3
:1040E00004E082894FF6FD731A4082817047028A8C
:1040F0004FF6DF731A400282028A0A430282704737
:1041000021B1028A42F48042028204E0028A4BF624
:10411000FF731A4002827047C1F308028280704721
:1041200001468888C0F308007047818941F0010189
:1041300081817047028BD2B20283028B42EA012254
:1041400002837047028B02F47F420283028B0A4390
:104150000283704721B1828A42F02002828204E009
:10416000828A4FF6DF731A408282704721B1828AB9
:1041700042F01002828204E0828A4FF6EF731A4006
:104180008282704721B1828A42F00802828204E072
:10419000828A4FF6F7731A408282704721B1828972
:1041A00042F40042828103E08289C2F30E028281DE
:1041B000704721B1828A42F40062828204E0828ADE
:1041C0004FF2FF731A4082827047828A4FF6FB7368
:1041D0001A408282828A0A438282704721B1828A8F
:1041E00042F00202828204E0828A4FF6FD731A4096
:1041F0008282704702460020B1F5007F00D100BFE7
:1042000013880B4201D0012000E00020704701F428
:104210000072B2F5007F00D100BFCA430280704730
:1042200070B502460024002300250020A1F5106689
:104230006A3E00D100BFC1F3421501F01F03012601
:1042400006FA03F3012D02D19689334006E0022DD0
:1042500002D1168A334001E0968A33400C120126BF
:1042600006FA04F41688344013B10CB1012000E0C2
:10427000002070BD10B500220023A1F510646A3C37
:1042800000D100BF0A1201249440A3B2DC43048091
:1042900010BD0000003801400044004000480040CC
:1042A000004C00400050004010B501210807FEF707
:1042B000A5FE00214FF08050FEF7A0FE10BD294959
:1042C0000862704727490861704701460020264A66
:1042D000106820F0E0000843106070472349086030
:1042E000704710B5024600201F4B186820F00300ED
:1042F000104318601E4B1B6843F004031C4C2360E2
:10430000012901D130BF00E020BF194B1B6823F009
:104310000403174C236010BD1348006840F00400EC
:10432000114908600846006840F002000860104823
:10433000006840F004000E49086000BF00BF30BFB5
:10434000704701460020084A52680A4201D0012005
:1043500000E0002070470449096841EA8001024AF0
:104360001160704700000E4200700040A0000E4235
:1043700010ED00E010B50446FA48844208D101214E
:104380004015FEF72EFE00216015FEF72AFE17E00D
:10439000F548844208D101210015FEF722FE0021D4
:1043A0002015FEF71EFE0BE0F048844208D10121E3
:1043B000C803FEF716FE00214FF40040FEF711FE81
:1043C00010BD30B50246002000235068E84C204064
:1043D0000D790C6844EA0524204350609068E54C50
:1043E0002040D1E902542C434D7944EA450420434E
:1043F0009060D06A20F470000C7C641EE4B2234309
:1044000040EA0350D06230BD00210160017141716A
:104410008160C16001210174704721B1826842F05E
:104420000102826003E0826822F00102826070472C
:1044300021B1826842F48072826003E0826822F4D3
:1044400080728260704710B50023CBB21AB1446805
:104450001C43446002E044689C43446010BD816892
:1044600041F0080181607047014600208A6812F01F
:10447000080F01D0012000E000207047816841F062
:10448000040181607047014600208A6812F0040F21
:1044900001D0012000E00020704721B1826842F481
:1044A000A002826003E0826822F4A002826070476A
:1044B000014600208A6812F4800F01D0012000E03C
:1044C0000020704710B50A4600210023416821F4FE
:1044D0006041531E41EA4331416010BD21B1426841
:1044E00042F40062426003E0426822F400624260EB
:1044F0007047F0B504460D4600200021092D11DD5E
:10450000E068A5F10A0606EB4607072606FA07F15A
:104510008843A5F10A0606EB460603FA06F10843AE
:10452000E0600CE0206905EB4507072606FA07F175
:10453000884305EB450603FA06F108432061072A84
:104540000FDA606B561E06EB86071F2606FA07F188
:104550008843561E06EB860605FA06F1084360639B
:1045600022E00D2A0FDA206BD61F06EB86071F26E6
:1045700006FA07F18843D61F06EB860605FA06F110
:104580000843206310E0E06AA2F10D0606EB8607FF
:104590001F2606FA07F18843A2F10D0606EB8606F0
:1045A00005FA06F10843E062F0BD21B1826842F4E9
:1045B0008012826003E0826822F480128260704779
:1045C0000146C86C80B2704766484C30006870473E
:1045D00021B1426842F48062426003E0426822F402
:1045E00080624260704721B1426842F4805242606A
:1045F00003E0426822F48052426070470A4600217C
:10460000816821F4E04111438160704721B18268E3
:1046100042F40042826003E0826822F40042826039
:10462000704721B1826842F40212826003E082681E
:1046300022F4021282607047014600208A6812F458
:10464000001F01D0012000E000207047F0B50446B3
:104650001546002000220026092911DDE068A1F19D
:104660000A0707EB470C072707FA0CF29043A1F162
:104670000A0707EB470703FA07F21043E0600CE074
:10468000206901EB410C072707FA0CF2904301EB7C
:10469000410703FA07F210432061A06BC0F30156F3
:1046A000EF1C06F1010CA7EB0C0707EB870C1F278B
:1046B00007FA0CF29043EF1C06F1010CA7EB0C0774
:1046C00007EB870701FA07F21043A063F0BD10B5AE
:1046D0000A4600210023816B21F44011531E41EA58
:1046E0000351816310BD08B5002300930090009B27
:1046F0000B440093009B1A6008BD08B502460020D9
:104700000090009201F12800009B1844009000984E
:10471000006880B208BD0A4600214168164B194066
:104720001143416070474162826270470A4600212E
:10473000416821F01F0111434160704740B10949B0
:104740000831096841F40001064A0832116007E0A7
:1047500004490831096821F40001024A0832116055
:10476000704700000024014000280140003C014047
:10477000FFFEF0FFFDF7F1FFFFFD3FFF02460020C7
:1047800013680B4201D0012000E000207047CA43AB
:104790000260704770B502460020002300240B120F
:1047A0005568CEB205EA060415681D4202D00CB168
:1047B000012000E0002070BD00220A12D3430360F4
:1047C000704700000948804709480047FEE7FEE7B8
:1047D000FEE7FEE7FEE7FEE7FEE7FEE7FEE7FEE7B1
:1047E00004480549054A064B70470000B51F0008FC
:1047F00021010008580C002058120020580E0020FB
:10480000580E002010B5431C02E010F8011B71B1D6
:104810008107FAD14FF0013202C88C1A8C4314EA96
:10482000C211F9D0C01A0A0603D0C01E10BDC01AAA
:1048300010BD0A0401D0801E10BD0902FCD0401E2C
:1048400010BD704770477047754600F029F8AE46B6
:1048500005006946534620F00700854618B020B58C
:10486000FFF7BEFFBDE820404FF000064FF0000705
:104870004FF000084FF0000B21F00701AC46ACE808
:10488000C009ACE8C009ACE8C009ACE8C0098D4675
:1048900070470446AFF300802046FBF7ACFC0000F5
:1048A00000487047F80B002001491820ABBEFEE716
:1048B000260002007047000021F00042A2F1605281
:1048C000B2F5801F01F0004328BFD2F17F6C0BD9F5
:1048D0005FEA001C43EAC20242EB507018BF704707
:1048E00028BF20F001007047B2F5801FBCBF1846FA
:1048F00070474FEA410C1CF5001F02D2084600F039
:1049000058BD70B500F0C8FA00000089FFF7F6BF87
:104910004FF00040A0F580007047000010B591EA0C
:10492000030F48BF83F0004300F11E83841A71EB2C
:10493000030C05D2121943EB0C03001B61EB0C01B5
:10494000DFF824E14FEA1154A4EB135C1EEA430F95
:1049500018BF9EEA445F73D023EA0E03DCF1200EF9
:1049600021EA045143F4801332D322FA0CFE10EBF7
:104970000E0023FA0CFE41EB0E01CCF1200E03FADF
:104980000EFE10EB0E0051F10001B1F5801FCCF1CD
:10499000200E32D201EB045112FA0EF2BDE81040A3
:1049A00058BF7047401C38BF5FEA420218BF7047CB
:1049B000002814BF20F0010041F100014FEA41033B
:1049C00013F5001F38BF7047A1F1C04100F0B2BA23
:1049D000012A43EB0302ACF1200CDCF11F0E32BFC5
:1049E0004FF0000E23FA0CF310EB030041EB0451DF
:1049F000B4EB115FD0D0A1EB045101F5801149084F
:104A00005FEA300001EB04510ED350F1000038BFD3
:104A100012FA0EFE08D1BDE81040C9E7401C38BFAD
:104A20005FEA4202CAD1C3E7BDE810404FEA410342
:104A300013F5001F38BF7047A1F1C04100F07ABAEA
:104A40009EEA445F08D011EA5E0FBDE8104004BF43
:104A500001F0004100207047BDE8104070B500F043
:104A60001BFA00BF64FBBE3E0000E0FF2DE9C04121
:104A700030B4DFF8A0C23CEA111418BF3CEA1314AA
:104A800000F0EC8081EA03051CEA111444EAD574B5
:104A900018BF1CEA131500F0C780A4EB05044FF003
:104AA000004545EAC12145EAC32341EA505143EAA2
:104AB000525304F17F74994204F500344FEAC02048
:104AC0004FEAC22208BF904200F09C804FEA136573
:104AD0000FF24016765D4FEA134506FB05F7C7F166
:104AE000807706FB07F74FEAD737A7FB03687642C4
:104AF000C8F58038A7FB06CE38BFA8F1010807FB30
:104B000008E64FF0000EA6FB028CE6FB03CEDCF1BC
:104B1000000CCEF1004E38BFAEF1010EA6FB0C58D2
:104B20004FF000074FF00005E6FB0E87A1FB08C61B
:104B3000A0FB07CE16EB0E0645F10005E1FB07656D
:104B400015F1E04E7EBFA4F580345FEA46066D4164
:104B500016F1800745F100054FEA17274FEA066670
:104B600047EA0567A6F1DE46B6F1805F4FEA1525F4
:104B70001FD9384624F0010C05EBC471BCF1FE6F5F
:104B800001EB0C1102D8F0BCBDE8008124425CBFEF
:104B900001F5801E9EEAC47F02D4F0BCBDE800810E
:104BA000244238D4F0BCA1F1C041BDE8004100F07E
:104BB000C1B94FEAD22242EA43524FEAD323A7FBBC
:104BC00002864FEAD02040EA415007FB03661EEA06
:104BD0000E0F4FEAD12105FB026658BFA6EB005627
:104BE000B6EB00564FEA520E4EEAC37E18EB0E0E9D
:104BF00056EB530EBDD518EB02085E417F1C55F1F4
:104C00000005B6E74FF480154FF000074FF000069F
:104C10004FF00008ADE7F0BC4FF0000001F1C041DB
:104C200001F00041BDE8008111EA0C1F0CEA1315E8
:104C300000D00CE013EA0C1F00F025804FF00000BC
:104C4000F0BC81EA030101F00041BDE80081F0BC45
:104C5000BDE8004181EA030100F06CB9F0BCBDE899
:104C6000004170B500F018F9097EFC3E00F007B86D
:104C700081EA03014FF0000001F00041704781EA32
:104C8000030100F057B9F0BCBDE800414FF000004F
:104C900021497047FFFDFBF9F7F5F4F2F0EEEDEB7B
:104CA000E9E8E6E4E3E1E0DEDDDBDAD8D7D5D4D32A
:104CB000D1D0CFCDCCCBCAC8C7C6C5C4C2C1C0BF76
:104CC000BEBDBCBBBAB9B8B7B6B5B4B3B2B1B0AF7C
:104CD000AEADACABAAA9A8A8A7A6A5A4A3A3A2A160
:104CE000A09F9F9E9D9C9C9B9A999998979796951B
:104CF00095949393929191908F8F8E8E8D8C8C8BB7
:104D00008B8A89898888878786858584848383823E
:104D1000828181800000FF070000F87FB0FA80F3F5
:104D200010FA03F10AD0C3F11D0303F580634FEAC3
:104D300041504FEA035202EBD12170474FF000007F
:104D400070470000DFF848C170B51CEA111E1EBF95
:104D50001CEA13159EEA0C0F95EA0C0F00F06F8009
:104D600081EA030423EA4C134EEAD47E21EA4C1173
:104D700041F4801143F48013AE44A1FB024CA0FB2C
:104D80000365AEF17F7E361955EB0C05A1FB034C94
:104D90004CF10003A0FB021C16EB0C06654153F11D
:104DA0000003094218BF46F0010613F4007F0BD13F
:104DB0004FEA03314FEA0530340341EA155140EA26
:104DC00016506FF003020AE04FEAC3214FEAC520F4
:104DD000F40241EA555140EA56506FF0020202EBEC
:104DE0002E4201EB025585EACE710AD05FEA440CEF
:104DF00018BF24F0004450F1000041F1000120EA06
:104E0000D47040F2FE7C624500D270BDA84214BF4F
:104E10004FF080444FF04044002E08BF0024BEF104
:104E2000806FA8BFA1F1C041BDE8704080F28280D0
:104E30004FF0000001F1C04101F0004170479EEACF
:104E40000C0F0CEA131518BF95EA0C0F06D04FF0A3
:104E5000000081EA030E0EF0004170BD00F01CF866
:104E60008900013E00F007B800F009B84FEA430C92
:104E70005FEA5C5C08D081EA030100F05BB84FEAAE
:104E8000410C5FEA5C5CF6D14FF0000001497047CD
:104E90000000FF070000F87F0EF1020E2EF0030E57
:104EA0005EF8046B364205D4012A43EB030515F581
:104EB000001F12D8012841EB010C1CF5001F0CD873
:104EC0000ED14FEAD17C15F5001F0CEB4C0C0CF108
:104ED000020C08BF4CEBD37C04E04FF0080C01E05F
:104EE0004FEAD37C0CEB4C0526FA05F606F00706D4
:104EF000B6F1040C06D20EEB860CBDE870404CF007
:104F0000010C6047DFE80CF0090B02024FF0004192
:104F10004FF00000A1F5002170BD19461046012890
:104F200051EB010418BFD4F5001484BF002001F038
:104F3000004170BD0808A0F500114FEA310170472B
:104F400091EA030F10B581F000413FF5EFAC83F01B
:104F5000004300F009B8000010B591EA030F48BF04
:104F600083F000433FF5E2AC841A71EB030C07D2E7
:104F700012198CF0004C43EB0C03001B61EB0C018D
:104F8000DFF8A4E14FEA1154A4EB135C1EEA430FCF
:104F900018BF9EEA445F00F0B08023EA6E035242DD
:104FA00021EA0451C3EB6E0338BF5B1EDCF1200E17
:104FB00025D322FA0CFE10EB0E0043FA0CFE41EB57
:104FC0000E01CCF1200E03FA0EFE10EB0E0051F193
:104FD0000001CCF1200E29D412FA0EF201EB04519B
:104FE000BDE8104058BF7047401C1CBFB2F1004FD5
:104FF000704700280CBF491C20F00100704712EBDD
:10500000020E43EB030218BF4FF0010E4EEA4202BC
:10501000ACF1200CDCF11E0E54D943FA0CFE10EB5F
:105020000E0051F1FF31CCF11E0ED5D50EF1010E5F
:1050300012FA0EFE404141EB010101EB445C5FEAD4
:105040005C5C10D910EBDE7001EB045138BFBEF18F
:10505000004FBDE8104018BF704700280CBF491C26
:1050600020F00100704730D24FEAD42C11F5001126
:1050700024F400641BD0B1FA81F20B3AA41AA41EE6
:10508000D2F12003914030FA03F31943904001EB31
:10509000CC71002C01EB0451BDE81040A8BF704753
:1050A00001F1C0414FF0000001F000417047B0FA3B
:1050B00080F310FA03F100D110BDE41A173C480543
:1050C000C90AE4E701EB045110BD491001EB04519A
:1050D000BDE810404FEA300002E04FF00001704799
:1050E0004A0008BF0042F8D0B2F5001F28BF704741
:1050F00001F000414FF0000070479EEA445F07D086
:1051000011EA5E0FBDE8104004BF00210020704787
:10511000BDE8104070B5FFF7BFFE00BF40DFF63EB0
:1051200083F00041104670470000E0FF43004FEA63
:10513000D30C4FEA3C0C43401FBF40070CF16051B9
:1051400013F0FE4F70471CF0006F03D100200CF0ED
:10515000004170470CF0004343EA507010B540EA3C
:10516000CC0000F0E0F800BF000000924FEA000120
:10517000FFF7E0BE4FF000414FF00000A1F5002125
:105180007047000041000B0ED3F19E0208D950F485
:1051900000034FEA032323FA02F048BF404270475E
:1051A00010B500F0C0F800BF49922480002070477D
:1051B0006FF0004282EA200070470000C10DD1F17B
:1051C0009E0206DB4FEA002343F0004323FA02F07D
:1051D0007047004207D54FEA4001B1F1FE4F02D2BD
:1051E0004FF00000704710B500F09DF84992248000
:1051F000002070476FEA200070470000B0FA80F38B
:1052000010FA03F2C3F19D030AD0D90501EB122075
:10521000530638BF704700F1010008BF20F00100BD
:10522000704700004FF47F0C1CEAD0121EBF1CEA2E
:10523000D11392EA0C0F93EA0C0F00F0478090EA2A
:10524000010F48BF42F480724FF0004C4CEA00203E
:105250004CEA012102EB0302A0FB0113A2F50002BC
:10526000002918BF43F001035B0028BF4FEA330356
:1052700042EB22425FEA132C4CEBC2502EBFBCEB38
:10528000436FB2F57C0F70474FEA036CBCF1004FDF
:1052900008BF20F00100B2F57C0F38BF70470BD576
:1052A00082F0FF0212F5803FC8BF704700F1C04096
:1052B000D8BF00F00040704700F5000C5FEA4C0CCE
:1052C00048BF7047B0F1C04000F073B890EA010FDA
:1052D0000CEAD11348BF42F48072624538BF63457F
:1052E00004D280EA010000F00040704710B500F0E1
:1052F0001AF800BF8900013E00F007B800F009B8B5
:105300005FEA410C5FEA1C6C08D080EA010000F003
:1053100050B85FEA400C5FEA1C6CF6D14FF00040D9
:10532000A0F5800070470EF1020E2EF0030E5EF81D
:10533000044B244204D44FEA4102B2F17F4F11D80A
:105340004FEA4003B3F17F4F0CD80ED14FEAD07C27
:10535000B2F17F4F0CEB4C0C0CF1020C08BF4CEB84
:10536000D17C04E04FF0080C01E04FEAD17C0CEB5B
:105370004C0324FA03F404F00704B4F1040C06D23D
:105380000EEB840CBDE810404CF0010C6047DFE8E8
:105390000CF0070802024FF00040A0F5800010BD9D
:1053A0000846420018BFD2F1807288BF00F000406A
:1053B00010BDFF2141EAD050C0057047B2E2CAD407
:1053C000B0E5C9CFB5E700BFAACABCBCECB2E200E9
:1053D000BBB7BEB3B9E2A3BA00B9E2CFDFCCABC86A
:1053E000F500B9E2CFDFCCABC7BF00B9CAD5CFB5A6
:1053F000E7C2B7B0E5B1E0BAC5A3BA00B5E720206F
:105400002020C1F7A3BA006D41002D2DB6CCC2B744
:105410000033562020B5E7D1B9A3BA00312E325659
:10542000B5E7D1B9A3BA00B8D0B9E24144D6B5A323
:10543000BA00D6B1C1F7B5E7D1B9A3BA00CAE4B38F
:10544000F6D7B4CCACA3BA00B6C1C8A1B8D0B9E203
:105450004144D6B5B3F6B4EDA3A100B6C1C8A1CA04
:10546000FDBEDDB3F6B4EDA3A100C3C5CFDE2020A1
:10547000D6B5A3BA00000000985400080000002030
:105480002C0A00005C010008B85700082C0A002014
:105490002C080000C001000840120003050911FF9C
:1054A000118905C300E000F000F8000100083A444B
:1054B00028FF11AA440001500B83013844829292C4
:1054C0007401831120087C44FF017D7D7D0441052A
:1054D00040047D01FF6E920102613F033B01017EAA
:1054E00081419149F20101011BC230083F3F030392
:1054F000F3131101100601F1116181402005816152
:1055000011F14733414107200401C12120A321C1EA
:105510001431193137040736D33303033F3F426058
:1055200006E0E000007FA8127FBF40040618060ACC
:105530001008000040407F4040A410041F2040019C
:10554000A3201F143300600E6004300C03460534A2
:10555000C21004070706017009040404844444448B
:10556000840780050484C4041501120A71112140C6
:10557000073D0707C9200F00001018141211000082
:105580000F1010100F0F131F1015600D08101212BE
:105590000D00001800000D120A51295130015E0162
:1055A000528001013B4514047F030CA915DE1C0544
:1055B000385454582503080A2004047800003C405D
:1055C000407C2000092CFFAAAAAA280800FF681026
:1055D000062649494932101005020408100F0D6FC4
:1055E00000049D01040D9D0004156343F808012487
:1055F0000500F81860E8240480601823572020294B
:1056000023E01021A310E01449B4313908043C8888
:105610006818630D15FF037DEA039DFF0371144DA8
:10562000FF031D06043D2E040942E91C064020200C
:1056300020C04A04110721EA3E40520452600E8104
:1056400018712951070D4769031C060C0A0A090C39
:105650000004156B2D00042004080F081510050820
:1056600009090E071D180430050909090F0A5129F7
:1056700051070DFF00040D220004200900C18140E4
:1056800001C0804104610C2108E118A11C011A30FD
:10569000011638013660012E70012F603CFFC0C139
:1056A00001C30302C2C60607C705C5C404CC0C0D5E
:1056B000CD0FCFCE0E0ACACB0BC90908C8D818190E
:1056C000D91BDBDA1A1EDEDF1FDD1D1CDC14D4D56E
:1056D00015D71716D6D21213D311D1D010F03031FE
:1056E000F133F3F23236F6F737F53534F43CFCFD9E
:1056F0003DFF3F3EFEFA3A3BFB39F9F83828E8E92E
:1057000029EB2B2AEAEE2E2FEF2DEDEC2CE42425AD
:10571000E527E7E62622E2E323E12120E0A060611D
:10572000A163A3A26266A6A767A56564A46CACADDD
:105730006DAF6F6EAEAA6A6BAB69A9A86878B8B98D
:1057400079BB7B7ABABE7E7FBF7DBDBC7CB47475ED
:10575000B577B7B67672B2B373B17170B05090913D
:10576000519353529296565797559594549C5C5D1D
:105770009D5F9F9E5E5A9A9B5B99595898884849AD
:10578000894B8B8A4A4E8E8F4F8D4D4C8C4484852D
:1057900045874746868242438341818030087F3671
:1057A0006E2409600901020304060708090C611050
:0857B0000005000204060800D8
:0400000508000121CD
:00000001FF
