:020000040800F2
:104000007808002071930008799300087B930008DA
:104010007D9300087F930008819300080000000052
:104020000000000000000000000000008393000872
:10403000859300080000000087930008899300081A
:104040008B9300088B9300088B9300088B930008D8
:104050008B9300088B9300088B9300088B930008C8
:104060008B9300088B9300088B9300088B930008B8
:104070008B9300088B9300088B9300088B930008A8
:104080008B9300088B9300088B93000800000000BE
:104090000000000000000000000000003D45000896
:1040A0008B9300088B9300088B9300088B93000878
:1040B000A35D0008B95D00088B9300088B9300088E
:1040C0008B9300088B9300088B9300088B93000858
:1040D0008B9300088B930008A36200088B93000861
:1040E0008B9300088B9300088B930008000000005E
:1040F00000000000000000000000000000000000C0
:1041000000000000000000000000000000000000AF
:1041100000000000000000005B5D0008855D0008F5
:1041200000F002F800F03CF80AA090E8000C82448D
:104130008344AAF10107DA4501D100F031F8AFF26A
:10414000090EBAE80F0013F0010F18BFFB1A43F075
:1041500001031847E452000004530000103A24BF42
:1041600078C878C1FAD8520724BF30C830C144BFDC
:1041700004680C607047000000230024002500261E
:10418000103A28BF78C1FBD8520728BF30C148BFBA
:104190000B6070471FB505F048F91FBD10B510BD85
:1041A00005F009F91146FFF7F5FF00F0DDFD05F018
:1041B00027F903B4FFF7F2FF03BC05F02FF9000065
:1041C000EFF30980704780F309887047EFF30880A8
:1041D000704780F30888704740BA7047C0BA70478C
:1041E00000E0401E0028FCD17047202000E0401E67
:1041F0000028FCD1704710B542F2D43402E0641EAE
:1042000003F07BFD002CFAD110BD10B5084C02E084
:10421000641E03F072FD002CFAD110BD10B5054CE0
:1042200002E0641E03F069FD002CFAD110BD00000D
:10423000A2CC020054FE1B0010B501208F4908607B
:104240008F49C1F89801FFF7D0FF8E48006808B980
:10425000002010BD002089490860FFF7C6FF88488C
:10426000D0F81C0108B10020F3E700208349086062
:10427000FFF7BBFF0120ECE710B500208249086082
:10428000FFF7B3FF00207E49C1F89C01FFF7ADFFA7
:1042900001207D490860FFF7A8FF01207849C1F897
:1042A0009C01FFF7A2FF10BD10B500207649086001
:1042B000FFF79BFF00207249C1F89C01FFF795FFB3
:1042C000012071490860FFF790FF00206C49C1F898
:1042D0009801FFF78AFF10BD10B500206A490860F9
:1042E000FFF783FF01206649C1F89C01FFF77DFFBE
:1042F000012065490860FFF778FF00206049C1F898
:104300009801FFF772FF10BD10B500205E490860EC
:10431000FFF76BFF01205A49C1F89C01FFF765FFC9
:10432000012059490860FFF760FF5548D0F81C018B
:1043300030B1002054490860FFF757FF002010BD3E
:10434000002051490860FFF750FF0120F7E770B5E2
:104350000446082519E000204B490860FFF745FF97
:1043600014F0800F03D001204449086002E00020CF
:10437000424908604FEA44604FEA1064FFF735FF96
:10438000012041490860FFF730FF2800A5F1010135
:10439000CDB2E0D13C49086070BD70B5082500245D
:1043A00001203649086011E06006040E00203649FD
:1043B0000860FFF71AFF01203149C1F89801FFF7A3
:1043C00014FF3048006808B144F001042800A5F14A
:1043D0000101CDB2E8D12C490860204670BD70B50E
:1043E00006460C461546FFF727FF08B9002070BDAA
:1043F0003046FFF7ACFFFFF787FF18B9FFF73CFF28
:104400000020F4E72046FFF7A2FFFFF77DFF2846D4
:10441000FFF79DFFFFF778FFFFF72EFFFFF7EBFE9B
:104420000120E4E770B504460D46FFF705FF08B923
:10443000002070BD2046FFF78AFFFFF765FF30B907
:10444000FFF71AFF0120114908700020F1E7284604
:10445000FFF77DFFFFF758FFFFF7EEFE601CC0B2CD
:10446000FFF775FFFFF750FFFFF797FF0646FFF7CF
:1044700033FFFFF701FF3046DBE700009C8121425C
:10448000008021421C8121429881214200010020AC
:104490001FB50121092003F0BCFD4FF40070ADF8F9
:1044A0000C0004208DF80F0003A9FB4803F0D0FA9C
:1044B0000921012003F0E0FB4FF40070019000207F
:1044C0008DF808000C208DF8090001208DF80A00F5
:1044D00001A802F001FF4FF4C06002F02BFE17208C
:1044E0008DF8000003208DF8020001208DF80300F4
:1044F000684602F024FE1FBD70B50024E74D00BFE2
:1045000004E0002028706D1C601CC4B21C2CF8D381
:10451000FFF7BEFF01F0BCFB00214FF0804004F02C
:1045200071FC00214FF0804004F0E2F9DB48807814
:1045300020F00100401CD949887070BD10B5D848E2
:10454000006860F40070D6490860481502F01BFF4F
:10455000002874D04FF4007002F035FFCF48807807
:10456000C0F3000028B9CD484078C0F3C00000B9BE
:1045700010BD00214FF0804004F0BAF94FF08040A8
:1045800004F063FCC549C88100214FF0804004F06D
:1045900039FC0121880704F0ABF9C048C08943F217
:1045A000642188420ADDBD48C08943F21A718842FD
:1045B00004DA0120B949887400200882B748807C59
:1045C000222848DAB548C089B0F5816F12DBB348BC
:1045D000C08940F2C54188420CDAB048008AAF4930
:1045E00008820846807C21281EDA0846008A40108E
:1045F000088219E0A948C08940F60E01884213DDFF
:10460000A648C08940F6891188420DDAA348008A7D
:1046100040F40040A14908820846807C212803DA42
:104620000846008A401008829C48807C102807D1E8
:104630009A48008A994988820020088264E07AE0DA
:104640009648807C21285FD19448008A934908834A
:104650000020088258E09148C08942F663218842D0
:1046600052DD8E48C08943F2BE0188424CDA8B4845
:104670004078C0F3C000C8B3884881798079401C75
:10468000864A907128293ADD1046407820F00800CB
:1046900011464870002088710846407820F02000BC
:1046A000203048704520888000207E4908804FF0E7
:1046B0000850006A7C49087000F002FE79490880C1
:1046C0000846008840F0020008807848007830B141
:1046D0007248828808460188182001F061FD6F4801
:1046E000407820F020006D49487008E0FFE76B48F3
:1046F000407820F008006949487000208871002146
:104700004FF0804004F0F4F86448807C401C63491A
:1047100088740846807C22280AD10846407820F018
:104720000400001D487000214FF0804004F0E0F8C4
:1047300000205A4988815A48006840F4007058495E
:10474000086000BF14E710B5002403F0D6FA534800
:10475000807820F002005149887008464078C0F304
:10476000800001283AD10846008BC8710846008BAA
:10477000001208720846007AC043C4B20846808A14
:10478000B0F5315F0CD00846C079A04208D0084689
:10479000407820F01000487000200883888217E0DD
:1047A0003E488078C0F3000060B13C48407820F07B
:1047B00010001030394948700846807820F0010018
:1047C000887005E03548407820F010003349487083
:1047D0003248407820F00400304948702F48407833
:1047E000C0F30010012867D12C48407820F0100059
:1047F0002A49487008464078C0F3400080BB08460C
:104800004078C0092CD008468088FF281FD000209F
:10481000244908804FF00850006A2349087000F0CE
:104820004FFD204908800846008840F001000880BC
:104830001E48007830B1194882880846018818203F
:1048400001F0AEFC00201A4908701A490870FF20D8
:10485000124988800846407820F00200801C487089
:104860000E48407820F080000C4948700846407897
:1048700020F04000403048700846407820F00400A6
:1048800048700846C07908700846007819285CD03E
:1048900022DC192871D210E0000C0140A401002094
:1048A000000401403C010020370100200D010020E0
:1048B000620100203601002010E1DFE800F063DE35
:1048C0009D99DEDE7B8A67366BDE6F4291DE774E26
:1048D0003273C952DE56A5004A286FD014DC1F2857
:1048E0002BD008DC1A287FD01B2832D01C2867D098
:1048F0001D2842D11DE041286FD045286ED04828A0
:104900007ED04928F5D197E04E380F28C2D2DFE893
:1049100000F09B5C837F878BB4B43035B4B4B4B4FF
:104920005800122098498880ABE009209649888079
:10493000A7E01D2094498880A3E01F209249888029
:104940009FE00D20904988809BE019208E49888047
:1049500097E01B208C49888093E011208A49888049
:104960008FE01520884988808BE017208649888051
:1049700087E056208449888083E07EE05720824982
:1049800088807EE00020804988807AE008207E4987
:10499000888076E00A207C49888072E00C207A4981
:1049A00088806EE01320784988806AE0012077498A
:1049B000087066E006207449888062E038E013E001
:1049C0003EE05C20704988805BE04F206E49888023
:1049D00057E007206C49888053E03DE043E00FE05A
:1049E0000E20694988804CE01A206749888048E099
:1049F00003206549888044E002206349888040E0C4
:104A00004820614988803CE018205F49888038E070
:104A100051205D49888034E050205B49888030E037
:104A20005220594988802CE053205749888028E03B
:104A30004A205549888024E049205349888020E055
:104A40001C20514988801CE04E204F49888018E086
:104A500014204D49888014E041204B498880012072
:104A60004B4908700DE04848407820F008000830B5
:104A700045494870FF20888003E0FF204249888034
:104A800000BF00BF40488088FF2827D00020414950
:104A900008804FF00850006A3F49087000F010FC91
:104AA0003C4908800846008840F0020008803B48E6
:104AB000007830B13448828808460188182001F017
:104AC0006FFB3148407820F0800080302E494870DC
:104AD0000846807820F00100401C88702A48407801
:104AE000C0F3801001284ED127488089C82840DBB8
:104AF00025484078C0F3400001283AD022488088F9
:104B0000FF281FD00020234908804FF00850006A7A
:104B10002149087000F0D4FB1E490880084600882F
:104B200040F0010008801D48007830B116488288A6
:104B300008460188182001F033FB0020184908704E
:104B4000124908701048407820F00200801C0E497D
:104B50004870FF2088800846407820F04000487068
:104B6000002088810846807820F00100401C887071
:104B700009E005488089401C03498881084640783F
:104B800020F00200487010BDA40100203601002072
:104B9000590100203C010020370100200D010020B8
:104BA000620100202DE9F041044600278026012003
:104BB0005C4908604FF000005B49C1F898015B490F
:104BC00008605949C1F89C0105461DE006EA040742
:104BD000002F03DD00205649086002E001205449FF
:104BE00008604FF00100514908604FEA66064FF037
:104BF0000400FFF7F5FA00204B49C1F894010420A6
:104C0000FFF7EEFA681CC5B2082DDFDB0120494929
:104C100008604FF000004449C1F89001BDE8F08100
:104C200010B5454804784548007808B9012000E0EF
:104C30000020424908700846007840B34048007898
:104C400008B144F001043F48007808B144F0020480
:104C50003D48007808B144F004043C48007808B1AD
:104C600044F008043A48007808B144F01004394888
:104C7000007808B144F020043748007808B144F0C7
:104C800040043648007850B344F0800427E02C48B4
:104C9000007808B124F001042A48007808B124F013
:104CA00002042948007808B124F004042748007859
:104CB00008B124F008042648007808B124F0100454
:104CC0002448007808B124F020042348007808B173
:104CD00024F040042148007808B124F080042048E2
:104CE000007810B12046FFF75DFF10BD10B503F04E
:104CF00004F81C48007810490978884207D00E480B
:104D000000781849087008460078FFF74BFF10BD7F
:104D100010B5FF20FFF746FF10BD10B50020FFF7CC
:104D200041FF10BD90012142000021429401214227
:104D30009C01214298012142010100200B01002029
:104D400003010020040100200501002006010020CD
:104D50000701002008010020090100200A010020AD
:104D60000D0100200201002000F0DAFB00F067FCDA
:104D700000F007FC012014490860FFF7CEFFFFF7A1
:104D800044FA0121A020FFF74DFB10490870FFF7FE
:104D90003CFA0E48007810B900F013FD01E000F075
:104DA0003EFD0FE002F0A9FF00F09FFAFFF7CBFCF9
:104DB00002F034F8FFF79AFF00F075FD00F069FE8D
:104DC00001F046F8EEE70000A00121420C010020AE
:104DD00070B50446002502F090FF0020F6490860F7
:104DE00000BF00BF00BF4FF0000521E014F0010F2D
:104DF00003D00120F149086002E00020EF4908607B
:104E00004FF00A00FFF7ECF90120EB4908604FF082
:104E10000A00FFF7E5F964100A20FFF7E1F9002026
:104E2000E749C1F8B4010A20FFF7DAF9681CC5B2F6
:104E3000082DDBDB70BD70B50025002400BF1CE031
:104E400064100020DC4908604FF00500FFF7C8F946
:104E50000120DB49C1F8B4010520FFF7C1F9D948A9
:104E60000068012802D144F0800401E004F07F04CE
:104E70000520FFF7B5F9681CC5B2082DE0DB204618
:104E800070BD10B50020D0490871C8708870487096
:104E90000870CE490871C870887048700870FF208B
:104EA000CB490870CB4908700020CB4908604FF00F
:104EB0004000FFF78DFF0120C149C1F8B001052076
:104EC000FFF78EF90020C44908604FF0C000FFF7DB
:104ED0007FFF0120BA49C1F8B0010520FFF780F932
:104EE0000020BD4908604FF00B00FFF771FF012063
:104EF000B349C1F8B0010520FFF772F90020B049AD
:104F0000C1F8B0018B20FFF763FF0120AC49C1F865
:104F1000B00110BD10B50146002000220A2391FB0C
:104F2000F3F403FB141303F00F000A2391FBF3F3D4
:104F3000DAB2F02303EA0213184310BD10B5A748F4
:104F40000278FF21AE20FFF74AFAFFF75EF9FFF77C
:104F50005CF9FF21AE20FFF765FAA0490978884285
:104F600002D001209E49087000209C49087010BDA5
:104F700030B587B00024002005900690039004907F
:104F80000025029000BF04E0002001A90855601C24
:104F9000C4B2042CF8DB002092490870FF2092492B
:104FA0000870487002F0A9FE00208B4908604FF09D
:104FB0000500FFF715F94220FFF70AFF0520FFF76C
:104FC0000FF901207E49C1F8BC010520FFF708F95F
:104FD000002405E0FFF72FFF03A90855601CC4B2A9
:104FE000052CF7DB01207C4908604FF00500FFF736
:104FF000F7F800207249C1F8B0010520FFF7F0F87A
:105000004220FFF7E5FE0520FFF7EAF801206B4993
:1050100008604FF00500FFF7E3F8002405E0FFF714
:105020000AFF05A90855601CC4B2052CF7DB052052
:10503000FFF7D6F80120684908604FF00500FFF738
:10504000CFF800240AE003A8005D05A9095D8842A5
:1050500002D0FE2007B030BD601CC4B2052CF2DBCC
:105060009DF80F00302801D1FFF752FE002405E023
:1050700003A8005D01A90855601CC4B2042CF7DB2D
:105080000198002875D0002418E0681CC5B201986A
:1050900010F0010F0DD002A852490978455451482B
:1050A0000078401C4F49087008460078022800DB51
:1050B00006E0019840080190601CC4B2202CE4DB9B
:1050C00000BF0024ECE002A8005D212872D2DFE8D6
:1050D00000F0E31115191D2125292D3135393D41E8
:1050E000454951585C678F9AA5B0BBBFCACED2D68E
:1050F000DADEE20011203C490855CEE012203A49A0
:105100000855CAE0132038490855C6E0142036492E
:105110000855C2E0152034490855BEE01620324932
:105120000855BAE0172030490855B6E018202E4936
:105130000855B2E019202C490855AEE010202A4944
:105140000855AAE0202028490855A6E01B2026493A
:105150000855A2E03020244908559EE0312022491C
:1051600008559AE035202049085501201F4908704C
:1051700093E0A3E021201C49085501201B49087039
:105180008BE000201849085587E03D201649085556
:105190004FF00850006A012801D1302008557CE00A
:1051A0002220114908550006006A012801D1332048
:1051B000085572E070E00000B4812142BC812142B8
:1051C000008021423C8121424C0100204701002007
:1051D0003401002035010020B0812142510100201E
:1051E00059010020440100203E010020360100202A
:1051F0003A20BB4908554FF00850006A012801D1F8
:105200003620085549E03520B54908554FF008507B
:10521000006A012801D1312008553EE03320B04911
:1052200008554FF00850006A012801D13420085574
:1052300033E02120AA4908554FF00850006A0128A0
:1052400001D13720085528E03220A549085524E02F
:105250003420A34908554FF00850006A012801D1B5
:105260003520085519E041209D49085515E00120D9
:105270009B49085511E00220994908550DE003208B
:105280009749085509E004209549085505E005208F
:105290009349085501E000E000BF00BF601CC4B2A4
:1052A000904800788442FFF60EAF8E4800780128BF
:1052B00002DB8B480078CDE6FF20CBE6FF20C9E675
:1052C0008948007828B18948008840F080008749E3
:1052D00008808748007828B18448008840F0400062
:1052E0008249088081480088704710B50024FFF784
:1052F0003FFE0446FE2C00D110BDF02C03D101204E
:1053000079490870F8E777480078012802D0022828
:1053100076D137E0FF2C34D076480078844230D004
:105320007548007868BB7548007872490870734802
:10533000047073480078734908706A4800787049AF
:10534000087001206C4908700020684908804FF0FF
:105350000850006A66490870FFF7B2FF6349088089
:105360000846008840F0020008806748007840B195
:1053700002F0C3FC614802785C480188112000F00B
:105380000FFFA9E0FF2C39D060480078B0BB60481F
:105390000078604908705E4840784870504800784E
:1053A0005B4908704E484078487055480078554928
:1053B00008704C4800785249087001205349087021
:1053C00000204A4908804FF00850006A4849087098
:1053D000FFF776FF454908800846008840F0020044
:1053E00008804948007848B102F087FC4848437873
:1053F00002783E480188112000F011FF6CE0FFE7C1
:105400003F480078012830D1FF2C2ED13A4800784F
:1054100058B30020404908703C490870364908706C
:10542000FF20344908700020304908804FF00850B0
:10543000006A2F490870FFF743FF2C49088008468F
:10544000008840F0010008802F48007840B102F049
:1054500054FC2A48027825480188112000F0A0FE5B
:1054600000202E490870204908702548007802283D
:1054700031D1FF2C2FD12548007860B30020264978
:105480000870224908701C490870FF2019490870EB
:105490000020164908804FF00850006A144908702F
:1054A000FFF70EFF114908800846008840F0010010
:1054B00008801548007848B102F01FFC1448437872
:1054C00002780A480188112000F0A9FE0020134943
:1054D00008700549087000BF00BF00BF0CE700005E
:1054E0003E01002044010020360100203C01002044
:1054F0003701002035010020380100203401002050
:1055000045010020460100200D0100203901002046
:1055100040010020420100203A01002062010020E9
:1055200010B502F001FC4FF4803002F01FFC02F0D5
:105530005CFC0446012C23D1102001F061FF022005
:1055400001F04AFF002002F09EFC002002F0ADFCBA
:10555000A00202F0A1FCA104881002F06BFC012063
:1055600002F074FC00BF392002F023FC0028FAD0BE
:10557000022002F07AFC00BF02F080FC0828FBD178
:1055800010BD08B501211C2002F043FD4BF6C00000
:10559000ADF8000002208DF8020014208DF8030001
:1055A0006946F74802F054FA4FF40061F44802F0FB
:1055B000FAFA4FF48060ADF8000004208DF8030083
:1055C0006946EF4802F044FA0320ADF800000420D9
:1055D0008DF803006946EA4802F03AFA4FF4604059
:1055E000ADF8000004208DF803006946E54802F09C
:1055F0002FFA0120ADF8000004208DF80300694661
:10560000E14802F025FA4FF48870ADF8000002205E
:105610008DF8020014208DF803006946DA4802F084
:1056200017FAE020ADF8000002208DF802001020EB
:105630008DF803006946D44802F00AFA08BD10B597
:105640004FF48041480301F0ADFD4FF4E06001F0FC
:1056500071FD10BD10B572B60020CC490870CC4861
:105660000068012804D10846007840F00100087065
:10567000C8480068012805D1C448007840F00200FD
:10568000C2490870C4480068012805D1BF480078A5
:1056900040F00400BD490870C0480068012805D1E9
:1056A000BA48007840F00800B84908700020BC49AA
:1056B0000870BC490870BC490870BC490870BC49F6
:1056C0000870BC490870BC490870BC490880BC49D6
:1056D0000870BC490880BC490880BC490870BC49B6
:1056E0000870F020BB4908700020AD490870AD4932
:1056F0000870B9490870B9490870B9490870B949C2
:105700000870B9490870B9490870B9490870012092
:10571000B84908604FF00000B7490870B7490870F1
:10572000B7490870B7490870B7490870B749087099
:10573000B7490870B7490870B7490870B749087089
:105740004FF008510862B6490870B6490870FFF773
:10575000E4FAFFF796FB00F041FA00F0CCFA00F013
:105760006AFA00F0ECFBFEF7C7FE62B610BD10B59A
:1057700000F034FA00F08CFA00F0BDFA00F05BFAA9
:1057800000F0DDFBFEF7B8FE10BD70B50446002545
:1057900000209849086000BF0CE0964800686FEA56
:1057A0000000A149C1F8AC01FEF72FFD02F0A5FAF7
:1057B000681CC5B2B5EB440FEFDB01208D490860D2
:1057C00070BD10B5002429E002F097FA97480068F0
:1057D00018BB9348007800BB601C84B2B4F5967F78
:1057E0001CDB01208E490870084602780121A020A8
:1057F000FEF7F5FDFEF709FD0220FFF7C6FFFFF7F4
:1058000029FFFEF702FD002089490860FEF7FDFC34
:1058100001208549C1F8A00110BD0024D4E710B5CE
:105820000020844908604FF00200FFF7AEFFFFF749
:1058300011FFFEF7EAFC00207F49C1F8A001FEF746
:10584000E4FC01207B49086010BD10B501207849B7
:1058500008604FF0000073490870FEF7DFFCFEF7A8
:10586000DDFCFEF7DBFCFEF7D9FCFEF7D7FC0020E1
:105870006D49C1F8A0016E490860FEF7CFFCFEF744
:10588000CDFCFEF7CBFCFEF7C9FCFEF7C7FCFFF72B
:10589000E1FE6A480078401C6849087001206249AE
:1058A000C1F8A00110BD10B502F027FA5D480078DC
:1058B00001281FD16248007860B16248007848B979
:1058C0005848007818B10121084600F02EFC01204C
:1058D0005C4908705A48007860B95A48007848B165
:1058E0005048007818B10021012000F01EFC002073
:1058F0005449087010BD2D48007830B32D48007809
:10590000401C2C49087008460078012802D100206C
:105910003849086027480078022802D1012035491B
:10592000086024480078032802D10020314908602B
:1059300020480078042808D101202E4908604FF043
:1059400000001C4908701949087019480078B0B166
:1059500019480078401C1849087008460078052846
:1059600003D101202349086074E0134800780A2815
:1059700070DB00201F4908600F4908706AE063E08F
:10598000000C014000100140000801400E01002001
:105990000001214234012242380122423C012242CC
:1059A0006601002056010020570100205901002007
:1059B0005A0100205B0100205C0100205E010020F4
:1059C000600100206C0100206E01002070010020A9
:1059D00071010020740100207601002036010020B2
:1059E0003701002038010020390100203A01002051
:1059F0003C010020AC812142010100200201002075
:105A00000301002004010020050100200601002000
:105A10000701002008010020090100200A010020E0
:105A20000C0100200D01002000802142288121422C
:105A3000A0012142A0812142000021425801002002
:105A400052010020530100205448007810B9012071
:105A5000534908605348007800B9704752480068BD
:105A6000012805D151480088401C5049088004E0B5
:105A700000204E4908804E4908704C4800888C2808
:105A800005DD00204949088001204949087000BF10
:105A9000E3E710B502F031F94648007801287CD1DF
:105AA00000204449087044480078444909788842F5
:105AB00003DB42480078002802DC4148007830B11E
:105AC00000203D4908703D490870FFF7BEFE3A4886
:105AD0000078F02806DB0020374908703749087045
:105AE000FFF7B3FE3748006828B937480088401CE4
:105AF0003549088002E00020334908803248008898
:105B000005283ADB002030490880304908704FF002
:105B10000850006A2E490870FFF7D2FB2B49087025
:105B20000846007840F0020008701E48007828B14E
:105B3000EE2208460178112000F032FB00202349B4
:105B400008704FF00850006A21490870FFF7B8FB51
:105B50001E4908700846007840F00100087011489E
:105B6000007828B1EE2208460178112000F018FBD9
:105B7000002018490870184908701748007860B16B
:105B800014480078401C1349087008460078032820
:105B900003DB002008701049087010BD5901002077
:105BA000AC8121420D0100202C0121425401002032
:105BB00052010020610100206601002056010020F2
:105BC00057010020288121425E0100203C01002075
:105BD0003701002062010020360100201FB501219D
:105BE000102002F023FA7C4802F07EFA4FF47A701B
:105BF000ADF8080045F6BF50ADF8040001A976489D
:105C000002F046FB0021744802F07AFF012211469F
:105C1000714802F092FE01216F4802F069FE3620C1
:105C20008DF8000001208DF802008DF80300684611
:105C300001F085FA1FBD1FB50121202002F0F6F901
:105C4000664802F051FA6420ADF8080045F6BF50EE
:105C5000ADF8040001A9614802F01AFB00215F4879
:105C600002F04EFF012211465C4802F066FE01215F
:105C70005A4802F03DFE37208DF8000002208DF8D2
:105C8000020001208DF80300684601F058FA1FBD9C
:105C90001FB50121084602F0C9F94FF0804002F01B
:105CA00023FA4FF6FF70ADF808001820ADF8040095
:105CB0000020ADF8060001A94FF0804002F0E8FA9C
:105CC00000214FF0804002F01BFF01221146900797
:105CD00002F033FE0121880702F00AFE1C208DF835
:105CE000000003208DF8020000208DF803006846B4
:105CF00001F025FA1FBD1FB50121022002F096F91F
:105D0000374802F0F1F9C820ADF8080045F6BF5059
:105D1000ADF804000020ADF80600ADF80A0001A9B6
:105D20002F4802F0B5FA00212D4802F0E9FE0122C9
:105D300011462B4802F001FE0121294802F0D8FD4E
:105D40001D208DF8000004208DF8020001208DF840
:105D50000300684601F0F3F91FBD10B501211E488C
:105D600003F085F868B101F0C8FF01211A4803F07B
:105D70008FF801201B4908701B480078401C1A4905
:105D8000087010BD10B50121144803F070F838B147
:105D900001F0B3FF0121114803F07AF8FFF7ABFDE2
:105DA00010BD10B50121880703F061F818B1012179
:105DB000880703F06DF810BD10B50121084803F005
:105DC00056F838B101F099FF0121054803F060F859
:105DD000FEF726FF10BD0000001000400014004038
:105DE00000040040610100206601002070B50446F7
:105DF000002501214FF0C05002F018F9012003F0F6
:105E00005CFA204601F033FA0546002003F055FA0B
:105E1000284670BD70B504460D4601214FF0C050B4
:105E200002F004F9012003F048FA2946204601F067
:105E300018FA002003F041FA70BD70B54FF0006011
:105E4000056844682846FEF7C4F92646B04770BD89
:105E500010B5234C2348007801283FD172B60020AA
:105E6000204908704AF655210420FFF7D3FF34F883
:105E7000021B0820FFF7CEFF34F8021B0C20FFF7AF
:105E8000C9FF34F8021B1020FFF7C4FF34F8021BCF
:105E90001420FFF7BFFF34F8021B1820FFF7BAFFEA
:105EA0004FF0804002F020F90F4802F01DF90F4832
:105EB00002F01AF90E4802F017F90E4802F0ECFF52
:105EC0000D4802F0E9FF01F0F9F90C4801F060FD1E
:105ED0000B4801F05DFD62B6FFF7AFFF10BD00009B
:105EE000E30100200F0100200004004000100040EA
:105EF000001400400038014000440040000C014004
:105F0000001001400020FE490870FE490870FE495B
:105F100008804886FD490870FB49088248828882CB
:105F2000C882088348838883C88308844884888417
:105F3000C884088548858885C8850886704700B567
:105F400087B0FFF7DFFF0121480402F06FF8082057
:105F5000ADF8040004208DF8070001A9EC4801F019
:105F600077FD0420ADF8040002208DF8060018200B
:105F70008DF8070001A9E64801F06AFD4FF496404C
:105F800003900020ADF81000ADF81200ADF8140039
:105F9000ADF818000C20ADF8160003A9DD4802F09A
:105FA000BEFF012240F22551DA4803F050F80121EA
:105FB000D84803F040F826208DF8080000208DF81E
:105FC0000A0001208DF80B0002A801F0B8F807B014
:105FD00000BD10B504462146CE4803F09CF800BF32
:105FE0004021CC4803F005F90028F9D04021C948E8
:105FF00003F00CF910BD10B502460B46002100203D
:1060000000BF05E032F811400444A0B24C1CE1B2DC
:106010009942F7DB10BD70B50546002400BF06E0CD
:10602000BD4931F81400FFF7D4FF601CC4B2AC4284
:10603000F6DB70BD2DE9F04105460E46032400272E
:10604000B6480088401CB54908804220B249088003
:10605000532048800A2088800020C88003200881BF
:106060001020488100208881C881AC480088001237
:106070000882AA480088C0B2488208468582C68243
:1060800000BF06E0A44830F81400384487B2601C12
:10609000C4B20B2CF6DDA0480783FF209E4948833D
:1060A0000E20FFF7B8FFBDE8F0812DE9F04105466D
:1060B0000E46174603244FF0000898480088401CFD
:1060C00096490880422094490880532048800B203C
:1060D00088800020C880032008811020488100208B
:1060E0008881C8818D480088001208828B4800880A
:1060F000C0B2488208468582C682078300BF07E097
:10610000854830F81400404400F0FF08601CC4B219
:106110000C2CF5DD8048A0F81A80FF207E4988838A
:106120000F20FFF778FFBDE8F0812DE9F04105462B
:106130000E460324002779480088401C77490880D0
:10614000422075490880532048800A20888000201A
:10615000C880032008811A20488100208881C881D6
:106160006E480088001208826C480088C0B24882DD
:1061700008468582C68200BF06E0674830F81400F2
:106180003844C7B2601CC4B20B2CF6DD62480783EA
:10619000FF20614948830E20FFF73DFFBDE8F081F5
:1061A0002DE9F04105460E46174603244FF000083E
:1061B0005A480088401C59490880422056490880A6
:1061C000532048800A2088800020C880032008814E
:1061D0000846458100208881C88150480088001207
:1061E00008824E480088C0B2488208468682C7822C
:1061F00000BF07E0484830F81400404400F0FF08B2
:10620000601CC4B20B2CF5DD4348A0F81880FF20B9
:10621000414948830E20FFF7FEFEBDE8F0812DE9DD
:10622000F04705460E461746984603244FF00009EE
:106230003A480088401C3949088042203649088085
:10624000532048800B2088800020C88003200881CC
:106250000846458100208881C881304800880012A6
:1062600008822E480088C0B2488208468682C782CB
:10627000A0F8188000BF07E0274830F81400484411
:1062800000F0FF09601CC4B20C2CF5DD2248A0F818
:106290001A90FF20204988830F20FFF7BCFEBDE83D
:1062A000F08710B501F029FD20211A4802F0A1FF66
:1062B00001287AD12021174802F0A8FF154802F0E2
:1062C0002EFF174908800E4800781D286ED2DFE89F
:1062D00000F00F2C374A5D7B8EA1B9C6D3F8F6F5D6
:1062E000F4F3F2F1F0EFEEEDECEBEAE9E8E7E600CB
:1062F0000B480088422815D101200149087013E09D
:106300007001002071010020E00100207A010020CE
:106310000008014000440040C00100206E01002040
:1063200078010020FFF7EEFD22E2FA4800885328AA
:1063300003D10220F849087001E0FFF7E3FDF3E71D
:10634000F44800880A2802DAFFF7DCFD0AE0F14889
:106350000088F249088008460088401E0880032013
:10636000ED490870E0E7EB48008810B1FFF7CAFD7F
:106370000BE0E8480088E94948800420E6490870B5
:10638000E6480088401EE5490880CDE7E1480088DE
:1063900003280CD0DF480088022808D0DD48008898
:1063A000012804D0FFF7AEFD0DE0EFE3EFE3D9489D
:1063B0000088DA4988800520D7490870D7480088C6
:1063C000401ED6490880AFE7D248008810B1FFF7D9
:1063D00099FD0BE0CF480088D049C8800620CE49FF
:1063E0000870CE480088401ECC4908809CE7C94808
:1063F000008810B1FFF786FD0BE0C6480088C7494A
:1064000008810720C4490870C4480088401EC34959
:10641000088089E7BF480088102803DBBD48008852
:10642000202802DDFFF76EFD0BE0BA480088BB496B
:1064300048810820B8490870B8480088401EB7490C
:10644000088071E7B3480088B44988810920B249BF
:106450000870B2480088401EB049088064E7AD4823
:106460000088AE49C8810A20AB490870AB48008853
:10647000401EAA49088057E7A6480088A749088215
:106480000B20A5490870A5480088401EA349088034
:106490000846008810B90120A149087044E780E24D
:1064A0006AE244E21EE2F8E1D2E1ACE186E160E1B9
:1064B0003AE109E1E3E0BDE097E071E04BE025E07F
:1064C000FFE79748007870B1924800889349488662
:1064D00018219248801CFFF78EFD924908701C20FD
:1064E0008D49087011E08B4800888C4948820C2047
:1064F0008949087089480088401E884908800846F4
:10650000008810B90120864908700DE7844800789A
:1065100070B1804800888149488618217F48801CD6
:10652000FFF769FD7F4908701C207B49087011E066
:1065300078480088794988820D2077490870774823
:106540000088401E754908800846008810B901205F
:1065500073490870E8E67248007870B16D480088A9
:106560006E49488618216D48801CFFF744FD6D492F
:1065700008701C206849087011E066480088674967
:10658000C8820E206449087064480088401E634930
:1065900008800846008810B9012061490870C3E6E8
:1065A0005F48007870B15B4800885C4948861821D4
:1065B0005A48801CFFF71FFD5A4908701C20564995
:1065C000087011E053480088544908830F2052494D
:1065D000087052480088401E5049088008460088CC
:1065E00010B901204E4908709EE64D48007870B100
:1065F000484800884949488618214848801CFFF7C8
:10660000FAFC484908701C204349087011E04148D1
:1066100000884249488310203F4908703F4800885D
:10662000401E3E4908800846008810B901203C49B8
:106630000870F1E33A48007870B13648008837496D
:10664000488618213548801CFFF7D5FC354908706D
:106650001C203149087011E02E4800882F4988839A
:1066600011202D4908702D480088401E2B490880B4
:106670000846008810B9012029490870CCE3284851
:10668000007870B12348008824494886182123489F
:10669000801CFFF7B0FC234908701C201E490870BD
:1066A00011E01C4800881D49C88312201A4908704F
:1066B0001A480088401E194908800846008810B909
:1066C000012017490870A7E31548007870B11148F8
:1066D00000881249488618211048801CFFF78BFC5F
:1066E000104908701C200C49087011E00948008806
:1066F0000A49088413200849087008480088401E89
:10670000064908800846008810B90120044908702D
:1067100082E300007801002070010020E0010020E9
:10672000710100207A010020FA48007870B1FA481F
:106730000088FA4948861821F848801CFFF75BFC5E
:10674000F74908701C20F749087011E0F2480088EA
:10675000F24948841420F3490870F0480088401E2C
:10676000EE4908800846008810B90120E949087000
:1067700052E3E848007870B1E7480088E749488666
:106780001821E648801CFFF736FCE54908701C20FC
:10679000E449087011E0E0480088E0498884152049
:1067A000E0490870DD480088401EDC490880084642
:1067B000008810B90120D74908702DE3D54800782A
:1067C00070B1D5480088D54948861821D348801C27
:1067D000FFF711FCD24908701C20D249087011E063
:1067E000CD480088CD49C8841620CE490870CB48D2
:1067F0000088401EC94908800846008810B9012059
:10680000C449087008E3C348007870B1C2480088E2
:10681000C24948861821C148801CFFF7ECFBC049DB
:1068200008701C20BF49087011E0BB480088BB49B4
:1068300008851720BB490870B8480088401EB74932
:1068400008800846008810B90120B2490870E3E2C8
:10685000B048007870B1B0480088B0494886182127
:10686000AE48801CFFF7C7FBAD4908701C20AD493E
:10687000087011E0A8480088A84948851820A9494F
:106880000870A6480088401EA44908800846008871
:1068900010B901209F490870BEE29E48007870B18F
:1068A0009D4800889D49488618219C48801CFFF718
:1068B000A2FB9B4908701C209A49087011E0964879
:1068C0000088964988851920964908709348008861
:1068D000401E924908800846008810B901208D4961
:1068E000087099E28B48007870B18B4800888B491A
:1068F000488618218948801CFFF77DFB884908706D
:106900001C208849087011E0834800888349C885A5
:106910001A208449087081480088401E7F490880F9
:106920000846008810B901207A49087074E2794855
:10693000007870B1784800887849488618217748EF
:10694000801CFFF758FB764908701C2075490870B9
:1069500011E071480088714908861B207149087050
:106960006E480088401E6D4908800846008810B9AE
:106970000120684908704FE26648007870B16648A7
:1069800000886649488618216448801CFFF733FB5D
:10699000634908701C206349087001E0FFF7B2FAF0
:1069A0003AE25D480088FF287DD15C48408E5C4912
:1069B0000978884278D159484089142875D006DC76
:1069C000102873D0122872D0132871D104E0172830
:1069D0006FD01D28F9D10DE25048008A082869D0EF
:1069E00008DCA0F10200062874D2DFE800F0F86BA2
:1069F000F773A6D1142806D015286CD01C282BD0EC
:106A00002C2867D13CE04548408A20B101280CD0B1
:106A100002281ED113E04448007820F001004249CA
:106A2000087000204149087014E03F48007840F0A9
:106A300001003D49087000203C4908700AE03A48CE
:106A4000007820F0010038490870012037490870AB
:106A500000E000BF00BF55E13048808A2F49C98A55
:106A6000084306D03048007840F002002E490870F4
:106A700005E02D48007820F002002B49087041E124
:106A80002648808A2549C98A08432449098B084336
:106A90002249498B08430ED02348007840F0020079
:106AA000214908700DE0B1E1ADE1A2E165E14CE101
:106AB000A4E129E197E01C48007820F002001A497F
:106AC00008701FE11548408A30B101280ED0022815
:106AD00030D115E015E1EBE01348007820F0040018
:106AE0001149087000201249087024E00020104964
:106AF00008700D48007840F004000B4908701AE057
:106B00000948007820F0040007490870012008496E
:106B1000087010E07101002078010020E0010020E1
:106B20007A010020700100200101002003010020F3
:106B30000501002000BF00BFE4E0F948408A20B111
:106B400001280CD002281ED113E0F648007820F06E
:106B50000800F44908700020F349087014E0002090
:106B6000F1490870EF48007840F00800ED490870DE
:106B70000AE0EC48007820F00800EA49087001209B
:106B8000E949087000E000BF00BFBBE045E140E11B
:106B9000E348408A20B101280CD0022820D113E01C
:106BA000E048007820F01000DE4908700020DF493E
:106BB000087016E00020DD490870DA48007840F0DF
:106BC0001000D84908700CE0D648007820F010007A
:106BD000D44908700120D549087002E055E02BE047
:106BE00000BF00BF8EE0CE48408A20B101280CD003
:106BF00002281ED113E0CB48007820F02000C949BC
:106C000008700020CA49087014E00020C8490870C4
:106C1000C448007840F02000C24908700AE0C1482A
:106C2000007820F02000BF4908700120C04908709A
:106C300000E000BF00BF65E0B948408A20B10128EC
:106C40000CD002281ED113E0B648007820F0400096
:106C5000B44908700020B749087014E00020B54915
:106C60000870B048007840F04000AE4908700AE073
:106C7000AC48007820F04000AA4908700120AD49D6
:106C8000087000E000BF00BF00BFA548408A10B1F7
:106C900001280AD104E000204FF00851086205E005
:106CA00001204FF00851086200E000BF00BF29E05A
:106CB0009B48408A20B101280CD002281ED113E045
:106CC0009848007820F080009649087000209A4982
:106CD000087014E00020984908709248007840F04D
:106CE0008000904908700AE08E48007820F080000B
:106CF0008C49087001209049087000E000BF00BF77
:106D000000E000BF00BF7AE08548008A042805D172
:106D10008A49087078208A4908700FE08048008A04
:106D2000082805D185490870F0208549087005E0DC
:106D30000120824908701E20814908700020814985
:106D4000087001208049087059E07548008A0128C0
:106D500012D17348408A20B1012806D0022809D1F7
:106D600004E000207949087005E000BF0120774960
:106D7000087000E000BF00BF41E06948008A0128B8
:106D800004D0022812D0032830D11FE0012070491E
:106D900008706348008A6F4908706148408A6E49EC
:106DA00008705F48808A6D49087020E002206849B9
:106DB00008705B48008A674908705948408A6649EC
:106DC00008705748808A6549087010E003206049C0
:106DD00008705348008A5F4908705148408A5E49EC
:106DE00008704F48808A5D49087000E000BF00BF0E
:106DF00005E004E001205A49087000E000BF00BF30
:106E0000FFF780F804E0FFF77DF801E0FFF77AF87C
:106E100002E0FFF777F800BF00BF10BD10B500F02B
:106E20006CFF4B480078012804D002280ED00328BC
:106E300074D12DE04B48007840F03001C722352056
:106E4000FFF733F9002042490870A0E0424801787A
:106E500040480078FFF7EEF800204349087006E04C
:106E6000FDF7DCF940480078401C3F4908703E4877
:106E70000078394909788842F2DB01203B490860F3
:106E8000FDF74BFFFEF7E1FC0020314908707EE082
:106E9000314801782F480078FFF7CCF800203249BC
:106EA000087006E0FDF7BAF92F480078401C2E491B
:106EB00008702D480078284909788842F2DB0120C3
:106EC0002B49087072B6FDF728FF01202949086098
:106ED0002949C1F8AC014FF000001B49087027494F
:106EE00008701A4908702649087026490880154913
:106EF00008704FF001002449C1F8A0012048027831
:106F00004FF001014FF0A000FDF769FAFDF77DF9A0
:106F1000FEF757FC00200E49087038E036E000000C
:106F2000E0010020010100200601002007010020EF
:106F300008010020090100200A010020740100203E
:106F400056010020660100200D0100205A0100209A
:106F50007501002068010020690100206A010020FD
:106F60000F0100200E01002072010020AC8121429F
:106F70007601002090012142008021425901002029
:106F80000C0100205E0100200000214200BF00BF74
:106F900010BD0000002100205E4A126842F48032D9
:106FA0005C4B1A6000BF5B4A126802F40030491C57
:106FB00010B9B1F5A06FF6D1564A126812F4003F2D
:106FC00001D0012000E00020012830D1514A526850
:106FD000504B5A601A4652685A601A4652685A60B4
:106FE0001A46526822F47C125A601A46526842F4D9
:106FF00098125A601A46126842F080721A6000BFF6
:10700000444A126812F0007FFAD0424A526822F0D5
:107010000302404B5A601A46526842F002025A601C
:1070200000BF3C4A526802F00C02082AF9D17047AE
:1070300010B5FFF7AFFF10BD10B53648006840F03F
:107040000100344908600846406833490840314926
:10705000486008460068314908402E4908600846E3
:10706000006820F4802008600846406820F4FE0094
:1070700048604FF41F0088600020C862FFF7D8FF07
:107080004FF000602649086010BD30B50021002097
:10709000002200231F4C646804F00C0121B1042974
:1070A00006D0082925D107E01E4C1F4D2C6024E096
:1070B0001C4C1D4D2C6020E0164C646804F47010CC
:1070C000144C646804F48032022404EB904022B92A
:1070D000164C4443144D2C600AE00E4CE46A04F054
:1070E0000F04631C0F4CB4FBF3F444430E4D2C60AF
:1070F00003E00C4C0C4D2C6000BF00BF054C6468D5
:10710000C4F303140A4D295D074C2468CC40064D96
:107110002C6030BD001002400000FFF8FFFFF6FEBB
:1071200008ED00E000127A007C01002000093D001B
:107130008001002031490143314A1160704770B528
:10714000002100230F22C4780CB32D4C246804F4D2
:10715000E064C4F5E064210AC1F10403CA40447844
:1071600004FA03F18478144021430901254C067880
:10717000A155047804F01F050124AC4005786D1179
:107180004FF0E02606EB8505C5F8004109E00478DC
:1071900004F01F050124AC401B4D0678761145F81C
:1071A000264070BD194A0A400243154B1B1F1A6046
:1071B000704739B1124A121D12680243104B1B1D51
:1071C0001A6006E00E4A121D126882430C4B1B1D0A
:1071D0001A607047042808D14FF0E021096941F096
:1071E00004014FF0E022116107E04FF0E02109694E
:1071F00021F004014FF0E022116170470000FA0510
:107200000CED00E000E400E080E100E080FFFF1F03
:1072100010B5012000F031FF002000F02EFF10BD5E
:107220002449086070472349091F086070472149B5
:10723000843108607047014600201F4A10884FF6CD
:107240007F42104008431C4A1080704701460020CE
:10725000194A10884FF6807210400843164A108071
:1072600070470022144A2C3A0244116070470146CC
:107270000022114A2C3A0A44108870470D489C306D
:107280000068C0B270470C480830008840F0010028
:1072900009490831088070470648A0300068C0B22C
:1072A000704705480830008840F002000249083164
:1072B0000880704704860D422C6C00400020444931
:1072C0000860091D0860091D0860091D0860414823
:1072D0003F4914310860704700213D498279002AF6
:1072E0003AD00A46126803689A430B461A600A1D90
:1072F000126803689A430B1D1A60027911440A68E8
:1073000003681A430A60324A0832126803689A43D3
:107310002F4B08331A601A1D126803689A432C4BCE
:107320000C331A604279102A0ED11A1F12680368B2
:107330001A43274B08331A601A1D126803681A4350
:10734000234B0C331A600DE02149427911440A683D
:1073500003681A430A6005E0027911440A68036869
:107360009A430A6070470021016001710C2141714C
:107370000021817170471649103109680143144A90
:1073800010321160704701460020114A1432126811
:107390000A4201D0012000E0002070470C4914315E
:1073A00008607047014600200022094B1B6803EA71
:1073B0000102074B14331B680B4202D00AB10120B3
:1073C00000E0002070470249143108607047000057
:1073D00000040140FFFF0F0001460020FE4A106834
:1073E00000F03800084310607047FB49096821F03D
:1073F0000801F94A1160114609680143116070479C
:10740000F549096821F01001F34A11601146096835
:10741000014311607047F148EF494860F048486007
:107420007047EE48EC494860ED4848607047EA48CC
:10743000006940F08000E84908617047E64800694B
:1074400040F08000E449086170470420E249C968BF
:1074500001F00101012901D101200EE0DE49C968D6
:1074600011F0040F01D0022007E0DB49C96811F0D8
:10747000100F01D0032000E00420704700B5024641
:107480000423FFF7E2FF034603E0FFF7DEFF0346B6
:10749000521E012B01D1002AF7D102B9052318464B
:1074A00000BD30B5044604254FF43020FFF7E6FF59
:1074B0000546042D17D1C848006940F00200C649AE
:1074C000086108464461006940F0400008614FF4DB
:1074D0003020FFF7D3FF0546BF48006941F6FD7134
:1074E0000840BD490861284630BD10B504244FF45A
:1074F0003020FFF7C3FF0446042C16D1B6480069BC
:1075000040F00400B44908610846006940F04000BA
:1075100008614FF43020FFF7B1FF0446AE48006920
:1075200041F6FB710840AC490861204610BD00B52A
:1075300002460423FFF789FF034603E0FFF785FFB8
:107540000346521E012B01D1002AF7D102B90523AF
:10755000184600BD10B504244FF43020FFF7E7FFB4
:107560000446042C16D19C48006940F004009A4956
:1075700008610846006940F0400008614FF430207F
:10758000FFF7D5FF04469448006941F6FB710840B7
:1075900091490861204610BD00208F49C96911F04A
:1075A000020F01D0012000E00020704730B5A52572
:1075B0000424FFF7F1FF00B100254FF43020FFF75E
:1075C0005DFF0446042C3AD184488349886084488E
:1075D00088600846006940F020000861084600699C
:1075E00040F0400008614FF43020FFF747FF0446A9
:1075F000042C1BD17848006941F6DF7108407649B8
:1076000008610846006940F010000861754805806F
:10761000E002FFF733FF0446052C10D06E480069E6
:1076200041F6EF7108406C49086108E0052C06D06E
:107630006948006941F6EF710840674908612046D2
:1076400030BDF0B504460D4604260027F002FFF7D2
:1076500015FF0646042E22D15F48006940F0010064
:107660005D4908612580F002FFF708FF0646042EF9
:107670000ED1A71C280C3880F002FFF7FFFE06464B
:107680005548006941F6FE7108405349086106E01B
:107690005148006941F6FE7108404F490861304683
:1076A000F0BD70B504460D460426F002FFF7E6FE75
:1076B0000646042E11D14848006940F001004649B1
:1076C00008612580F002FFF7D9FE064642480069AE
:1076D00041F6FE71084040490861304670BD70B502
:1076E00005460E460424E002FFF7C8FE0446042CBB
:1076F00017D13A4838498860394888600846006997
:1077000040F0100008612E80E002FFF7B7FE04464B
:10771000052C06D03048006941F6EF7108402E492B
:107720000861204670BD2DE9F04304464FF6FF7610
:107730003746B046B1460425E443E6B2C4F3072712
:10774000C4F307484FEA1469E802FFF797FE0546BD
:10775000042D40D12148204988602148886008468E
:10776000006940F010000861FF2E06D01D48083067
:107770000680E802FFF782FE0546042D08D1FF2FA0
:1077800006D018480A300780E802FFF777FE054662
:10779000042D0AD1B8F1FF0F07D012480C30A0F821
:1077A0000080E802FFF76AFE0546042D0AD1B9F110
:1077B000FF0F07D00B480E30A0F80090E802FFF74B
:1077C0005DFE0546052D06D00348006941F6EF71C0
:1077D00008400149086107E0002002402301674595
:1077E000AB89EFCD00F8FF1F2846BDE8F08330B528
:1077F000054604244FF43020FFF740FE0446042CD5
:1078000041D15F485F4988605F48886008460069E9
:1078100040F0200008610846006940F0400008611F
:107820004FF43020FFF72AFE0446042C22D155489D
:10783000006941F6DF710840524908610846006955
:1078400040F0100008611DB100205049088002E09E
:10785000A5204E4908804FF43020FFF70FFE044664
:10786000052C10D04748006941F6EF7108404549A2
:10787000086108E0052C06D04248006941F6DF7136
:10788000084040490861204630BDF0B505460E4627
:10789000174604243A483B4988603B488860E00228
:1078A000FFF7ECFD0446042C19D13648006940F07E
:1078B00010003449086147F0F80030432843334949
:1078C000891C0880E002FFF7D9FD0446052C06D08C
:1078D0002C48006941F6EF7108402A4908612046AA
:1078E000F0BD2848C069800870472648006A704784
:1078F00000202449096811F0200F01D0012000E088
:107900000020704729B11F4A126902431D4B1A61BA
:1079100004E01C4A126982431A4B1A6170470146FF
:107920000020012908D1174AD26912F0010F01D0B5
:10793000012008E0002006E0124AD2680A4201D085
:10794000012000E0002070470E49C8607047042005
:107950000C49C96801F00101012901D101200EE0A3
:107960000849C96811F0040F01D0022007E0054959
:10797000C96811F0100F01D0032000E00420704707
:107980002301674500200240AB89EFCD00F8FF1FBF
:1079900010B50446CA48844208D10121042000F0F1
:1079A00052FB0021042000F04EFB46E0C548844213
:1079B00008D10121082000F046FB0021082000F03A
:1079C00042FB3AE0C048844208D10121102000F077
:1079D0003AFB0021102000F036FB2EE0BB48844229
:1079E00008D10121202000F02EFB0021202000F0F2
:1079F0002AFB22E0B648844208D10121402000F051
:107A000022FB0021402000F01EFB16E0B14884421A
:107A100008D10121802000F016FB0021802000F019
:107A200012FB0AE0AC48844207D10121801500F026
:107A30000AFB0021A01500F006FB10BD10B50121C6
:107A4000084600F000FB0021012000F0FCFA10BD08
:107A50002DE9F041024600250026002000230024E5
:107A6000002791F803C00CF00F0591F803C01CF03B
:107A7000100F03D091F802C04CEA0505B1F800C020
:107A80001CF0FF0F31D0146800202BE04FF0010CE8
:107A90000CFA00F3B1F800C00CEA03069E4220D1B4
:107AA00083004FF00F0C0CFA03F7BC4305FA03FCFC
:107AB0004CEA040491F803C0BCF1280F06D14FF042
:107AC000010C0CFA00FCC2F814C00AE091F803C0E3
:107AD000BCF1480F05D14FF0010C0CFA00FCC2F8C4
:107AE00010C0401C0828D1D31460B1F800C0BCF10C
:107AF000FF0F34DD546800202EE000F1080C4FF039
:107B0000010808FA0CF3B1F800C00CEA03069E4223
:107B100021D183004FF00F0C0CFA03F7BC4305FA98
:107B200003FC4CEA040491F803C0BCF1280F05D112
:107B300000F1080C08FA0CF8C2F8148091F803C0A0
:107B4000BCF1480F07D100F1080C4FF0010808FA0A
:107B50000CF8C2F81080401C0828CED35460BDE851
:107B6000F0814FF6FF710180022181700421C17004
:107B700070470246002093680B4201D0012000E0CC
:107B8000002070470146886880B270470246002096
:107B9000D3680B4201D0012000E00020704701466D
:107BA000C86880B2704701617047416170470AB18F
:107BB000016100E041617047C16070474FF480325D
:107BC0000A438261816182618269826970470246EB
:107BD0000020424B18684FF68073184040EA0210AC
:107BE00008433E4B186070473D49C8617047F0B587
:107BF0000A46002300240021002500F00046B6F1CB
:107C0000004F02D1354EF16901E0344E7168C0F386
:107C1000034583B200F44016B6F5401F08D121F0A9
:107C200070612E4E766826F070662C4F7E6012E0F2
:107C300000F48016B6F5801F06D1032606FA05F477
:107C4000A14341F0706106E0460D360103FA06F6E5
:107C5000B14341F0706122B1460D360103FA06F6D8
:107C6000314300F00046B6F1004F02D11B4EF161E6
:107C700001E01A4E7160F0BD30B500228B071C0F79
:107C80000F2303FA04F2154B08338C1053F82430F9
:107C90009343124C08348D1044F8253023468C1041
:107CA00053F824308C07240F00FA04F423430B4CC0
:107CB00008348D1044F8253030BD0A4908607047FB
:107CC00000080140000C0140001001400014014078
:107CD00000180140001C014000200140000001404C
:107CE00000002042DC0020420E49086070470D4928
:107CF000486070470B49886070474AF6AA200949D6
:107D0000086070474CF6CC40064908607047014651
:107D10000020044AD2680A4201D0012000E000207D
:107D20007047000000300040E348006840F0010068
:107D3000E149086008464068E0490840DE4948607B
:107D400008460068DE490840DB49086008460068CC
:107D500020F4802008600846406820F4FE00486057
:107D60004FF41F0088600020C8627047D24909683C
:107D700021F48031D04A11601146096821F4802134
:107D80001160B0F5803F03D0B0F5802F0ED106E032
:107D9000C949096841F48031C74A116007E0C64902
:107DA000096841F4A021C44A116000E000BF00BF8F
:107DB000704710B501460022002300204A11012A15
:107DC00002D1BD4C236806E0022A02D1BA4C236AD4
:107DD00001E0B94C636A01F01F02012494401C4287
:107DE00001D0012000E0002010BD70B50024002566
:107DF000002600BF3120FFF7DCFF0646641CB4F507
:107E0000A06F01D0002EF5D03120FFF7D2FF08B1CE
:107E1000012500E00025284670BD01460020A64A45
:107E2000106820F0F80040EAC10010607047A549D2
:107E300008607047024600209F4B586820F4741079
:107E400042EA010318439C4B586070479D490866FD
:107E5000704702460020984BD86A9B4B184042EA74
:107E600001031843944BD862704701460020924AA0
:107E7000506820F003000843506070478E48406807
:107E800000F00C007047014600208B4A506820F03B
:107E9000F00008435060704701460020864A506851
:107EA00020F4E06008435060704701460020824A99
:107EB000506820F4605040EAC1005060704729B11A
:107EC0007D4A527A02437C4B5A7206E07A4A527AD1
:107ED000C343DBB21A40784B5A7270477B49086043
:107EE000704701460020744A506820F4404008431F
:107EF000506070470021764A11706F4A82F8201056
:107F0000012802D0042808D103E00121704A117031
:107F100004E005216E4A117000E000BF00BF704709
:107F20006C49086070476449096A0143624A1162FA
:107F30007047684944390860704770B500210023D4
:107F40000024002200255C4E766806F00C0121B169
:107F5000042905D0082921D105E05F4E066020E004
:107F60005D4E06601DE0544E766806F47013524E66
:107F7000766806F48034022606EB93431CB9574E0C
:107F80005E43066009E04C4EF66A06F00F06751C6B
:107F9000514EB6FBF5F65E43066002E04E4E0660BB
:107FA00000BF00BF444E766806F0F00109094C4E50
:107FB000725C0668D64046603F4E766806F4E06123
:107FC000090A474E725C4668D64086603A4E76682B
:107FD00006F46051C90A424E725C4668D640C660DB
:107FE000354E766806F44041890B3E4E725CC66899
:107FF000B6FBF2F6066170BD29B12F4A5269024301
:108000002D4B5A6104E02C4A526982432A4B5A6133
:10801000704729B1284A92690243274B9A6104E0CC
:10802000254A92698243244B9A61704729B1224ABA
:10803000D2690243204BDA6104E01F4AD2698243CD
:108040001D4BDA61704729B11B4AD26802431A4BB3
:10805000DA6004E0184AD2688243174BDA6070474E
:1080600029B1154A12690243134B1A6104E0124AFE
:1080700012698243104B1A617047164940390860F3
:1080800070471049C86470470B49C87170470A4867
:10809000406A40F0807008494862704701460020FD
:1080A000054A92680A4201D0012000E00020704792
:1080B0000149887270470000001002400000FFF87C
:1080C000FFFFF6FE00004242F0FFFEFFD8004242F2
:1080D000201002408004424200127A0000093D0054
:1080E00090010020A001002010B50446FE48844203
:1080F00008D10121C014FFF7A6FF0021E014FFF70B
:10810000A2FFC4E0B4F1804F08D101210846FFF777
:10811000A7FF00210120FFF7A3FFB8E0F348844246
:1081200008D101210220FFF79BFF00210220FFF769
:1081300097FFACE0EE48844208D101210420FFF70C
:108140008FFF00210420FFF78BFFA0E0E948844265
:1081500008D101210820FFF783FF00210820FFF745
:108160007FFF94E0E448844208D101211020FFF70A
:1081700077FF00211020FFF773FF88E0DF4884427B
:1081800008D101212020FFF76BFF00212020FFF7FD
:1081900067FF7CE0DA48844208D101214014FFF7F0
:1081A00052FF00216014FFF74EFF70E0D548844273
:1081B00009D10121C804FFF746FF00214FF4002038
:1081C000FFF741FF63E0D048844209D1012108054F
:1081D000FFF739FF00214FF48010FFF734FF56E01E
:1081E000CA48844209D101214805FFF72CFF00212C
:1081F0004FF40010FFF727FF49E0C548844208D13B
:1082000001214020FFF72CFF00214020FFF728FF2D
:108210003DE0C048844208D101218020FFF720FFC3
:1082200000218020FFF71CFF31E0BB48844208D1C9
:1082300001218015FFF714FF0021A015FFF710FFA3
:1082400025E0B648844209D101210804FFF7FBFE6E
:1082500000214FF48030FFF7F6FE18E0B04884426A
:1082600009D101214804FFF7EEFE00214FF4003050
:10827000FFF7E9FE0BE0AB48844208D101218804F6
:10828000FFF7E1FE00214FF48020FFF7DCFE10BD78
:1082900000220288944B98420ED0994B98420BD002
:1082A000B0F1804F08D0914B984205D0904B984246
:1082B00002D0904B984204D14FF68F731A404B88EE
:1082C0001A438D4B984207D08C4B984204D04FF6FE
:1082D000FF431A40CB881A4302808B8883850B8822
:1082E0000385814B98420BD0854B984208D08B4B2D
:1082F000984205D08A4B984202D08A4B984201D1CD
:108300000B7A038601238382704770B50024002214
:108310000023058C4FF6FE7635400584028C838859
:10832000048B4FF68F752C40B51E2C400D882C43C6
:10833000751E2A400D892A434D882A436A4DA8425A
:108340000BD06F4DA84208D0744DA84205D0744D93
:10835000A84202D0734DA84213D14FF6F7752A40B8
:108360004D892A434FF6FB752A408D882A434FF6E4
:10837000FF652B404FF6FF552B408D892B43CD8950
:108380002B4383800483CD888586028470BD70B5BD
:10839000002400220023058C4FF6EF76354005843B
:1083A000028C8388048B48F6FF752C404FF6FF45FE
:1083B0002C400D882D0644EA15444FF6DF752A40FF
:1083C0000D892D0542EA15424D882D0542EA1542D8
:1083D000454DA84202D04A4DA8421BD14FF67F75A9
:1083E0002A404D892D0542EA15424FF6BF752A40B5
:1083F0008D882D0542EA15424FF6FF352B404FF28E
:10840000FF752B408D89AD0443EA1543CD89AD043A
:1084100043EA154383800483CD880587028470BDB9
:1084200070B5002400220023058C4FF6FF6635400E
:108430000584028C8388848B4FF68F752C404FF611
:10844000FC752C400D882C434FF6FF552A400D89B2
:108450002D0642EA15424D882D0642EA1542224D6C
:10846000A84202D0264DA8421BD14FF2FF752A40E8
:108470004D892D0642EA15424FF6FF352A408D8878
:108480002D0642EA15424EF6FF752B404DF6FF755C
:108490002B408D892D0543EA1543CD892D0543EAEF
:1084A000154383808483CD888587028470BD70B531
:1084B000002200230024058C4EF6FF76354005840B
:1084C000038C8488828B48F6FF752A404FF6FF455F
:1084D0002A400D882D0642EA15424DF6FF752B40C5
:1084E0000D892D0720E00000002C01400004004011
:1084F00000080040000C0040001000400014004044
:1085000000340140004C0140005001400054014043
:1085100000180040001C00400020004000400140C6
:10852000004401400048014043EA15434D882D07AF
:1085300043EA1543F84DA84202D0F84DA84206D1AF
:108540004BF6FF752C408D89AD0544EA15448480B7
:108550008283CD88A0F84050038470BD828B4FF297
:10856000FF331A408283828B0B0642EA13428283D6
:108570007047F0B50C461546002200210026078CF6
:108580004EF6FF7C07EA0C070784828B018C2707D5
:108590003E0C40F6FF473A402F0642EA17421F07BB
:1085A00042EA1742DC4FB8420ED0DC4FB8420BD043
:1085B000B0F1804F08D0DA4FB84205D0D94FB84259
:1085C00002D0D94FB84206D14DF6FF77394046F474
:1085D0008057394305E047F6FF57394044F4805748
:1085E000394382830184F0BD828B4FF6F3731A40C6
:1085F0008283828B0A4382837047F0B50C4615460E
:10860000002200210026078C4FF6FF6C07EA0C07BA
:108610000784828B018C27063E0C4FF60C773A407C
:108620001F0545EA17473A43BB4FB8420ED0BB4F30
:10863000B8420BD0B0F1804F08D0B94FB84205D046
:10864000B84FB84202D0B84FB84206D14FF6FF57E4
:10865000394046F48077394305E04FF2FF573940FF
:1086600044F48077394382830184F0BD028B4FF25A
:10867000FF331A400283028B0B0642EA1342028345
:108680007047F0B50C461546002200210026078CE5
:108690004FF6EF7C07EA0C070784028B018C270555
:1086A0003E0C40F6FF473A401F0742EA17422F06AA
:1086B00042EA1742984FB8420ED0984FB8420BD0BA
:1086C000B0F1804F08D0964FB84205D0954FB842D0
:1086D00002D0954FB84206D14FF6DF77394046F0C9
:1086E0001007394305E04FF65F77394044F0100733
:1086F000394302830184F0BD028B4FF6F3731A40B5
:108700000283028B0A4302837047F0B50C4615467C
:1087100000220021068C4FF6FE773E400684028B35
:10872000018C4FF60C7632401E0545EA1646324360
:10873000794EB0420ED0794EB0420BD0B0F1804F9E
:1087400008D0774EB04205D0764EB04202D0764E79
:10875000B04206D14FF6FD76314044F00106314378
:1087600005E04FF6F576314044F0010631430283CF
:108770000184F0BD70B505460C46674885420ED0B1
:10878000664885420BD0B5F1804F08D064488542D9
:1087900005D06448854202D06348854200D100E09C
:1087A00000BF208850B92389A28861882846FFF736
:1087B000ACFFE1882846FFF79FFF25E020880428CA
:1087C0000AD12389A28861882846FFF75AFFE188E9
:1087D0002846FFF74BFF17E0208808280AD1238995
:1087E000A28861882846FFF708FFE1882846FFF73E
:1087F000FBFE09E02389A28861882846FFF7B9FEBD
:10880000E1882846FFF7AAFE70BD2DE9F041054634
:108810000C4600260127608808B9022600E00026E1
:10882000A088012801D1022700E001272088A0B9F3
:108830002389A28861882846FFF767FFE1882846D8
:10884000FFF75AFF23893A4631462846FFF719FFBA
:10885000E1882846FFF70AFF13E02389A288618890
:108860002846FFF70EFFE1882846FFF7FFFE238921
:108870003A4631462846FFF748FFE1882846FFF789
:108880003BFFBDE8F0810A884B881A438B881A4366
:10889000CB881A430B891A434B891A438B891A4395
:1088A000A0F8442070474FF6FF71818000210180BD
:1088B000C180418001727047002101804180818028
:1088C000C180018141818181C18170470021018086
:1088D0004180012181800021C180018170470021F8
:1088E000018041808180C180018141818181704707
:1088F00021B1028842F00102028004E002884FF6B2
:10890000FE731A400280704781B1B0F8442042F4EF
:108910000042A0F844200FE0002C01400034014048
:108920000004004000080040000C0040B0F8442063
:10893000C2F30E02A0F84420704710B51AB1838923
:108940000B43838104E08389CC43A4B22340838119
:1089500010BD8182704741EA0203A0F84830704799
:1089600010B51AB183890B43838104E08389CC431A
:10897000A4B22340838110BD01894FF6F8721140E3
:10898000018170470A46002101894FF68F73194013
:1089900011430181704730B504460D4629462046F3
:1089A000FFF7F0FF208940F00700208130BD2DE95E
:1089B000F04104460D4616461F46602D06D13B4643
:1089C000012231462046FFF75CFE05E03B460122CE
:1089D00031462046FFF799FE29462046FFF7D2FF91
:1089E000208940F007002081BDE8F08130B50C46B9
:1089F00000210189C9B21D0642EA154525432943D4
:108A0000018130BD2DE9F04105460E4617469846D6
:108A1000002443463A4631462846FFF7E7FF2C89B3
:108A20004FF6F870044044F007044FF68F7004408E
:108A300044F070042C81BDE8F081F0B504460D4689
:108A400016461F463B46324629462046FFF7CEFFD4
:108A5000208940F480402081F0BD018582827047EA
:108A60000A46002101884FF68F7319401143018097
:108A70007047F0B50C4615461E4600210022002323
:108A80000189028B038C4FF6F877394021434FF66A
:108A9000FC473A4040F201173A434FF6DD773B403E
:108AA000370545EA17473B43018102830384F0BD44
:108AB0000A460021018B4FF68F7319401143018341
:108AC00070470A460021018B48F6FF7319401306D0
:108AD00041EA1341018370470A460021818B4FF61A
:108AE0008F7319401143818370470A460021818B9F
:108AF00048F6FF731940130641EA1341818370471A
:108B000021B1028842F08002028004E002884FF620
:108B10007F731A400280704721B1828842F00402BC
:108B2000828004E082884FF6FB731A40828070478F
:108B300021B1828842F00802828004E082884FF6E8
:108B4000F7731A408280704721B1828842F0010297
:108B5000828004E082884FF6FE731A40828070475C
:108B60000A460021018B4FF6F77319401143018328
:108B700070470A460021018B4FF2FF73194013061C
:108B800041EA1341018370470A460021818B4FF669
:108B9000F77319401143818370470A460021818B86
:108BA0004FF2FF731940130641EA13418183704766
:108BB0000A460021018B4FF6FB73194011430183D4
:108BC00070470A460021018B4FF6FF331940130608
:108BD00041EA1341018370470A460021818B4FF619
:108BE000FB7319401143818370470A460021818B32
:108BF0004FF6FF331940130641EA13418183704752
:108C00000A460021018B4FF67F73194011430183FF
:108C100070470A460021018BC1F30E01130641EA99
:108C20001341018370470A460021818B4FF67F7301
:108C300019401143818370470A460021818BC1F39B
:108C40000E01130641EA1341818370470A46002151
:108C5000018C4FF6FD7319401143018470470A4699
:108C60000021018C4FF6F7731940114301847047BE
:108C70000A460021018C4FF6DF731940130541EAC3
:108C80001341018470470A460021018C4FF67F731F
:108C90001940130541EA1341018470470A46002137
:108CA000018C4FF6FF531940130641EA134101842A
:108CB00070470A460021018C4FF2FF7319401306DA
:108CC00041EA1341018470470A460021018C4DF6A8
:108CD000FF731940130741EA13410184704730B50F
:108CE000002301248C40A3B2048CDD43ADB22C40A0
:108CF0000484048C02FA01F5ADB22C43048430BD27
:108D000030B5002304248C40A3B2048CDD43ADB203
:108D10002C400484048C02FA01F5ADB22C43048487
:108D200030BD70B5034600200024184618300125D8
:108D30008D40ACB21D8CE643B6B235401D8409B1FE
:108D4000082909D100EB6100056825F07005056070
:108D50000568154305600CE00D1FADB200EB650022
:108D6000056825F4E04505600568160645EA1645E0
:108D7000056070BD21B1028842F00202028004E069
:108D800002884FF6FD731A400280704721B10288B5
:108D900042F00402028004E002884FF6FB731A409E
:108DA0000280704721B1828842F08002828004E014
:108DB00082884FF67F731A408280704702884FF690
:108DC000F7731A40028002880A4302807047828843
:108DD0004FF68F731A40828082880A4382807047E0
:108DE00002894FF6F8731A40028102890A43028110
:108DF000704702894FF67F731A40028102890A4345
:108E000002817047818470478185704781867047F1
:108E10000187704781877047A0F84010704702882B
:108E20004FF6FF431A40028002880A4302807047CF
:108E30000146888E70470146088F70470146888F2B
:108E400070470146B1F8400070470146888C704772
:108E50000146088D704702460020138A0B4201D05C
:108E6000012000E000207047CA430282704730B5FD
:108E70000246002000230024158A05EA0103958993
:108E800005EA010413B10CB1012000E0002030BD5F
:108E9000CA4302827047000010B50446FC48844271
:108EA00009D101218803FFF7CEF800214FF480405B
:108EB000FFF7C9F832E0F748844209D1012148049C
:108EC000FFF7CEF800214FF40030FFF7C9F825E096
:108ED000F148844209D101218804FFF7C1F800213B
:108EE0004FF48020FFF7BCF818E0EC48844209D129
:108EF0000121C804FFF7B4F800214FF40020FFF768
:108F0000AFF80BE0E648844208D101210805FFF7DD
:108F1000A7F800214FF48010FFF7A2F810BD2DE94B
:108F2000F04786B005460E460024A24600BFA14683
:108F30000027B08900B100BF2F462C8A4CF6FF7085
:108F40000440F08804432C82AC894EF6F3100440B0
:108F5000B08831890843718908430443AC81AC8AE5
:108F60004FF6FF400440B0890443AC8201A8FEF7ED
:108F7000E4FFC748874202D1DDF810A001E0DDF828
:108F80000CA0A88910F4004F08D00AEBCA0000EB2F
:108F90000A1031684900B0FBF1F807E00AEBCA009B
:108FA00000EB0A1031688900B0FBF1F86420B8FBCF
:108FB000F0F004012009642101FB1089A88910F454
:108FC000004F08D0322000EBC900B0FBF1F000F0F8
:108FD0000700044308E0322000EB09106421B0FBD5
:108FE000F1F000F00F0004432C8106B0BDE8F087DB
:108FF0004FF41651016000218180C18001810C2154
:10900000418100218181704710B502460020108AFD
:109010004FF2FF0318400B884C8823438C8823436E
:10902000CC8823431843108210BD00210180418069
:109030008180C180704721B1828942F400528281CF
:1090400004E082894DF6FF731A4082817047F0B5C3
:1090500003460024002600250020A1F510676A3F82
:1090600000D100BF1846C1F3421401F01F060127CA
:1090700007FA06F5012C01D10C3004E0022C01D1D5
:10908000103000E014301AB107682F43076002E087
:109090000768AF430760F0BD10B51AB1838A0B4370
:1090A000838204E0838ACC43A4B22340838210BD30
:1090B000028A4FF6F0731A400282028A0A43028241
:1090C000704782894FF2FF731A40828182890A4376
:1090D0008281704721B1828942F00202828104E0DC
:1090E00082894FF6FD731A4082817047028A4FF6DB
:1090F000DF731A400282028A0A430282704721B15A
:10910000028A42F48042028204E0028A4BF6FF7334
:109110001A4002827047C1F30802828070470146FC
:109120008888C0F308007047818941F0010181817E
:109130007047028BD2B20283028B42EA0122028381
:109140007047028B02F47F420283028B0A43028340
:10915000704721B1828A42F02002828204E0828A32
:109160004FF6DF731A408282704721B1828A42F043
:109170001002828204E0828A4FF6EF731A408282E4
:10918000704721B1828A42F00802828204E0828A1A
:109190004FF6F7731A408282704721B1828942F4F8
:1091A0000042828103E08289C2F30E02828170470D
:1091B00021B1828A42F40062828204E0828A4FF204
:1091C000FF731A4082827047828A4FF6FB731A40FF
:1091D0008282828A0A438282704721B1828A42F067
:1091E0000202828204E0828A4FF6FD731A40828274
:1091F000704702460020B1F5007F00D100BF138800
:109200000B4201D0012000E00020704701F4007201
:10921000B2F5007F00D100BFCA430280704770B52D
:1092200002460024002300250020A1F510666A3EB6
:1092300000D100BFC1F3421501F01F03012606FA59
:1092400003F3012D02D19689334006E0022D02D1AD
:10925000168A334001E0968A33400C12012606FA42
:1092600004F41688344013B10CB1012000E0002052
:1092700070BD10B500220023A1F510646A3C00D136
:1092800000BF0A1201249440A3B2DC43048010BD45
:10929000003801400044004000480040004C0040BD
:1092A0000050004010B501210807FEF7D9FE00214B
:1092B0004FF08050FEF7D4FE10BD29490862704778
:1092C00027490861704701460020264A106820F0AF
:1092D000E00008431060704723490860704710B5EC
:1092E000024600201F4B186820F00300104318604E
:1092F0001E4B1B6843F004031C4C2360012901D161
:1093000030BF00E020BF194B1B6823F00403174C4B
:10931000236010BD1348006840F004001149086044
:109320000846006840F0020008601048006840F0FD
:1093300004000E49086000BF00BF30BF70470146FF
:109340000020084A52680A4201D0012000E00020B3
:1093500070470449096841EA8001024A1160704778
:1093600000000E4200700040A0000E4210ED00E030
:109370000948804709480047FEE7FEE7FEE7FEE7A9
:10938000FEE7FEE7FEE7FEE7FEE7FEE704480549E5
:10939000054A064B7047000039700008214100085B
:1093A000780200207808002078040020780400204B
:1093B000704770477047754600F028F8AE460500C4
:1093C0006946534620F00700854618B020B5FFF7E0
:1093D000DDFFBDE820404FF000064FF000074FF0E2
:1093E00000084FF0000B21F00701AC46ACE8C009C3
:1093F000ACE8C009ACE8C009ACE8C0098D467047CC
:109400000446AFF300802046FAF7D3FE00487047C9
:10941000140200200048704718020020014918205B
:10942000ABBEFEE726000200704710B5FFF7F2FF63
:109430004FF00001016010BD5894000800010020A9
:10944000A40000005C410008FC940008A401002076
:10945000D406000078410008000000000000000071
:109460000000000000000000303132333435363760
:1094700021F0222000030504020111121314151615
:10948000171819103A3B3C3D3E3F1A1BFFFF0000E6
:1094900000000000000000000000000000000000CC
:1094A00000000000000000000000000000000000BC
:1094B00000000000000000000000000000000000AC
:1094C000000000000000000000000000F0000000AC
:1094D0000000000000366E010000000000000000E7
:1094E000010203040607080900000000010203044A
:0C94F00001020304060708090204060834
:04000005080041218D
:00000001FF
