:03000000020B8E62
:0C0B8E00787FE4F6D8FD758175020BD568
:100C1A00043E00000000010900014C40014B0C0495
:100C2A00150000000004110000000004620000002A
:100C3A0000045900000000044700000000044E00B0
:100C4A00000000020F000002210001010A00014217
:100C5A000002670000010808014D000169000554FF
:050C6A00000000000085
:100CB5008E718F728B738A748975AF051DEF6026EF
:100CC5000572E572AE717002057114F5828E83E4CA
:100CD50093FFAB730575E575AA747002057414F975
:070CE500EF12094880D42240
:10002600E4FDFCC3ED9FEC9E50070DBD00010C8066
:01003600F2D7
:0100370022A6
:100D1D008F828E83E4F541F540F53FF53EAF82AE0F
:100D2D0083E4FCFDAB41AA40A93FA83EC3120A775C
:080D3D00500543BD1080E622C1
:100E0300E4FDFCC3ED9FEC9E50070DBD00010C807B
:010E1300F2EC
:010E140022BB
:10000300758E5090FE917402F0A37410F075BD5F6D
:0700130090FEA07420F02212
:100DB000E490FE80F0758901758DF5758B9543A8DB
:0E0DC00008438840758C97758AD643881022A8
:100CEC0090FF10E054F04408F090FF02E054F04400
:100CFC0002F0D28490FFA07420F0A37404F075CCA1
:100D0C000675CEFF75CDDD759E0275981043A81043
:010D1C0022B4
:100DEC0043B40343B4807F147E0012002675B50112
:070DFC0090FE9B744FF022F2
:100D910090FF00E054F04408F0E0540F4430F0902C
:0F0DA100FF03E0540F4430F0E054F04408F02218
:0B0E15008F99E59830E1FB5398FD2217
:100C70008FB543B440E5B430E5FB53B4DF7F647E09
:100C800000120026E4FBFAF943B440E5B430E5FB7A
:100C900053B4DFE5B62BFBE5B73AFA7F147E0012BA
:100CA000002609B910E275B501A9027F647E001221
:040CB0000026AF016A
:010CB400221D
:100AAE007B007A0079547D057F007E2F120CB5E411
:100ABE0085540EF50DF50CF50BAF0EAE0DAD0CAC61
:100ACE000B7808120A9B8F0E8E0D8D0C8C0BE4FC8E
:100ADE00FDFEE50E2555F50EEE350DF50DED350C3D
:100AEE00F50CEC350BF50BAF0EAE0DAD0CFCE47B3F
:100AFE00E87A03F9F812095A8F0E8E0D8D0C8C0BB5
:100B0E00E47F307E75FDFCAB0EAA0DA90CA80BC3BD
:100B1E00120A7740107FC07EC67D2D7C00A80BD3B5
:100B2E00120A77400BE4750E60750DEAF50CF50BA5
:100B3E00855666E56670028005E566B4FE03756649
:100B4E00FF752500855726E526752600F525E558FF
:100B5E002526F526E43525F5254526600BD3E52615
:100B6E009408E52594074006752500752605E526AB
:100B7E00AE257802C333CE33CED8F9F5268E252294
:10003E00120003120D91D286120DB0120CEC120D9D
:10004E00EC75BBAA90FEA774FFF053BBF7D2AF7F3F
:10005E00C87E00120D1D7F07120C708F2485245F41
:10006E00C2AF120AAED2AFE4F56AE4F565F564F5F7
:10007E0063F562FB43B440E5B430E5FB53B4DFAF48
:10008E00B6AEB7E4FCFDE5652FF565E5643EF564B7
:10009E00ED3563F563EC3562F5620BBB80D67F9070
:1000AE007E01120D1DAF65AE64AD63AC62780B12AE
:1000BE000A88AB07EBD3940C400BEB948D5006E5FE
:1000CE006A94145009056AE56AD39450409CC2861E
:1000DE007F2C7E01120D1DE4F565F564F563F56266
:1000EE00FBE4F560F56143B440E5B430E5FB53B491
:1000FE00DF85B75D85B65EE4FCFDE565255EF565DD
:10010E00E564355DF564ED3563F563EC3562F562F6
:10011E000561E56170020560B400CBE560B420C6F0
:10012E0043BD100BBB08BAAF65AE64AD63AC62786D
:10013E0010120A888E528F53E4F565F564F563F557
:10014E006243B440E5B430E5FB53B4DF85B75D855B
:10015E00B65E0510E5107002050FE4FCFDE56525A1
:10016E005EF565E564355DF564ED3563F563EC3597
:10017E0062F562D3E55E9553E55D9552400EE55E00
:10018E009553F55EE55D9552F55D800DC3E553958E
:10019E005EF55EE552955DF55DE4FCFDE518255EC8
:1001AE00F518E517355DF517ED3516F516EC351521
:1001BE00F515C3E5109480E50F9425408443BD10DA
:1001CE00E4F50FF510054DE5512565F551E5503572
:1001DE0064F550E54F3563F54FE54E3562F54EE566
:1001EE004DC3940A4038E4F54DAF51AE50AD4FAC0F
:1001FE004EFB7A777901F81209E58F518E508D4FAB
:10020E008C4EEF2553F553EE3552F552C313F5527E
:10021E00E55313F553E4F551F550F54FF54EE5085A
:10022E00C39408500405088040E5684567703A7F1E
:10023E0007120C708F24E55F2402FFE433FED3E532
:10024E00249FEE6480F87480985018E5242402FFF1
:10025E00E433FED3E55F9FEE6480F874809850031C
:10026E00855F2485245FE4F508E4FFFEFDFCAB14F6
:10027E00AA13A912A811C3120A77703DE518248893
:10028E00F514E5173413F513E43516F512E43515A8
:10029E00F511E522452170217F407E427D0FFCAB9A
:1002AE0014AA13A912A811D3120A77400C75144080
:1002BE0075134275120F751100E509701585184AF0
:1002CE00851749851648851547752001F51FF51EBA
:1002DE00F51DE5182520FFE517351FFEE516351E21
:1002EE00FDE515351DFCAB4AAA49A948A847C3121E
:1002FE000A774003020593E54A2520FFE549351F9D
:10030E00FEE548351EFDE547351DFCAB18AA17A9BD
:10031E0016A815C3120A7740030205930509E55C7A
:10032E002518F55CE55B3517F55BE55A3516F55A7C
:10033E00E5593515F559AF09AB07E4FAF9F8AF5C95
:10034E00AE5BAD5AAC591209E58F4A8E498D488C79
:10035E00477803120A888F208E1F8D1E8C1DE47F16
:10036E00207E4EFDFCAB20AA1FA91EA81DC3120A9B
:10037E0077500BE4752020751F4EF51EF51D7F80FE
:10038E007E387D017C00AB20AA1FA91EA81DD312AA
:10039E000A77400C752080751F38751E01751D007B
:1003AE00AF4AAE49AD48AC47AB14AA13A912A81177
:1003BE00D3120A77404CE514954AF565E513954935
:1003CE00F564E5129548F563E5119547F5627F8072
:1003DE007E387D017C00AB65AA64A963F8D3120A4E
:1003EE00774005754B06801DE47F407E9CFDFCAB7F
:1003FE0065AA64A963A862D3120A774005754B09F2
:10040E008003754B0CE509C3954B50030204A4AF52
:10041E0014AE13AD12AC11AB4AAA49A948A84712A3
:10042E000A775072E54C9410500302059EE54BD3AB
:10043E009409500F854A1485491385481285471132
:10044E00020593E54A24A0FFE549340FFEE4354842
:10045E00FDE43547FCAB14AA13A912A811D3120A56
:10046E00774030E514254AF514E5133549F513E5C3
:10047E00123548F512E5113547F511AF14AE13AD2F
:10048E0012FCE47B02FAF9F81209E58F148E138D33
:10049E00128C11020593E509C3954C500302059E7B
:1004AE00E51424A0FFE513340FFEE43512FDE43508
:1004BE0011FCAB4AAA49A948A847D3120A775003A0
:1004CE0002058AE54A9514F565E5499513F564E547
:1004DE00489512F563E5479511F5627F407E547D90
:1004EE00897C00A847C3120A77400302058A7F4021
:1004FE007E427D0F7C00AB65AA64A963A862C3121D
:10050E000A775078E54C9410400280407FC07E27D9
:10051E007D097C00AB65AA64A963A862D3120A7731
:10052E004005754C10801E7FE07E937D047C00ABF1
:10053E0065AA64A963A862D3120A774005754C0AAE
:10054E008003754C06E509C3954C4030E514254AE9
:10055E00F514E5133549F513E5123548F512E51195
:10056E003547F511AF14AE13AD12FCE47B02FAF968
:10057E00F81209E58F148E138D128C11E509C395AF
:10058E004C400D8000E4F509F55CF55BF55AF55924
:10059E00E542D3940040611542E5462470FFE545DF
:1005AE003417FEE43544FDE43543FCAB14AA13A91D
:1005BE0012A811D3120A7750030206E9E5462498D1
:1005CE00FFE545343AFEE43544FDE43543FCAB1813
:1005DE00AA17A916A815C3120A7740030206E9E561
:1005EE00462470F514E5453417F513E43544F51239
:1005FE00E43543F5110206E9D3E5229400E5219492
:10060E00005003020698E522152270021521D3E54B
:10061E00229400E5219400406A7F407E547D897CBF
:10062E0000AB14AA13A912A811D3120A77400E75A3
:10063E000E00750D35750C0C750B00804DE51425EF
:10064E000EF565E513350DF564E512350CF563E52C
:10065E0011350BF5627F807E967D987C00AB65AA86
:10066E0064A963F8D3120A77402074809514F50EAE
:10067E0074969513F50D74989512F50CE49511F585
:10068E000B8007C2AF120AAED2AFE514250EFFE5FE
:10069E0013350DFEE512350CFDE511350BFCAB18CF
:1006AE00AA17A916A815D3120A77402FE524D395B9
:1006BE0066400BD3E5229400E5219400401DE568C9
:1006CE004567700C85144685134585124485114384
:1006DE00756700756801D286754C0685181C8517DE
:1006EE001B85161A851519E4F565F564F563F56233
:1006FE00F518F517F516F515D3E5689400E567942A
:10070E0000500302014F0568E56870020567D39536
:10071E0026E5679525500302014FE4F567F568C29B
:10072E00867FFA7E00120D1DE4F551F550F54FF55A
:10073E004EF54D754C40754202750806F509F55C8F
:09074E00F55BF55AF55902014F63
:03001B00020DCE05
:100DCE00C0E0C0D0E5412401F541E43540F540E4F2
:0E0DDE00353FF53FE4353EF53ED0D0D0E03253
:030023000207577A
:10075700C0E0C0F0C083C082C0D075D000C000C068
:0D07670001C002C003C004C005C006C007E9
:10077400E59820E00302092DE569D394004009308F
:100784008D06756900752800758C97758AD6C28D9B
:1007940074282569F8A6990569E52864FA600302B6
:1007A40008B4E56964036003020928752301E52898
:1007B4002523F5232529F5237FC87E00120E03E5A2
:1007C4002A652360030208B2E52964026003020873
:1007D4008C752F217BE87A03F9F8AF0EAE0DAD0CC2
:1007E400AC0B1209E5AD07AC068C308D3185663251
:1007F400E526AE257802CEC313CE13D8F9AC068C09
:1008040033F534852435E552C4F854F0C8E553C4AF
:10081400540F48F536AF14AE13AD12AC1178101264
:100824000A888F37AF14AE13AD12AC117808120AD0
:10083400888F38AF1CAE1BAD1AAC197810120A8819
:100844008F39AF1CAE1BAD1AAC197808120A888F09
:100854003AE567F53B85683C753D01757000742F7A
:100864002570F8E6253DF53D0570E570B40EEF758D
:100874007000742F2570F8E6FF120E150570E570F0
:10088400C3940F40ED020925E529B4421FE5226413
:100894000145217015F52175225A750EC0750DC6D6
:1008A400750C2DF50B7F42120E15807580738071C7
:1008B400E52864FD706BE56964077068752301F5CC
:1008C4007074282570F8E62523F5230570E570B4C7
:1008D40006EFE52E652370477FC8FE120E037FFDE9
:1008E400120E157569007F007E2F120D6C7F107E2D
:1008F40027120E0375700074292570F8E6FFE57061
:100904002400FDE4342FFC120D457F647E00120E9A
:10091400030570E570C3940540DD120AAE800580BE
:09092400007569005398FED2AF82
:10092D00D007D006D005D004D003D002D001D0001E
:0B093D00D0D0D082D083D0F0D0E032C8
:03003B0002001AA6
:01001A0032B3
:100D6C0053BBF7C280E5BB20E3F6D280C2AF75FD62
:100D7C00F075FC0F8EFA8FF975FDD275FC2D75FD93
:050D8C00E175FC1E22D0
:100D450053BBF7C280E5BB20E3F6D280C2AF8FFB71
:100D550075FDF075FC0F8CFA8DF975FDB475FC4BBE
:070D650075FDE175FC1E2283
:100B9A0002003EE493A3F8E493A34003F68001F233
:100BAA0008DFF48029E493A3F85407240CC8C3335C
:100BBA00C4540F4420C8834004F456800146F6DF2B
:100BCA00E4800B0102040810204080900C1AE47E95
:100BDA00019360BCA3FF543F30E509541FFEE49320
:100BEA00A360010ECF54C025E060A840B8E493A3E7
:100BFA00FAE493A3F8E493A3C8C582C8CAC583CA12
:100C0A00F0A3C8C582C8CAC583CADFE9DEE780BEC9
:010C6F000084
:10094800BB010689828A83F0225002F722BBFE018E
:02095800F32288
:10095A00E88FF0A4CC8BF0A42CFCE98EF0A42CFC3C
:10096A008AF0EDA42CFCEA8EF0A4CDA8F08BF0A4BA
:10097A002DCC3825F0FDE98FF0A42CCD35F0FCEB19
:10098A008EF0A4FEA9F0EB8FF0A4CFC5F02ECD39DE
:0F099A00FEE43CFCEAA42DCE35F0FDE43CFC224B
:1009A90075F008758200EF2FFFEE33FECD33CDCC05
:1009B90033CCC58233C5829BED9AEC99E582984088
:1009C9000CF582EE9BFEED9AFDEC99FC0FD5F0D665
:1009D900E4CEFBE4CDFAE4CCF9A88222B800C1B98F
:1009E9000059BA002DEC8BF084CFCECDFCE5F0CBCD
:1009F900F97818EF2FFFEE33FEED33FDEC33FCEB06
:100A090033FB10D703994004EB99FB0FD8E5E4F9C0
:100A1900FA227818EF2FFFEE33FEED33FDEC33FCAD
:100A2900C933C910D7059BE99A4007EC9BFCE99AA1
:100A3900F90FD8E0E4C9FAE4CCFB2275F010EF2FE6
:100A4900FFEE33FEED33FDCC33CCC833C810D707E6
:100A59009BEC9AE899400AED9BFDEC9AFCE899F821
:0E0A69000FD5F0DAE4CDFBE4CCFAE4C8F922B4
:100A7700EB9FF5F0EA9E42F0E99D42F0E89C45F0D5
:010A8700224C
:100A8800E8600FECC313FCED13FDEE13FEEF13FF4C
:030A9800D8F12270
:100A9B00E8600FEFC333FFEE33FEED33FDEC33FCB9
:030AAB00D8F1225D
:00000001FF
