:020000040800F2
:10000000A00E0020A9330008B1330008B333000864
:10001000B5330008B7330008B9330008000000000A
:10002000000000000000000000000000BB330008DA
:10003000BD33000800000000BF330008C1330008D2
:10004000C3330008C3330008C3330008C3330008B8
:10005000C3330008C3330008C3330008C3330008A8
:10006000C3330008C3330008C3330008C333000898
:10007000C3330008C3330008C3330008C333000888
:10008000C3330008C3330008C33300080000000076
:10009000000000000000000000000000C333000862
:1000A000C3330008C3330008C3330008C333000858
:1000B000950D0008C3330008C3330008C33300089C
:1000C000C3330008C3330008C3330008C333000838
:1000D000C333000807050008C3330008C333000812
:1000E000D50E0008C3330008C33300080000000029
:1000F0000000000000000000000000000000000000
:1001000000000000000000000000000000000000EF
:100110000000000000000000610D00087B0D0008D9
:1001200000F002F800F063F80AA090E8000C8244A6
:100130008344AAF10107DA4501D100F058F8AFF283
:10014000090EBAE80F0013F0010F18BFFB1A43F0B5
:100150000103184784360000A436000010F8013B64
:100160000A4413F0030408BF10F8014B1D1108BF27
:1001700010F8015B641E05D010F8016B641E01F8D5
:10018000016BF9D1002D15D010F8014B03F00C03D1
:100190000C2BA1EB04040ABF10F8013BA4EB831461
:1001A000A4EB032405F1010314F8016B5B1E01F8B5
:1001B000016BF9D5914238BF10F8013BD1D370479C
:1001C0000023002400250026103A28BF78C1FBD860
:1001D000520728BF30C148BF0B607047642903F045
:1001E0004181002070471FB51FBD10B510BD03F041
:1001F00098FA1146FFF7F7FF00F024FA03F0B6FA79
:1002000003B4FFF7F2FF03BC03F0BAFA00E0401EAC
:100210000028FCD17047202000E0401E0028FCD1BF
:10022000704710B542F2D43402E0641E01F04BFD79
:10023000002CFAD110BD10B5264C02E0641E01F06E
:1002400042FD002CFAD110BD10B5234C02E0641E13
:1002500001F039FD002CFAD110BD10B540F22A741E
:1002600002E0641E01F02FFD002CFAD110BD014602
:1002700000200FE0421CD0B2421ED0B2421CD0B2CD
:10028000421ED0B2421CD0B2421ED0B2421CD0B2EA
:10029000421ED0B20A00A1F1010399B2EAD170471F
:1002A00010B5044603E040F2CF30FFF7E0FF200036
:1002B000A4F101018CB2F6D110BD10B5044603E0E3
:1002C0004FF47A70FFF7ECFF2000A4F101018CB22B
:1002D000F6D110BDA2CC020054FE1B0010B504469E
:1002E0002146FC4802F032FF00BF4021F94802F0ED
:1002F0009BFF0028F9D04021F64802F0A2FF10BD74
:1003000070B505460C462846FFF7E8FF2046FFF784
:10031000E5FF70BD10B554211220FFF7F1FF10BDAD
:1003200070B504460D46642094FBF0F03030C6B240
:100330003046FFF7D3FF642094FBF0F100FB11403F
:100340000A2190FBF1F03030C6B23046FFF7C6FF0D
:100350000A2094FBF0F100FB11403030C6B2304669
:10036000FFF7BCFF012D02D10D20FFF7B7FF70BDD5
:1003700070B50446642094FBF0F03030C5B22846D6
:10038000FFF7ACFF2E20FFF7A9FF642094FBF0F1EC
:1003900000FB11400A2190FBF1F03030C5B2284635
:1003A000FFF79CFF0A2094FBF0F100FB1140303076
:1003B000C5B22846FFF792FF5620FFF78FFF0D20AA
:1003C000FFF78CFF70BD70B50546284603F00DF9A8
:1003D000C6B2002407E0285DFFF780FF0A20FFF780
:1003E0005FFF601CC4B2B442F5DB70BD10B50446BB
:1003F00024B1012C0DD0022C20D114E00120B649EB
:1004000008704FF4FA70FFF74BFF0020B2490870F4
:1004100015E00120B04908706420FFF741FF00207B
:10042000AD4908700BE00120AB4908704FF47A70B9
:10043000FFF736FF0020A849087000E000BF00BFAA
:1004400010BD10B504462146A44802F07FFE00BF4F
:100450004021A24802F0E8FE0028F9D040219F4840
:1004600002F0EFFE10BD70B50546284603F0BDF85A
:10047000C6B2002404E0285DFFF7E3FF601CC4B2AD
:10048000B442F8DB70BD70B50446002094490860A2
:100490009449C1F8B8014FF0010000FA04F54FF09B
:1004A0000300FFF7E4FE002619E015F4000F03D166
:1004B00000208D49086002E001208B4908604FEA66
:1004C00045054FF00100894908604FF00300FFF730
:1004D000CEFE00208349C1F8B801701CC6B2182EA8
:1004E000E3DB0020804908604FF00300FFF7BFFE08
:1004F00001207F49C1F8A0010320FFF7B8FE0020CA
:100500007749086070BD2DE9F0414FF000080821DF
:10051000724802F089FE18B10821704802F091FE7D
:1005200040F225516D4802F095FE002876D040F249
:1005300025516A4802F0B8FE684802F00BFEC4B2CA
:100540006C480078042838D16B48007820B9FA2C20
:100550001ED04FF001081BE067480078022806D142
:1005600066484078A04213D04FF0010810E062487E
:10057000007803280CD1FB27604840783844C7B284
:100580005E4880783844C7B2BC4201D04FF00108C1
:10059000B8F1000F0DD158480078042850DA5748B8
:1005A00055490978445454480078401C5249087011
:1005B00046E000205049087042E04F48007820B9DA
:1005C000352C15D04FF0010812E04B48007809286F
:1005D0000ED10126002505E04848405D3044C6B2F2
:1005E000681CC5B2092DF7DBB44201D04FF00108F9
:1005F000B8F1000F0ED1404800780A2820DA3F48B1
:100600003D49097844543C480078401C3A490870F8
:1006100016E003E000203849087011E040F2244160
:100620002E4802F017FE58B12C480088C4B22B485F
:10063000001D0088C4B240F22441284802F034FE74
:10064000BDE8F0819AB000F0CFFC00F0FEF800F0B9
:10065000D5F900F033F900F0EDFA00F0DAF94FF4D3
:100660007A70FFF71DFE2648FFF7FDFE2548FFF7CD
:10067000FAFEA5E00BE024480068012807D10A2013
:10068000FFF70EFE20480068012800D100E0F2E7E5
:1006900000BF0020FFF7AAFE1C48FFF7E4FE00227F
:1006A00040F225510D4802F0F0FC19A0FFF78BFE37
:1006B00017A0FFF788FE16A0FFF785FE1348FFF787
:1006C00082FE13A0FFF77FFE11A0FFF77CFE00243F
:1006D00068E00000004800400008002000380140A9
:1006E000A001214200802142BC812142B8812142E7
:1006F0000000214201080020020800202C080020F0
:100700009C370008A53700083C012242B03700089A
:100710000D0A00002046FFF7B6FE6420FFF7C0FD7B
:100720000020284908604FF06400FFF7B9FD012060
:100730002549C1F898014FF4FA70FFF7B1FD05E0C3
:100740002248FFF790FE6420FFF7AAFD20480068CA
:100750000128F5D01F480068012801D1FFF746FEA7
:100760001D48006801281BD122461CA101A802F0E7
:100770003BFE01A8FFF777FE01A8FFF724FE18480B
:10078000FFF771FE1648FFF71EFEAFF27C00FFF781
:100790006AFEAFF28400FFF716FE0220FFF726FE86
:1007A000601CC4B2182CB5DBAFF29C00FFF70BFE47
:1007B000AFF2A400FFF707FEAFF2AC00FFF703FEB5
:1007C00058E700009881214200802142C437000888
:1007D000208121421C812142248121422533640051
:1007E000CB37000810B501F085FA012001F009FBB4
:1007F000002001F024FB002001F02FFB4FF480606B
:1008000001F034FB002001F03AFB0121082001F047
:10081000E8FB102000F0D8FD022000F0C1FD00210F
:10082000084601F0F1FA012001F0FAFA00BF392080
:1008300001F0A5FA0028FAD0022001F000FB00BF69
:1008400001F006FB0828FBD110BD10B501F052FAEB
:100850004FF4803001F070FA01F0ADFA0446012C3B
:1008600024D1102000F0B0FD022000F099FD0020FE
:1008700001F0F3FA002001F002FBA00201F0F6FA09
:10088000A104881001F0C0FA012001F0C9FA00BFEC
:10089000392001F074FA0028FAD0022001F0CFFAD2
:1008A00000BF01F0D5FA0828FBD101E0FFF79AFF5D
:1008B00001214FF0C05001F0A1FB10BD08B501218E
:1008C00044F21D0001F08DFB4FF41060ADF8000004
:1008D00002208DF8020010208DF8030069469F4821
:1008E00001F09CF88020ADF8000002208DF8020095
:1008F00028208DF803006946984801F08FF84CF2E3
:100900004000ADF8000002208DF8020010208DF8A4
:1009100003006946924801F081F84FF46070ADF829
:10092000000002208DF8020028208DF8030069469F
:100930008B4801F073F8012002F0DBFC002001F08D
:10094000C1FA002000F047FC002000F048FC4FF402
:100950004040ADF8000002208DF8020028208DF8FC
:10096000030069467F4801F059F8002002F0C1FCFD
:100970004FF48160ADF8000003208DF8020048209C
:100980008DF803006946754801F048F84FF400609F
:10099000ADF8000003208DF8020048208DF8030018
:1009A00069466F4801F03AF84FF48060ADF80000F6
:1009B00003208DF8020018208DF80300694668486E
:1009C00001F02CF84FF48061654801F0D2F84FF443
:1009D0000170ADF8000003208DF8020018208DF89A
:1009E000030069465D4801F019F84FF401715B4856
:1009F00001F0BFF801205C49086008BD10B5002176
:100A00004FF0006000F0A6FB4FF4E06000F06AFBDE
:100A100010BD00B585B04FF4E13000900020ADF876
:100A20000400ADF80600ADF80800ADF80C000C208D
:100A3000ADF80A0069464D4802F08FFA01214B4893
:100A400002F017FB25208DF8100002208DF8110010
:100A50008DF8120001208DF8130004A800F047FB68
:100A60000121434801F0CAFA4FF461400090002090
:100A7000ADF80400ADF80600ADF80800ADF80C00C4
:100A80000C20ADF80A0069463A4802F066FA0121E6
:100A9000384802F0EEFA4FF4165000900020ADF8FE
:100AA0000400ADF80600ADF80800ADF80C000C200D
:100AB000ADF80A006946304802F04FFA01212E488D
:100AC00002F0D7FA4021294802F0BBFB4021294817
:100AD00002F0B7FB4021284802F0B3FB05B000BD8F
:100AE00072B662B6704708B501210D2001F079FA9F
:100AF0000121224801F061F81020ADF800008DF8C6
:100B0000030001208DF802006946154800F086FFB9
:100B10001021134801F02FF80820ADF800004820FC
:100B20008DF8030002208DF8020069460C4800F0A1
:100B300075FF4FF40040ADF8000010208DF8030061
:100B400001208DF802006946044800F067FF4FF469
:100B50000041024801F00FF808BD00000008014004
:100B6000000C0140001001409881214200380140F2
:100B70000100060000440040004800400002300030
:100B80001FB50121102001F039FAB34801F094FAA1
:100B900040F2F310ADF8080045F6BF50ADF8040080
:100BA00001A9AD4801F05CFB0021AB4801F0B4FFA6
:100BB00001221146A84801F0CAFE0121A64801F011
:100BC000ABFE36208DF8000001208DF802008DF874
:100BD0000300684600F08BFA1FBD1FB501212020DD
:100BE00001F00CFA9D4801F067FA6420ADF80800A6
:100BF00045F6BF50ADF8040001A9984801F030FB5C
:100C00000021964801F088FF01221146934801F027
:100C10009EFE0121914801F07FFE37208DF80000F3
:100C200002208DF8020001208DF80300684600F0D4
:100C30005EFA1FBD1FB50121084601F0DFF94FF034
:100C4000804001F039FA1320ADF80800EF20ADF82C
:100C500004000020ADF80A00ADF8060001A94FF02D
:100C6000804001F0FDFA0121880701F055FE1C20AB
:100C70008DF8000005208DF801008DF8020001209C
:100C80008DF80300684600F032FA0122022148077D
:100C900001F05DFE0221480702F018F91FBD1FB5E3
:100CA0000121022001F0AAF96D4801F005FAC820DF
:100CB000ADF8080045F6BF50ADF804000020ADF8CF
:100CC0000600ADF80A0001A9654801F0C9FA002143
:100CD000634801F021FF01221146614801F037FE0F
:100CE00000215F4801F018FE1D208DF8000006204D
:100CF0008DF8020001208DF80300684600F0F7F936
:100D00001FBD1FB50121042001F078F9554801F0FD
:100D1000D3F94120ADF8080041F63F70ADF804006A
:100D20000020ADF80A00ADF8060001A94D4801F019
:100D300097FA01214B4801F0EFFD0221494802F0EA
:100D4000C5F81E208DF8000004208DF801008DF8F4
:100D5000020001208DF80300684600F0C8F91FBDAD
:100D600010B501213C4802F0A0F828B100F0ABFF1B
:100D70000121394802F0AAF810BD10B50121374809
:100D800002F093F828B100F09EFF0121334802F0F1
:100D90009DF810BD10B50221480702F086F830B367
:100DA0000221480702F092F82F48007818B9002075
:100DB0002E4908601BE02C49087800EBD0714910DF
:100DC000A0EB4101012903D101202849086002E07C
:100DD0000020264908602448007800F101002249DB
:100DE000087008460078642801DD0120087010BDF5
:100DF00010B588B000240121022001F0FFF8C720BF
:100E0000ADF818000120ADF814000020ADF81A006C
:100E1000ADF8160005A9124801F022FA6020ADF8DD
:100E200004000120ADF80600ADF80A400020ADF83E
:100E30000C0001A90A4801F092FA0821084801F0C3
:100E4000A4FE0121064801F067FE0121044801F0DB
:100E500063FD08B010BD0000001000400014004009
:100E6000000400400008004000080020AC012142BE
:100E70001FB501210D2001F0B4F84FF48050ADF8FA
:100E80000C0001208DF80E0004208DF80F0003A93E
:100E9000254800F0C3FD0021012000F0D3FE012011
:100EA000019000208DF8080010208DF80900012025
:100EB0008DF80A0001A800F0F3F928208DF8000051
:100EC00000208DF8020001208DF80300684600F034
:100ED0000EF91FBD10B54FF4806000F038FA70B104
:100EE0001248006860F4806010490860081500F03E
:100EF0004EFA0E48006840F480600C4908604FF4D8
:100F0000006000F024FA70B10848006860F40060E6
:100F100006490860C81400F03AFA0448006840F432
:100F200000600249086010BD000C0140000401404F
:100F30000CB50020019000906248006840F48030B9
:100F40006049086000BF5F48006800F4003000900E
:100F50000198401C0190009818B90198B0F5A06F55
:100F6000F1D15848006810F4003F02D001200090F1
:100F700001E0002000900098012830D151484068DD
:100F800050494860084640684860084640684860E4
:100F90000846406820F47C1048600846406840F4E9
:100FA000981048600846006840F08070086000BFF4
:100FB0004448006810F0007FFAD04248406820F0B2
:100FC0000300404948600846406840F0020048601D
:100FD00000BF3C48406800F00C000828F9D10CBD67
:100FE00010B5FFF7A5FF10BD10B53648006840F0FA
:100FF00001003449086008464068334908403149D7
:10100000486008460068314908402E490860084693
:10101000006820F4802008600846406820F4FE0044
:1010200048604FF41F0088600020C862FFF7D8FFB7
:101030004FF000602649086010BD30B50021002047
:10104000002200231F4C646804F00C0121B1042924
:1010500006D0082925D107E01E4C1F4D2C6024E046
:101060001C4C1D4D2C6020E0164C646804F470107C
:10107000144C646804F48032022404EB904022B9DA
:10108000164C4443144D2C600AE00E4CE46A04F004
:101090000F04631C0F4CB4FBF3F444430E4D2C605F
:1010A00003E00C4C0C4D2C6000BF00BF054C646885
:1010B000C4F303140A4D295D074C2468CC40064D47
:1010C0002C6030BD001002400000FFF8FFFFF6FE6C
:1010D00008ED00E000127A000408002000093D003D
:1010E0000808002031490143314A1160704770B54A
:1010F000002100230F22C4780CB32D4C246804F483
:10110000E064C4F5E064210AC1F10403CA404478F4
:1011100004FA03F18478144021430901254C067830
:10112000A155047804F01F050124AC4005786D1129
:101130004FF0E02606EB8505C5F8004109E004788C
:1011400004F01F050124AC401B4D0678761145F8CC
:10115000264070BD194A0A400243154B1B1F1A60F6
:10116000704739B1124A121D12680243104B1B1D01
:101170001A6006E00E4A121D126882430C4B1B1DBA
:101180001A607047042808D14FF0E021096941F046
:1011900004014FF0E022116107E04FF0E0210969FE
:1011A00021F004014FF0E022116170470000FA05C0
:1011B0000CED00E000E400E080E100E080FFFF1FB4
:1011C00010B5012000F041FF002000F03EFF10BDEF
:1011D0002A49086070472949091F08607047274954
:1011E00084310860704701460020254A10884FF678
:1011F0007F4210400843224A108070470146002079
:101200001F4A10884FF68072104008431C4A108015
:10121000704708B500220092194A2C3A0092009AB1
:1012200002440092009A116008BD08B501460020F2
:10123000009013482C3800900098084400900098C3
:10124000008808BD0D489C300068C0B270470C484B
:101250000830008840F001000949083108807047D3
:101260000648A0300068C0B27047054808300088C2
:1012700040F00200024908310880704704860D42A0
:101280002C6C0040002044490860091D0860091DBD
:101290000860091D086041483F49143108607047E3
:1012A00000213D498279002A3AD00A461268036833
:1012B0009A430B461A600A1D126803689A430B1D75
:1012C0001A60027911440A6803681A430A60324AB4
:1012D0000832126803689A432F4B08331A601A1DAC
:1012E000126803689A432C4B0C331A604279102A17
:1012F0000ED11A1F126803681A43274B08331A606D
:101300001A1D126803681A43234B0C331A600DE050
:101310002149427911440A6803681A430A6005E0CA
:10132000027911440A6803689A430A6070470021F1
:10133000016001710C2141710021817170471649D2
:10134000103109680143144A103211607047014698
:101350000020114A143212680A4201D0012000E034
:10136000002070470C491431086070470146002086
:101370000022094B1B6803EA0102074B14331B6868
:101380000B4202D00AB1012000E000207047024960
:10139000143108607047000000040140FFFF0F0097
:1013A00001460020FE4A106800F038000843106033
:1013B0007047FB49096821F00801F94A116011469C
:1013C0000968014311607047F549096821F010016F
:1013D000F34A116011460968014311607047F148F2
:1013E000EF494860F04848607047EE48EC49486073
:1013F000ED4848607047EA48006940F08000E849DD
:1014000008617047E648006940F08000E4490861DF
:1014100070470420E249C96811F0010F01D0012092
:101420000EE0DF49C96811F0040F01D0022007E087
:10143000DB49C96811F0100F01D0032000E004203F
:10144000704700B502460423FFF7E3FF034603E0BD
:10145000FFF7DFFF0346521E012B01D1002AF7D10F
:1014600002B90523184600BD30B5044604254FF4E3
:101470003020FFF7E6FF0546042D17D1C848006964
:1014800040F00200C649086108464461006940F026
:10149000400008614FF43020FFF7D3FF0546C048F5
:1014A000006941F6FD710840BD490861284630BD1C
:1014B00010B504244FF43020FFF7C3FF0446042C7A
:1014C00016D1B748006940F00400B54908610846E4
:1014D000006940F0400008614FF43020FFF7B1FF91
:1014E0000446AF48006941F6FB710840AC49086109
:1014F000204610BD00B502460423FFF78AFF0346CD
:1015000003E0FFF786FF0346521E012B01D1002A9C
:10151000F7D102B90523184600BD10B504244FF4D5
:101520003020FFF7E7FF0446042C16D19C480069E1
:1015300040F004009A4908610846006940F0400004
:1015400008614FF43020FFF7D5FF04469448006946
:1015500041F6FB71084092490861204610BD002009
:101560008F49C96911F0020F01D0012000E000206D
:10157000704730B5A5250424FFF7F1FF00B1002521
:101580004FF43020FFF75DFF0446042C3AD1854824
:1015900083498860844888600846006940F02000DC
:1015A00008610846006940F0400008614FF43020AF
:1015B000FFF747FF0446042C1BD17948006941F628
:1015C000DF710840764908610846006940F0100064
:1015D000086176480580E002FFF733FF0446052CDA
:1015E00010D06F48006941F6EF7108406C490861FE
:1015F00008E0052C06D06A48006941F6EF71084002
:1016000067490861204630BD78B506460C4604257A
:1016100000200090E802FFF714FF0546042D24D1B6
:101620005F48006940F001005D4908613480E802CC
:10163000FFF707FF0546042D10D1B01C0090200CC9
:1016400000990880E802FFF7FCFE0546544800694F
:1016500041F6FE7108405249086106E050480069B1
:1016600041F6FE7108404E490861284678BD70B5C4
:1016700004460D460426F002FFF7E3FE0646042E5C
:1016800011D14748006940F00100454908612580B3
:10169000F002FFF7D6FE06464148006941F6FE71AA
:1016A00008403F490861304670BD70B505460E469A
:1016B0000424E002FFF7C5FE0446042C17D1394884
:1016C00037498860384888600846006940F0100053
:1016D00008612E80E002FFF7B4FE0446052C06D018
:1016E0002F48006941F6EF7108402D4908612046F6
:1016F00070BD2DE9F04304464FF6FF763746B046FD
:10170000B1460425E443E6B2C4F30727C4F307480F
:101710004FEA1469E802FFF794FE0546042D49D10B
:1017200020481F498860204888600846006940F0CA
:1017300010000861FF2E06D01C4808300680E80221
:10174000FFF77FFE0546042D08D1FF2F06D017486E
:101750000A300780E802FFF774FE0546042D0AD11F
:10176000B8F1FF0F07D011480C30A0F80080E80254
:10177000FFF767FE0546042D0AD1B9F1FF0F07D028
:101780000A480E30A0F80090E802FFF75AFE05461E
:10179000052D0FD00248006941F6EF71084007E0BF
:1017A0000020024023016745AB89EFCD00F8FF1F01
:1017B000664908612846BDE8F08330B50546042433
:1017C0004FF43020FFF73DFE0446042C41D1604821
:1017D0005E4988605F4888600846006940F02000E4
:1017E00008610846006940F0400008614FF430206D
:1017F000FFF727FE0446042C22D15448006941F625
:10180000DF710840514908610846006940F0100046
:1018100008611DB100205049088002E0A5204E4912
:1018200008804FF43020FFF70CFE0446052C10D042
:101830004648006941F6EF7108404449086108E0F4
:10184000052C06D04148006941F6DF7108403F4948
:101850000861204630BDF0B505460E461746042403
:101860003B483A4988603B488860E002FFF7E9FD61
:101870000446042C19D13548006940F01000334962
:10188000086147F0F800304328433349891C088039
:10189000E002FFF7D6FD0446052C06D02B48006970
:1018A00041F6EF710840294908612046F0BD2748FC
:1018B000C069800870472548006A704700202349A6
:1018C000096811F0200F01D0012000E000207047CE
:1018D00029B11E4A126902431C4B1A6104E01B4ADB
:1018E00012698243194B1A61704701460020012991
:1018F00008D1164AD26912F0010F01D0012008E088
:10190000002006E0114AD2680A4201D0012000E01E
:10191000002070470D49C860704704200B49C96812
:1019200011F0010F01D001200EE00849C96811F043
:10193000040F01D0022007E00449C96811F0100F1C
:1019400001D0032000E00420704700000020024086
:1019500023016745AB89EFCD00F8FF1F10B50446A2
:10196000CA48844208D10121042000F054FB002120
:10197000042000F050FB46E0C548844208D1012114
:10198000082000F048FB0021082000F044FB3AE06A
:10199000C048844208D10121102000F03CFB002106
:1019A000102000F038FB2EE0BB48844208D1012112
:1019B000202000F030FB0021202000F02CFB22E052
:1019C000B648844208D10121402000F024FB0021C8
:1019D000402000F020FB16E0B148844208D10121EC
:1019E000802000F018FB0021802000F014FB0AE0AA
:1019F000AC48844207D10121801500F00CFB002186
:101A0000A01500F008FB10BD10B50121084600F03C
:101A100002FB0021012000F0FEFA10BD2DE9F0418B
:101A2000024600250026002000230024002791F80C
:101A300003C00CF00F0591F803C01CF0100F03D089
:101A400091F802C04CEA050591F800C0BCF1000F06
:101A500031D0146800202BE04FF0010C0CFA00F399
:101A6000B1F800C00CEA03069E4220D183004FF07B
:101A70000F0C0CFA03F7BC4305FA03FC4CEA040410
:101A800091F803C0BCF1280F06D14FF0010C0CFAFD
:101A900000FCC2F814C00AE091F803C0BCF1480F82
:101AA00005D14FF0010C0CFA00FCC2F810C0401C2C
:101AB0000828D1D31460B1F800C0BCF1FF0F34DDA9
:101AC000546800202EE000F1080C4FF0010808FADD
:101AD0000CF3B1F800C00CEA03069E4221D183004A
:101AE0004FF00F0C0CFA03F7BC4305FA03FC4CEA69
:101AF000040491F803C0BCF1280F05D100F1080CD3
:101B000008FA0CF8C2F8148091F803C0BCF1480F31
:101B100007D100F1080C4FF0010808FA0CF8C2F8E0
:101B20001080401C0828CED35460BDE8F0814FF6E9
:101B3000FF710180022181700421C170704702464B
:101B4000002093680B4201D0012000E00020704784
:101B50000146886880B2704702460020D3680B4275
:101B600001D0012000E0002070470146C86880B223
:101B7000704701617047416170470AB1016100E03F
:101B800041617047C16070474FF480320A438261FF
:101B90008161826182698269704702460020424BFE
:101BA00018684FF68073184040EA021008433E4B15
:101BB000186070473D49C8617047F0B50A46002378
:101BC00000240021002500F00046B6F1004F02D1AC
:101BD000354EF16901E0344E7168C0F3034583B2BC
:101BE00000F44016B6F5401F08D121F070612E4E6A
:101BF000766826F070662C4F7E6012E000F4801646
:101C0000B6F5801F06D1032606FA05F4A14341F07C
:101C1000706106E0460D360103FA06F6B14341F065
:101C2000706122B1460D360103FA06F6314300F029
:101C30000046B6F1004F02D11B4EF16101E01A4E91
:101C40007160F0BD30B500228B071C0F0F2303FA23
:101C500004F2154B08338C1053F824309343124C84
:101C600008348D1044F8253023468C1053F8243066
:101C70008C07240F00FA04F423430B4C08348D1016
:101C800044F8253030BD0A4908607047000801401B
:101C9000000C0140001001400014014000180140F8
:101CA000001C0140002001400000014000002042D3
:101CB000DC0020420E49086070470D4948607047BB
:101CC0000B49886070474AF6AA20094908607047A6
:101CD0004CF6CC4006490860704701460020044A93
:101CE000D2680A4201D0012000E0002070470000C5
:101CF00000300040E448006840F00100E24908601C
:101D000008464068E1490840DF49486008460068E5
:101D1000DF490840DC4908600846006820F480205C
:101D200008600846406820F4FE0048604FF41F0039
:101D300088600020C8627047D349096821F4803167
:101D4000D14A11601146096821F480211160B0F573
:101D5000803F03D0B0F5802F0ED106E0CA49096854
:101D600041F48031C84A116007E0C749096841F46D
:101D7000A021C54A116000E000BF00BF704710B548
:101D800001460022002300204A11012A02D1BE4C44
:101D9000236806E0022A02D1BB4C236A01E0BA4C58
:101DA000636A01F01F02012494401C4201D001200B
:101DB00000E0002010BD38B5002000900024002570
:101DC00000BF3120FFF7DBFF05460098401C009064
:101DD0000098B0F5A06F01D0002DF2D03120FFF7B0
:101DE000CEFF08B1012400E00024204638BD0146A2
:101DF0000020A54A106820F0F80040EAC1001060F9
:101E00007047A44908607047024600209E4B5868FE
:101E100020F4741042EA010318439B4B586070474A
:101E20009C490866704702460020974BD86A9A4B37
:101E3000184042EA01031843934BD86270470146A9
:101E40000020914A506820F003000843506070471A
:101E50008D48406800F00C007047014600208A4A17
:101E6000506820F0F00008435060704701460020A1
:101E7000854A506820F4E06008435060704701468E
:101E80000020814A506820F4605040EAC100506050
:101E9000704729B17C4A527A02437B4B5A7204E064
:101EA000794A527A8243784B5A7270477B4908606C
:101EB000704701460020744A506820F440400843AF
:101EC000506070470021764A11706F4A82F82010E6
:101ED000012802D0042808D103E00121704A1170C2
:101EE00004E005216E4A117000E000BF00BF70479A
:101EF0006C49086070476449096A0143624A11628B
:101F00007047684944390860704770B50021002364
:101F10000024002200255C4E766806F00C0121B1F9
:101F2000042905D0082921D105E05F4E066020E094
:101F30005D4E06601DE0544E766806F47013524EF6
:101F4000766806F48034022606EB93431CB9574E9C
:101F50005E43066009E04C4EF66A06F00F06751CFB
:101F6000514EB6FBF5F65E43066002E04E4E06604B
:101F700000BF00BF444E766806F0F00109094C4EE0
:101F8000725C0668D64046603F4E766806F4E061B3
:101F9000090A474E725C4668D64086603A4E7668BB
:101FA00006F46051C90A424E725C4668D640C6606B
:101FB000354E766806F44041890B3E4E725CC66829
:101FC000B6FBF2F6066170BD29B12F4A5269024391
:101FD0002D4B5A6104E02C4A526982432A4B5A61C4
:101FE000704729B1284A92690243274B9A6104E05D
:101FF000254A92698243244B9A61704729B1224A4B
:10200000D2690243204BDA6104E01F4AD26982435D
:102010001D4BDA61704729B11B4AD26802431A4B43
:10202000DA6004E0184AD2688243174BDA607047DE
:1020300029B1154A12690243134B1A6104E0124A8E
:1020400012698243104B1A61704716494039086083
:1020500070471049C86470470B49C87170470A48F7
:10206000406A40F08070084948627047014600208D
:10207000054A92680A4201D0012000E00020704722
:102080000149887270470000001002400000FFF80C
:10209000FFFFF6FE00004242F0FFFEFFD800424282
:1020A000201002408004424200127A0000093D00E4
:1020B000180800202808002010B50446FE48844275
:1020C00008D10121C014FFF7A6FF0021E014FFF79B
:1020D000A2FFC4E0B4F1804F08D101210846FFF708
:1020E000A7FF00210120FFF7A3FFB8E0F3488442D7
:1020F00008D101210220FFF79BFF00210220FFF7FA
:1021000097FFACE0EE48844208D101210420FFF79C
:102110008FFF00210420FFF78BFFA0E0E9488442F5
:1021200008D101210820FFF783FF00210820FFF7D5
:102130007FFF94E0E448844208D101211020FFF79A
:1021400077FF00211020FFF773FF88E0DF4884420B
:1021500008D101212020FFF76BFF00212020FFF78D
:1021600067FF7CE0DA48844208D101214014FFF780
:1021700052FF00216014FFF74EFF70E0D548844203
:1021800009D10121C804FFF746FF00214FF40020C8
:10219000FFF741FF63E0D048844209D101210805DF
:1021A000FFF739FF00214FF48010FFF734FF56E0AE
:1021B000CA48844209D101214805FFF72CFF0021BC
:1021C0004FF40010FFF727FF49E0C548844208D1CB
:1021D00001214020FFF72CFF00214020FFF728FFBE
:1021E0003DE0C048844208D101218020FFF720FF54
:1021F00000218020FFF71CFF31E0BB48844208D15A
:1022000001218015FFF714FF0021A015FFF710FF33
:1022100025E0B648844209D101210804FFF7FBFEFE
:1022200000214FF48030FFF7F6FE18E0B0488442FA
:1022300009D101214804FFF7EEFE00214FF40030E0
:10224000FFF7E9FE0BE0AB48844208D10121880486
:10225000FFF7E1FE00214FF48020FFF7DCFE10BD08
:1022600000220288944B98420ED0994B98420BD092
:10227000B0F1804F08D0914B984205D0904B9842D6
:1022800002D0904B984204D14FF68F731A404B887E
:102290001A438D4B984207D08C4B984204D04FF68E
:1022A000FF431A40CB881A4302808B8883850B88B2
:1022B0000385814B98420BD0854B984208D08B4BBD
:1022C000984205D08A4B984202D08A4B984201D15D
:1022D0000B7A038601238382704770B500240022A5
:1022E0000023058C4FF6FE7635400584028C8388EA
:1022F000048B4FF68F752C40B51E2C400D882C4357
:10230000751E2A400D892A434D882A436A4DA842EA
:102310000BD06F4DA84208D0744DA84205D0744D23
:10232000A84202D0734DA84213D14FF6F7752A4048
:102330004D892A434FF6FB752A408D882A434FF674
:10234000FF652B404FF6FF552B408D892B43CD89E0
:102350002B4383800483CD888586028470BD70B54D
:10236000002400220023058C4FF6EF7635400584CB
:10237000028C8388048B48F6FF752C404FF6FF458E
:102380002C400D884FF6FF7606EA05252C434FF6C4
:10239000DF752A400D8906EA05152A434D8806EAAD
:1023A00005152A43444DA84202D0494DA8421DD1EB
:1023B0004FF67F752A404D894FF6FF7606EA0515E0
:1023C0002A434FF6BF752A408D8806EA05152A4331
:1023D0004FF6FF352B404FF2FF752B408D8906EAF3
:1023E00085052B43CD8906EA85052B43838004832D
:1023F000CD880587028470BD70B5002400220023BB
:10240000058C4FF6FF6635400584028C8388848BEB
:102410004FF68F752C404FF6FC752C400D882C43E1
:102420004FF6FF552A400D894FF6FF7606EA05253F
:102430002A434D8806EA05252A431F4DA84202D0AB
:10244000234DA8421DD14FF2FF752A404D894FF60A
:10245000FF7606EA05252A434FF6FF352A408D8888
:1024600006EA05252A434EF6FF752B404DF6FF750B
:102470002B408D8906EA05152B43CD8906EA051503
:102480002B4383808483CD888587028470BD70B59B
:10249000002200230024058C4EF6FF76354005848B
:1024A000038C8488828B48F6FF752A404FF6FF45DF
:1024B0002A400D8820E00000002C0140000400406C
:1024C00000080040000C00400010004000140040D4
:1024D00000340140004C01400050014000540140D4
:1024E00000180040001C0040002000400040014057
:1024F00000440140004801404FF6FF7606EA0525FA
:102500002A434DF6FF752B400D8906EA05352B430E
:102510004D8806EA05352B43FA4DA84202D0FA4D04
:10252000A84208D14BF6FF752C408D894FF6FF76F7
:1025300006EA85152C4384808283CD88A0F840501C
:10254000038470BD828B4FF2FF331A408283828BEB
:102550004FF6FF7303EA01231A4382837047F0B5F5
:102560000C461546002200210026078C4EF6FF7C03
:1025700007EA0C070784828B018C4FF6FF7707EA86
:10258000043640F6FF473A404FF6FF7707EA052743
:102590003A434FF6FF7707EA03373A43D94FB84239
:1025A0000ED0D94FB8420BD0B0F1804F08D0D74FE2
:1025B000B84205D0D64FB84202D0D64FB84206D165
:1025C0004DF6FF77394046F48057394305E047F62A
:1025D000FF57394044F48057394382830184F0BD6A
:1025E000828B4FF6F3731A408283828B0A43828375
:1025F0007047F0B50C461546002200210026078CD6
:102600004FF6FF6C07EA0C070784828B018C4FF6AC
:10261000FF7707EA04264FF60C773A404FF6FF772C
:1026200007EA03172F433A43B64FB8420ED0B64FCE
:10263000B8420BD0B0F1804F08D0B44FB84205D0AB
:10264000B34FB84202D0B34FB84206D14FF6FF574E
:10265000394046F48077394305E04FF2FF5739405F
:1026600044F48077394382830184F0BD028B4FF2BA
:10267000FF331A400283028B4FF6FF7303EA0123F4
:102680001A4302837047F0B50C461546002200211C
:102690000026078C4FF6EF7C07EA0C070784028BB5
:1026A000018C4FF6FF7707EA041640F6FF473A40E1
:1026B0004FF6FF7707EA03373A434FF6FF7707EA0B
:1026C00005273A438F4FB8420ED08F4FB8420BD0F8
:1026D000B0F1804F08D08D4FB84205D08C4FB84232
:1026E00002D08C4FB84206D14FF6DF77394046F022
:1026F0001007394305E04FF65F77394044F0100783
:10270000394302830184F0BD028B4FF6F3731A4004
:102710000283028B0A4302837047F0B50C461546CC
:1027200000220021068C4FF6FE773E400684028B85
:10273000018C4FF60C7632407E1C06EA03162E43BF
:102740003243704EB0420ED06F4EB0420BD0B0F15B
:10275000804F08D06D4EB04205D06D4EB04202D0D1
:102760006C4EB04206D14FF6FD76314044F0010682
:10277000314305E04FF6F576314044F00106314330
:1027800002830184F0BD70B505460C465D48854264
:102790000ED05D4885420BD0B5F1804F08D05B4824
:1027A000854205D05A48854202D05A48854200D118
:1027B00000E000BF208850B92389A288618828469C
:1027C000FFF7ABFFE1882846FFF79EFF25E0208852
:1027D00004280AD12389A28861882846FFF753FF7D
:1027E000E1882846FFF742FF17E0208808280AD131
:1027F0002389A28861882846FFF7FBFEE1882846E6
:10280000FFF7EEFE09E02389A28861882846FFF7DA
:10281000A6FEE1882846FFF795FE70BD2DE9F04140
:1028200005460C4600260127608808B9022600E00C
:102830000026A088012801D1022700E00127208876
:10284000A0B92389A28861882846FFF766FFE1883E
:102850002846FFF759FF23893A4631462846FFF7B5
:1028600012FFE1882846FFF701FF13E02389A288C1
:1028700061882846FFF707FFE1882846FFF7F6FE44
:1028800023893A4631462846FFF747FFE188284624
:10289000FFF73AFFBDE8F0810A884B881A438B881E
:1028A0001A43CB881A430B891A434B891A438B89E5
:1028B0001A43A0F8442070474FF6FF718180002131
:1028C0000180C180418001727047002101804180F8
:1028D0008180C180018141818181C1817047002156
:1028E00001804180012181800021C18001817047E8
:1028F0000021018041808180C180018141818181ED
:1029000070470000002C01400034014000040040EA
:1029100000080040000C004021B1028842F0010292
:10292000028004E002884FF6FE731A40028070476E
:1029300031B1B0F8442042F40042A0F8442005E050
:10294000B0F84420C2F30E02A0F8442070471AB138
:1029500083890B43838102E083898B4383817047A2
:102960008182704741EA0203A0F8483070471AB1EB
:1029700083890B43838102E083898B438381704782
:1029800001894FF6F8721140018170470A46002113
:1029900001894FF68F73194011430181704730B59B
:1029A00004460D4629462046FFF7F0FF208940F0F7
:1029B0000700208130BD2DE9F04104460D46164642
:1029C0001F46602D06D13B46012231462046FFF7C7
:1029D0005AFE05E03B46012231462046FFF79DFEA8
:1029E00029462046FFF7D2FF208940F007002081CA
:1029F000BDE8F08130B50C4600210189C9B24FF61F
:102A0000FF7505EA0325154325432943018130BDA0
:102A10002DE9F04105460E461746984600244346E8
:102A20003A4631462846FFF7E5FF2C894FF6F87005
:102A3000044044F007044FF68F70044044F07004E3
:102A40002C81BDE8F081F0B504460D4616461F46C0
:102A50003B46324629462046FFF7CCFF208940F40A
:102A600080402081F0BD0185828270470A460021A6
:102A700001884FF68F731940114301807047F0B5FC
:102A80000C4615461E460021002200230189028BB8
:102A9000038C4FF6F877394021434FF6FC473A4014
:102AA00040F201173A434FF6DD773B404FF6FF7790
:102AB00007EA06172F433B43018102830384F0BDDD
:102AC0000A460021018B4FF68F7319401143018391
:102AD00070470A460021018B48F6FF7319404FF6F4
:102AE000FF7303EA02231943018370470A4600215A
:102AF000818B4FF68F7319401143818370470A46CB
:102B00000021818B48F6FF7319404FF6FF7303EAEB
:102B1000022319438183704721B1028842F0800269
:102B2000028004E002884FF67F731A4002807047EB
:102B300021B1828842F00402828004E082884FF64C
:102B4000FB731A408280704721B1828842F00802EC
:102B5000828004E082884FF6F7731A4082807047C3
:102B600021B1828842F00102828004E082884FF61F
:102B7000FE731A40828070470A460021018B4FF68F
:102B8000F77319401143018370470A460021018BF6
:102B90004FF2FF7319404FF6FF7303EA0223194304
:102BA000018370470A460021818B4FF6F773194065
:102BB0001143818370470A460021818B4FF2FF73D6
:102BC00019404FF6FF7303EA0223194381837047CC
:102BD0000A460021018B4FF6FB7319401143018314
:102BE00070470A460021018B4FF6FF3319404FF61C
:102BF000FF7303EA02231943018370470A46002149
:102C0000818B4FF6FB7319401143818370470A464D
:102C10000021818B4FF6FF3319404FF6FF7303EA13
:102C200002231943818370470A460021018B4FF626
:102C30007F7319401143018370470A460021018BBD
:102C4000C1F30E014FF6FF7303EA02231943018318
:102C500070470A460021818B4FF67F73194011435C
:102C6000818370470A460021818BC1F30E014FF624
:102C7000FF7303EA02231943818370470A46002148
:102C8000018C4FF6FD7319401143018470470A46C9
:102C90000021018C4FF6F7731940114301847047EE
:102CA0000A460021018C4FF6DF7319404FF6FF737F
:102CB00003EA02131943018470470A460021018C7C
:102CC0004FF67F7319404FF6FF7303EA021319435F
:102CD000018470470A460021018C4FF6FF531940CA
:102CE0004FF6FF7303EA02231943018470470A4633
:102CF0000021018C4FF2FF7319404FF6FF7303EA76
:102D000002231943018470470A460021018C4DF6C5
:102D1000FF7319404FF6FF7303EA0233194301842E
:102D2000704730B5002301248C40A3B2048C9C432F
:102D30000484048C02FA01F5ADB22C43048430BD46
:102D400030B5002304248C40A3B2048C9C4304843B
:102D5000048C02FA01F5ADB22C43048430BD70B589
:102D60000346002000241846183001258D40ACB2DF
:102D70001D8CA5431D8409B1082909D100EB610010
:102D8000056825F0700505600568154305600EE0CF
:102D90000D1FC5F34E052844056825F4E045056080
:102DA00005684FF6FF7606EA02263543056070BDDA
:102DB00021B1028842F00202028004E002884FF64C
:102DC000FD731A400280704721B1028842F004026C
:102DD000028004E002884FF6FB731A4002807047BD
:102DE00021B1828842F08002828004E082884FF61E
:102DF0007F731A408280704702884FF6F7731A403B
:102E0000028002880A430280704782884FF68F73DF
:102E10001A40828082880A438280704702894FF676
:102E2000F8731A40028102890A43028170470289BD
:102E30004FF67F731A40028102890A43028170476C
:102E4000818470478185704781867047018770470C
:102E500081877047A0F84010704702884FF6FF4303
:102E60001A40028002880A43028070470146888E19
:102E700070470146088F70470146888F70470146AA
:102E8000B1F8400070470146888C70470146088DB4
:102E9000704702460020138A0B4201D0012000E057
:102EA00000207047CA430282704730B502460020B6
:102EB00000230024158A05EA0103958905EA010427
:102EC00013B10CB1012000E0002030BDCA430282E2
:102ED0007047000010B50446FB48844209D1012127
:102EE0008803FFF798F800214FF48040FFF793F82C
:102EF00032E0F648844209D101214804FFF798F8EE
:102F000000214FF40030FFF793F825E0F0488442A9
:102F100009D101218804FFF78BF800214FF48020AC
:102F2000FFF786F818E0EB48844209D10121C80474
:102F3000FFF77EF800214FF40020FFF779F80BE04F
:102F4000E548844208D101210805FFF771F8002106
:102F50004FF48010FFF76CF810BD2DE9F04786B0F4
:102F600005460E460024A24600BFA1460027B089B0
:102F700000B100BF2F462C8A4CF6FF700440F08849
:102F800004432C82AC894EF6F3100440B08831899A
:102F90000843718908430443AC81AC8A4FF6FF4073
:102FA0000440B0890443AC8201A8FEF7AEFFC648D6
:102FB000874202D1DDF810A001E0DDF80CA0A8895D
:102FC00010F4004F08D00AEBCA0000EB0A10316879
:102FD0004900B0FBF1F807E00AEBCA0000EB0A1069
:102FE00031688900B0FBF1F86420B8FBF0F004010F
:102FF0002009642101FB1089A88910F4004F08D032
:10300000322000EBC900B0FBF1F000F007000443F0
:1030100008E0322000EB09106421B0FBF1F000F071
:103020000F0004432C8106B0BDE8F0874FF4165121
:10303000016000218180C18001810C21418100213A
:103040008181704710B502460020108A4FF2FF03BD
:1030500018400B884C8823438C882343CC88234317
:103060001843108210BD0021018041808180C18001
:10307000704721B1828942F40052828104E0828942
:103080004DF6FF731A4082817047F0B50346002465
:10309000002600250020A1F510676A3F00D100BF7F
:1030A0001846C1F3421401F01F06012707FA06F57E
:1030B000012C01D10C3004E0022C01D1103000E0D1
:1030C00014301AB107682F43076002E00768AF4366
:1030D0000760F0BD1AB1838A0B43838202E0838AC2
:1030E0008B4383827047028A4FF6F0731A40028244
:1030F000028A0A430282704782894FF2FF731A40A4
:10310000828182890A438281704721B1828942F09B
:103110000202828104E082894FF6FD731A408281A7
:103120007047028A4FF6DF731A400282028A0A430E
:103130000282704721B1028A42F48042028204E096
:10314000028A4BF6FF731A4002827047C1F30802ED
:103150008280704701468888C0F3080070478189E3
:1031600041F0010181817047028BD2B20283028B50
:1031700042EA012202837047028B02F47F420283FB
:10318000028B0A430283704721B1828A42F02002F7
:10319000828204E0828A4FF6DF731A40828270478F
:1031A00021B1828A42F01002828204E0828A4FF6C4
:1031B000EF731A408282704721B1828A42F008027E
:1031C000828204E0828A4FF6F7731A408282704747
:1031D00021B1828942F40042828103E08289C2F3F4
:1031E0000E028281704721B1828A42F4006282829B
:1031F00004E0828A4FF2FF731A4082827047828A0B
:103200004FF6FB731A408282828A0A438282704799
:1032100021B1828A42F00202828204E0828A4FF661
:10322000FD731A408282704702460020B1F5007F8C
:1032300000D100BF13880B4201D0012000E0002024
:10324000704701F40072B2F5007F00D100BFCA439D
:103250000280704770B5024600240023002500203C
:10326000A1F510666A3E00D100BFC1F3421501F01E
:103270001F03012606FA03F3012D02D1968933407C
:1032800006E0022D02D1168A334001E0968A3340CF
:103290000C12012606FA04F41688344013B10CB15E
:1032A000012000E0002070BD10B500220023A1F530
:1032B00010646A3C00D100BF0A1201249440A3B2FA
:1032C000DC43048010BD0000003801400044004091
:1032D00000480040004C00400050004010B5012163
:1032E0000807FEF7A5FE00214FF08050FEF7A0FE74
:1032F00010BD294908627047274908617047014697
:103300000020264A106820F0E00008431060704753
:1033100023490860704710B5024600201F4B18680B
:1033200020F00300104318601E4B1B6843F0040399
:103330001C4C2360012901D130BF00E020BF194B94
:103340001B6823F00403174C236010BD134800686A
:1033500040F00400114908600846006840F002008F
:1033600008601048006840F004000E49086000BF83
:1033700000BF30BF704701460020084A52680A4229
:1033800001D0012000E0002070470449096841EAAB
:103390008001024A1160704700000E420070004038
:1033A000A0000E4210ED00E00948804709480047A0
:1033B000FEE7FEE7FEE7FEE7FEE7FEE7FEE7FEE7E5
:1033C000FEE7FEE704480549054A064B7047000042
:1033D000E90F000821010008A0080020A00E00202D
:1033E000A00A0020A00A00200FB41CB5074B06AAB3
:1033F0007B4469460090059800F07BF900206946FF
:1034000000F08AF91CBC5DF814FB000025030000E5
:1034100070B5044685690068C10601D5302600E014
:103420002026C00708D070BDD4E90121304690475E
:10343000206A00F1010020626D1EF5D570BD70B5E7
:10344000044685690078C00708D170BDD4E9012120
:1034500020209047206A00F1010020626D1EF5D502
:1034600070BD00002DE9F041064600241068752962
:10347000314616A511D0AFF30080002803DAC0F161
:10348000000013A507E031688A0701D511A502E005
:10349000490704D510A5012401E0AFF30080002105
:1034A0000A2306F1240707E0B0FBF3F203FB120046
:1034B000303078541046491C0028F5D123462A465E
:1034C0003046BDE8F04100F0B2B800000000000056
:1034D0002D0000002B000000200000002DE9F04727
:1034E0004FF0000A89460446C0F820A02046E16853
:1034F0008847002876D0252806D0D4E901219047B6
:10350000206A401C2062F1E7E168204600258847D8
:10351000C4F81CA006460027C4F818A02A2E09D01B
:10352000304600F034F938B304EB8708303EC8F871
:10353000186019E059F8041B204604EB87029161DA
:10354000E1688847012F064618D1E069002820DA93
:1035500025F020051DE0D8F8180000EB800006EBF0
:1035600040003038C8F818002046E1688847064611
:1035700000F00DF90028EED1012F0AD02E2E08D12F
:103580002046E16888477F1C0646022F45F020054B
:10359000C4DBA069002803DA404245F00105A061C0
:1035A000E80701D025F01005B6B1A6F141001928B1
:1035B00002D8203645F400654A463146204625604B
:1035C0004D46FCF70BFE58B1012806D0ED1D25F045
:1035D000070000F1080989E704E005F1040985E71F
:1035E00030468AE7206ABDE8F08710B5431C02E048
:1035F00010F8011B71B18107FAD14FF0013202C8F6
:103600008C1A8C4314EAC211F9D0C01A0A0603D0EE
:10361000C01E10BDC01A10BD0A0401D0801E10BD0E
:103620000902FCD0401E10BD7047704770472DE95D
:10363000F0470D4699469246044600F12408016879
:10364000880604D5E06921F01001216000E0012026
:10365000A84202DDA0EB050700E00027A16907EB07
:10366000050202EB0900A1EB0000A0612078C00672
:1036700002D42046FFF7CCFE002608E0D4E9012161
:103680001AF806009047206A401C761C20624E45BE
:10369000F4DB2078C0060AD52046FFF7B9FE06E025
:1036A000D4E9012130209047206A401C2062381E56
:1036B000A7F10107F4DC07E0D4E9012118F80500BF
:1036C0009047206A401C2062281EA5F10105F3DC0A
:1036D0002046FFF7B4FE2078000602D50220BDE8A0
:1036E000F0870120FBE7000001694A1C02610878AD
:1036F000704700B58FB0CDE9013100210591054932
:103700007944CDE9031011466846FFF7E7FE0FB094
:1037100000BD0000E5FFFFFF0A6802F8010B0A6028
:103720007047754600F028F8AE46050069465346D6
:1037300020F00700854618B020B5FFF743FEBDE82E
:1037400020404FF000064FF000074FF000084FF008
:10375000000B21F00701AC46ACE8C009ACE8C00999
:10376000ACE8C009ACE8C0098D4670470446AFF329
:1037700000802046FCF744FD004870473C080020CC
:1037800001491820ABBEFEE7260002007047303822
:103790000A2801D20120704700207047C9CFB5E741
:1037A000B3C9B9A600B3F5CABCBBAFCDEAB3C90073
:1037B000BFAACABC00BDE1CAF800B4A5B7A200C741
:1037C000D0BBBB002E00D5FDB3A300CAA7B0DC2040
:1037D0002020202000000000F83700080000002012
:1037E0002C0800005C010008F83900082C080020B3
:1037F00074060000C001000840120003050911FF13
:10380000118905C300E000F000F8000100083A4407
:1038100028FF11AA440001500B8301384482929280
:103820007401831120087C44FF017D7D7D044105E6
:1038300040047D01FF6E920102613F033B01017E66
:1038400081419149F20101011BC230083F3F03034E
:10385000F3131101100601F111618140200581610E
:1038600011F14733414107200401C12120A321C1A7
:103870001431193137040736D33303033F3F426015
:1038800006E0E000007FA8127FBF40040618060A89
:103890001008000040407F4040A410041F20400159
:1038A000A3201F143300600E6004300C034605345F
:1038B000C210040707060170090404048444444448
:1038C000840780050484C4041501120A7111214083
:1038D000073D0707C9200F0000101814121100003F
:1038E0000F1010100F0F131F1015600D081012127B
:1038F0000D00001800000D120A51295130015E011F
:10390000528001013B4514047F030CA915DE1C0500
:10391000385454582503080A2004047800003C4019
:10392000407C2000092CFFAAAAAA280800FF6810E2
:10393000062649494932101005020408100F0D6F80
:1039400000049D01040D9D0004156343F808012443
:103950000500F81860E82404806018235720202907
:1039600023E01021A310E01449B4313908043C8845
:103970006818630D15FF037DEA039DFF0371144D65
:10398000FF031D06043D2E040942E91C06402020C9
:1039900020C04A04110721EA3E40520452600E81C1
:1039A00018712951070D4769031C060C0A0A090CF6
:1039B0000004156B2D00042004080F0815100508DD
:1039C00009090E071D180430050909090F0A5129B4
:1039D00051070DFF00040D2200042DE9067F366E0D
:1039E0002407600901020304060708090C6110009E
:0839F0000500020406080000B6
:0400000508000121CD
:00000001FF
