:030000000204E611
:0C04E600787FE4F6D8FD75812102052D19
:100003000AB5CDB5E7C6BDC2F6BFEDA3BA256420D8
:10001300CEA2C3EB0A000AB8DFB5E7C6BDC2F6BF7E
:0C002300EDA3BA256420CEA2C3EB0A00B6
:03005800011E0086
:10057200E490FEA0F0758E5190FE9104F090FF0081
:10058200E054F04408F090FF10E0540F4480F090E3
:10059200FFA07421F075CC0675CEFF75CD98759EBF
:1005A2000290FF00E0540F4420F090FF857401F0A8
:1005B20075C11FE490FE85F0F5C3F5C243B810D2B1
:1005C200AFC2807F017E0012002FD2807F027E00A8
:0505D20012002F80EC77
:030063000203C2D3
:1003C200C0E0C0F0C083C082C0D075D000C000C001
:1003D20001C002C003C004C005C006C007E5C130A9
:1003E200E651E5C5C313F51CE5C413F51D53C1BFA2
:1003F200E51E7BFF70207A007903851C0B851D0C9E
:100402001200C875C30075C20075C11F90FE85E455
:10041200F0751E01801D7A007919851C0B851D0C53
:100422001200C875C30075C20075C11B90FE85E439
:10043200F0F51EE5C130E70353C17FD007D006D0E7
:1004420005D004D003D002D001D000D0D0D082D0C9
:0604520083D0F0D0E0327F
:0B004D008F99E59830E1FB5398FD22ED
:10002F00D3EF9400EE940040147D3C7C06ED1D70E0
:0D003F00011CED4C70F7EF1F70E61E80E312
:01004C002291
:1004F200020572E493A3F8E493A34003F68001F2A9
:1005020008DFF48029E493A3F85407240CC8C3330A
:10051200C4540F4420C8834004F456800146F6DFD9
:10052200E4800B0102040810204080900058E47E11
:10053200019360BCA3FF543F30E509541FFEE493CE
:10054200A360010ECF54C025E060A840B8E493A395
:10055200FAE493A3F8E493A3C8C582C8CAC583CAC0
:10056200F0A3C8C582C8CAC583CADFE9DEE780BE78
:01005B0000A4
:10006600E517240BF8E60517227808300702780B07
:10007600E475F0011204B00204582000EB7F2ED282
:10008600008018EF540F2490D43440D4FF30040B72
:10009600EF24BFB41A0050032461FFE5186002156F
:1000A60018051BE51B7002051A30070D7808E47564
:1000B600F0011204B0EF02049E02004D7403D20751
:1000C6008003E4C207F5178B088A09890AE4F51844
:1000D600F51AF51BE51860077F201200A180F5755B
:1000E60019FFC201C200C202C203C205C206C2088B
:1000F60012006FFF700D3007057F001200B2AF1BB4
:10010600AE1A22B4255FC2D5C20412006FFF24D0F6
:10011600B40A00501A75F00A781830D50508B6FFEB
:100126000106C6A426F620D5047002D20380D9247F
:10013600CFB41A00EF5004C2E5D2040202B2D201D3
:1001460080C6D20080C0D20280BCD2D580BAD20589
:1001560080B47F201200A12002077401B518004068
:10016600F1120066FF1200A10200DAD208D2068060
:1001760095120066FB120066FA120066F94A4B7089
:100186000679837A037BFF20022EE518602A7E001B
:100196008E8275830012047160060EEE651970F08A
:1001A600C2D5EBC0E0EAC0E0E9C0E0EE1202F9D049
:1001B600E0F9D0E0FAD0E0FB120458FF60AAEBC0E9
:1001C600E0EAC0E0E9C0E01200A1D0E02401F9D0E5
:1001D600E03400FAD0E0FBE5190460DCD519D980DB
:1001E600877BFF7A0279F5D202809C7910800279AA
:1001F60008C206C2088008D2D5790A8004790AC2E4
:10020600D5E519047002F519E4FAFDFEFF12006641
:10021600FC7B08200113120066FD7B1030000A12D9
:100226000066FE120066FF7B20EC3382D592D55025
:1002360013C3E43000069FFFE49EFEE42001039D05
:10024600FDE49CFCE4CBF8C201EC700CCFCECDCC27
:10025600E824F8F870F38017C3EF33FFEE33FEEDB2
:1002660033FDEC33FCEB33FB994002FB0FD8E9EB93
:10027600300105F8D0E0C448B201C0E00AEC4D4EAA
:100286004F78207B0070C2EAB5190040BCC0E0126E
:1002960002FBD0F0D0E0200104C4C0E0C4B201C02B
:1002A600F012008AD0F0D5F0EB0200DA1204C00199
:1002B600775301F15801484C01444201F54F01FDC5
:0F02C6004401FD49015D4302035501E74601E78D
:1002D5004501E74703A350014C2D01502E01732B17
:1002E500015423017120038C2A010C480000016B85
:1002F5003F3F3F00790AA2D5200314300509B91004
:10030500020404B9080104A2D52006025001042004
:1003150002689202B518005034C0E07F20300319FE
:100325007F30A20272067205500F120352C202C23A
:1003350006C205C2087F30800F300503E9C0E01210
:1003450000A1300503D0E0F9D0E0B518CC30051791
:100355007F30B9100C1200A17F583004077F7880D8
:1003650003B908031200A13002057F2D0200A17F09
:10037500202008F87F2B2006F322920280CF286EDA
:10038500756C6C2900D2011200663001F8C2017843
:100395001830D50108F602010C2D504349581200BA
:1003A500662403B405004001E490039E9312009275
:0D03B500743A120092D2037518040201F18F
:10045800BB010689828A83E0225002E722BBFE02A2
:09046800E32289828A83E49322D5
:10047100BB010CE58229F582E5833AF583E0225040
:1004810006E92582F8E622BBFE06E92582F8E2228A
:0D049100E58229F582E5833AF583E49322A4
:10049E00BB010689828A83F0225002F722BBFE013D
:0204AE00F32237
:1004B000FAE6FB0808E6F925F0F618E6CA3AF6224D
:1004C000D083D082F8E4937012740193700DA3A3CB
:1004D00093F8740193F5828883E4737402936860DF
:0604E000EFA3A3A380DFDF
:00000001FF
